:020000040800F2
:100000000050002021020008270200082B020008EF
:1000100043020008470200085F02000800000000D9
:10002000000000000000000000000000770200084F
:100030007B020008000000007F020008F9060008AB
:100040009102000891020008910200089102000844
:100050009102000891020008910200089102000834
:100060009102000891020008910200089102000824
:100070009102000891020008910200089102000814
:100080009102000891020008910200089102000804
:1000900091020008910200089102000891020008F4
:1000A00091020008910200089102000891020008E4
:1000B00091020008910200089102000891020008D4
:1000C00091020008910200089102000891020008C4
:1000D00091020008910200089102000891020008B4
:1000E000910200089102000891020008000000003F
:1000F0000000000000000000000000000000000000
:1001000000000000000000005FF808F100B583B0B7
:1001100000F0DEF8304B314A1360314A1360314B46
:10012000314A32498B4204D21168196004330432D7
:10013000F7E72A4B1A682E4B9A4200D0FEE7284B6D
:100140001A682C4B9A42F9D1234B2B4A13602B4A45
:1001500013602B4B02E000221A600433294A9342B9
:10016000F9D3254B1B6813B9244B1B6803B1FEE779
:1001700000F0BAF8694601A800F0A2F8224C234B1F
:10018000E41AA4100025AC4214DC214C214BE41AE3
:10019000A4100025AC4213DC0099019800F058FB34
:1001A00005461D4C1D4BE41AA410002C0EDC2846FD
:1001B00000F084F8154B53F8253098470135E2E7F5
:1001C000144B53F8253098470135E3E7013C134BB6
:1001D00053F824309847E8E7BABADECA0000002096
:1001E0002000002000000020A8A800082400002013
:1001F00078563412325476982400002034000020BF
:100200002400002038000020BC020008BC020008C6
:10021000BC020008BC020008BC020008BC020008C6
:1002200008B5FFF773FF00BEFEE71EF0040F0CBF1A
:10023000EFF30880EFF309807146124A104700BEC1
:10024000FEE700BEFEE71EF0040F0CBFEFF30880D0
:10025000EFF3098071460C4A104700BEFEE71EF01E
:10026000040F0CBFEFF30880EFF309807146074AD3
:10027000104700BEFEE700BEFEE700BEFEE700BE80
:10028000FEE770473F0200085B02000873020008A7
:0402900000BEFEE7C7
:10029400A8A800080000002024000020A8A8000846
:1002A40000000000000000002400002038000020AE
:0802B400000000000000000042
:1002BC00FEE7000001230360014B0B60704700BF99
:1002CC000400002008B500F073F8024A024B9A6053
:1002DC0008BD00BF0000000800ED00E008B500F00C
:1002EC008FF808BD82B00023019300932C4A136849
:1002FC0043F4803313602A4B1B6803F400330093E0
:10030C00019B01330193009B1BB9019BB3F5A06FBB
:10031C00F1D1234B1B6813F4003F06D0012300934B
:10032C00009B012B04D002B0704700230093F7E729
:10033C001C4B1A6842F010021A601A6822F0030271
:10034C001A601A6842F002021A60A3F580535A68C8
:10035C005A605A685A605A6842F480625A605A6805
:10036C0022F47C125A605A6842F4E8125A601A68F5
:10037C0042F080721A600A4B1B6813F0007FFAD0AF
:10038C00074B5A6822F003025A605A6842F0020284
:10039C005A60034B5B6803F00C03082BF9D1C2E7DE
:1003AC00001002400020024008B5FFF79BFF08BD7B
:1003BC0008B5104B1A6842F001021A6059680E4ACF
:1003CC000A405A601A6822F0847222F480321A6051
:1003DC001A6822F480221A605A6822F4FE025A60CB
:1003EC004FF41F029A60FFF7DFFF044B4FF00062DF
:1003FC009A6008BD001002400000FFF800ED00E01C
:10040C001F4B5B6803F00C03042B15D0082B17D083
:10041C001BB11C4B1C4A1A6002E01A4B1A4A1A6098
:10042C00174B5B68C3F30313184AD35CDAB2154954
:10043C000B68D3400B607047124B134A1A60EFE7FE
:10044C000F4A53685268C3F38343023312F4803F5C
:10045C000AD00B4A526812F4003F0BD00C4A02FB34
:10046C0003F3084A1360DBE7094A02FB03F3054A6E
:10047C001360D5E7044A02FB03F3024A1360CFE78B
:10048C00001002401C00002000127A000C0000201A
:10049C0000093D0010B4012824D018B1022841D025
:1004AC0010BC7047072910D90F29F9D8A1F10804FD
:1004BC00E4B2A4000F23A3402A48016821EA0303F5
:1004CC0002FA04F119430160EAE789000F2303FAE9
:1004DC0001F0254C236823EA000302FA01F11943C9
:1004EC002160DDE7072910D90F29D9D8A1F108001F
:1004FC00C0B280000F2383401C4C216821EA030307
:10050C0002FA00F119432160CAE789000F2303FAAC
:10051C0001F0174C236823EA000302FA01F1194396
:10052C002160BDE7072910D90F29B9D8A1F108031B
:10053C00DBB29B000F2098400E4C216821EA000092
:10054C0002FA03F101432160AAE789000F2303FAA1
:10055C0001F0094C236823EA000302FA01F1194364
:10056C0021609DE70408014000080140040C014093
:10057C00000C01400410014000100140012818D06B
:10058C0010B1022829D07047012A0AD0002A2FD195
:10059C00012303FA01F11B4A136823EA01031360D8
:1005AC007047012303FA01F1164A13680B431360D9
:1005BC007047012A09D0DAB9012303FA01F1124A72
:1005CC00136823EA010313607047012303FA01F156
:1005DC000D4A13680B4313607047012A09D03AB9CE
:1005EC00012303FA01F1094A136823EA010313609A
:1005FC007047012303FA01F1044A13680B4313609B
:10060C00704700BF0C0801400C0C01400C1001405D
:10061C00034B4FF480321A60043301221A60704786
:10062C00001002401F291CD801280BD010B1022841
:10063C0010D07047012303FA01F10A4A13680B43E7
:10064C0013607047012303FA01F1074A13680B4347
:10065C0013607047012303FA01F1044A13680B433A
:10066C0013607047141002401C1002401810024016
:10067C00024B40F247321A60704700BF0030014015
:10068C0038B505460C46002211461046FFF776FF9A
:10069C00074BDD60064B9B6813F0800FFAD1044BBF
:1006AC00DB682370012200210846FFF767FF38BD85
:1006BC0000300140014B00221A60704710E000E04E
:1006CC00094B58601A6842F001021A60064B1B680D
:1006DC0013F4803FFAD0044B1A6842F001021A60FE
:1006EC0000225A609A60704710E000E008B50A4B8F
:1006FC001B785BB9094B1A6822F002021A601A685F
:10070C0042F001021A6000225A609A60044B1B6886
:10071C009847024B1B6808BD3000002010E000E039
:10072C002C00002010B582B00446012202210020CA
:10073C00FFF724FF0DF107012046FFF7A1FF02B0E0
:10074C0010BD10B582B00446002202211046FFF7FE
:10075C0015FF0DF107012046FFF792FF02B010BD07
:10076C0008B5012211460020FFF708FF6420FFF7AF
:10077C00A7FF002201211046FFF700FF0120FFF721
:10078C009FFF012211460020FFF7F8FE6420FFF7BF
:10079C0097FF002201211046FFF7F0FE6420FFF7BF
:1007AC008FFF012211460020FFF7E8FE0948FFF7F2
:1007BC0087FF1120FFF7C5FF0748FFF781FF3A209D
:1007CC00FFF7BFFF0520FFF7ADFF2920FFF7B9FFAB
:1007DC0008BD00BFC0D40100F049020038B5054681
:1007EC002A20FFF7AEFF0020FFF79CFF0020FFF749
:1007FC0099FF0020FFF796FF7F20FFF793FF2B2038
:10080C00FFF79FFF0020FFF78DFF0020FFF78AFF07
:10081C000020FFF787FF9F20FFF784FF2C20FFF7B6
:10082C0090FF00240AE035F81400000AFFF77AFF65
:10083C0015F81400FFF776FF0134A4B2B4F5A04FFD
:10084C00F1D338BD08B5FFF7E3FE02210846FFF7E8
:10085C00E9FE0C210220FFF7E5FE02220121002017
:10086C00FFF718FE022211460020FFF713FE0922A3
:10087C0005210020FFF70EFE092207210020FFF7BB
:10088C0009FEFFF717FFFFF7F3FEFFF769FF0248BA
:10089C00FFF7A4FFFEE700BFA8080008FFFFFFFF5B
:1008AC00FFFFFFFFFFFFFFFFFFFFFFFFFFFFFFFF4C
:1008BC00FFFFFFFFFFFFFFFFFFFFFFFFFFFFFFFF3C
:1008CC00FFFFFFFFFFFFFFFFFFFFFFFFFFFFFFFF2C
:1008DC00FFFFFFFFFFFFFFFFFFFFFFFFFFFFFFFF1C
:1008EC00FFFFFFFFFFFFFFFFFFFFFEF7FFFFFFFF15
:1008FC00FFFFDFFFFFFFDFFFBFFFBFFFFEFFFFFFBD
:10090C00BEF7DFF7DFFFDFFF7EF7DFFF9FFFBFFFE5
:10091C00DFFFDEFFBEF7DEF7FFF7FFF7FFEFFFF7B6
:10092C00DFF7FFFFBFFF9FFFBFFFBFFFDFFFDFFF53
:10093C00DFFFFFFFFFFFFFFFFFFFFFFFFFFFFFFFDB
:10094C00FFFFFFFFFFFFFFFFFFFFFFFFFFFFFFFFAB
:10095C00FFFFFFFFFFFFFFFFFFFFFFFFFFFFFFFF9B
:10096C00FFFFFFFFFFFFFFFFFFFFFFFFFFFFFFFF8B
:10097C00FFFFFFFFFFFFFFFFFFFFFFFFFFFFFFFF7B
:10098C00FFFFFFFFFFFFFFFFFFFFFFFFFFFFFFFF6B
:10099C00FFFFFFFFFFFFFFFFFFFFFFFFFFFFFFFF5B
:1009AC00FFFFFFFFFFFFFFFFFFFFFFFFFFFFFFFF4B
:1009BC00FFFFFFFFFFFFFFFFFFFFFFFFFFFFFFFF3B
:1009CC00FFFFFFFFFFFFFFFFFFFFFFFFFFFFFFFF2B
:1009DC00FFFFFFFFFFFFFFFFFFFFFFFFFFFFFFFF1B
:1009EC00FFFFFFFFFFFFFFFFFFFFFFFFFFFFFFFF0B
:1009FC00FFFFFFFFFFFFDFFFDFFFDFFF9DF7BDF70F
:100A0C00DFFFFFFF9EF7BEF7BFFFBEFFDEFFFFFF5E
:100A1C00DEFFBEFFFEFFFFFFFEFFBEF7FFF7DFF7B7
:100A2C00FFFFFFFFBFFFBFFFBFFFDFFFDFFFDFFFEA
:100A3C00DFFFFFFFFFFFFFFFFFFFDFFFFFFFFFFFFA
:100A4C00FFFFFFFFFFFFFFFFFFFFFFFFFFFFFFFFAA
:100A5C00FFFFFFFFFFFFFFFFFFFFFFFFFFFFFFFF9A
:100A6C00FFFFFFFFFFFFFFFFFFFFFFFFFFFFFFFF8A
:100A7C00FFFFFFFFFFFFFFFFFFFFFFFFFFFFFFFF7A
:100A8C00FFFFFFFFFFFFFFFFFFFFFFFFFFFFFFFF6A
:100A9C00FFFFFFFFFFFFFFFFFFFFFFFFFFFFFFFF5A
:100AAC00FFFFFFFFFFFFFFFFFFFFFFFFFFFFFFFF4A
:100ABC00FFFFFFFFFFFFFFFFFFFFFFFFFFFFFFFF3A
:100ACC00FFFFFFFFFFFFFFFFFFFFFFFFFFFFFFFF2A
:100ADC00FFFFFFFFFFFFFFFFFFFFFFFFFFFFFFFF1A
:100AEC00FFFFFFFFFFFFFFFFFFFFFFFFFEFFFFFF0B
:100AFC00FFFFFFFFDFFFDFFFBFFFDFFFFFFFDFFFBA
:100B0C00DFFFBEF7BEFFFFFF9DFF78DE54BD4F9C9D
:100B1C000E9470A4D2ACB5C51BEFFEFFDFFF7DF7C2
:100B2C00DFFF9EF79EF7FFFFDFFFFFFFFFFFDFFFFB
:100B3C00DFFFFFFFFFFFFFFFFFFFFFFFFFFFFFFFD9
:100B4C00FFFFFFFFFFFFFFFFFFFFFFFFFFFFFFFFA9
:100B5C00FFFFFFFFFFFFFFFFFFFFFFFFFFFFFFFF99
:100B6C00FFFFFFFFFFFFFFFFFFFFFFFFFFFFFFFF89
:100B7C00FFFFFFFFFFFFFFFFFFFFFFFFFFFFFFFF79
:100B8C00FFFFFFFFFFFFFFFFFFFFFFFFFFFFFFFF69
:100B9C00FFFFFFFFFFFFFFFFFFFFFFFFFFFFFFFF59
:100BAC00FFFFFFFFFFFFFFFFFFFFFFFFFFFFFFFF49
:100BBC00FFFFFFFFFFFFFFFFFFFFFFFFFFFFFFFF39
:100BCC00FFFFFFFFFFFFFFFFFFFFFFFFFFFFFFFF29
:100BDC00FFFFFFFFFFFFFFFFFFFFFFFFFFFFFFFF19
:100BEC00FFFFFFFFFFFFFFFFFFFFFFFFFFFFFFFF09
:100BFC00FFFFFFFFFFFFDEFFDEFFDEFFBFFF7EF725
:100C0C00DEFFFFFFDDFF37D690A44A7B055A055A5D
:100C1C0083498349C549C5492B7374C5FBF6DFFF6E
:100C2C00FFFFBEFFFFFFDEF7DEEFFFF7FFF7DFFF93
:100C3C00DFFFDFFFFFFFFFFFFFFFFFFFFFFFFFFFF8
:100C4C00FFFFFFFFFFFFFFFFFFFFFFFFFFFFFFFFA8
:100C5C00FFFFFFFFFFFFFFFFFFFFFFFFFFFFFFFF98
:100C6C00FFFFFFFFFFFFFFFFFFFFFFFFFFFFFFFF88
:100C7C00FFFFFFFFFFFFFFFFFFFFFFFFFFFFFFFF78
:100C8C00FFFFFFFFFFFFFFFFFFFFFFFFFFFFFFFF68
:100C9C00FFFFFFFFFFFFFFFFFFFFFFFFFFFFFFFF58
:100CAC00FFFFFFFFFFFFFFFFFFFFFFFFFFFFFFFF48
:100CBC00FFFFFFFFFFFFFFFFFFFFFFFFFFFFFFFF38
:100CCC00FFFFFFFFFFFFFFFFFFFFFFFFFFFFFFFF28
:100CDC00FFFFFFFFFFFFFFFFFFFFFFFFFFFFFFFF18
:100CEC00FFFFFFFFFFFFFFFFFFFFFFFFFFFFFEFF09
:100CFC00FEFFFFFFFFFFFFFFFEFFFEFFDFFFBFFF5B
:100D0C00BEFF3BF794C567624241046286726A93E8
:100D1C00CB9B6A8BC87AE5590239C1300B8358E6F4
:100D2C009CFFBDFFFEF7BDE7FFF7DEEFFFF7DFF738
:100D3C00DFFFDFFFDFFFDFFFFFF7FFF7FFFFFFFF47
:100D4C00FFFFFFFFFFFFFFFFFFFFFFFFFFFFFFFFA7
:100D5C00FFFFFFFFFFFFFFFFFFFFFFFFFFFFFFFF97
:100D6C00FFFFFFFFFFFFFFFFFFFFFFFFFFFFFFFF87
:100D7C00FFFFFFFFFFFFFFFFFFFFFFFFFFFFFFFF77
:100D8C00FFFFFFFFFFFFFFFFFFFFFFFFFFFFFFFF67
:100D9C00FFFFFFFFFFFFFFFFFFFFFFFFFFFFFFFF57
:100DAC00FFFFFFFFFFFFFFFFFFFFFFFFFFFFFFFF47
:100DBC00FFFFFFFFFFFFFFFFFFFFFFFFFFFFFFFF37
:100DCC00FFFFFFFFFFFFFFFFFFFFFFFFFFFFFFFF27
:100DDC00FFFFFFFFFFFFFFFFFFFFFFFFFFFFFFFF17
:100DEC00FFFFFFFFFFFFDFFFDFFFFFFFFFFFDFFF67
:100DFC00DEFFFEFFFFFFFEFFFEFFDEFF3CEFFFFF0F
:100E0C001BF7CD8B424125622CA46DB40FCDCEC403
:100E1C0071D592D5F0C452CDD1BCC97A603043495A
:100E2C00F5D5FEFFFEF7FDEFBDE7FFEFFFF7FFF790
:100E3C00DFFFDFFFDFFFFFFFFFF7FFF7FFFFFFFF26
:100E4C00FFFFFFFFFFFFFFFFFFFFFFFFFFFFFFFFA6
:100E5C00FFFFFFFFFFFFFFFFFFFFFFFFFFFFFFFF96
:100E6C00FFFFFFFFFFFFFFFFFFFFFFFFFFFFFFFF86
:100E7C00FFFFFFFFFFFFFFFFFFFFFFFFFFFFFFFF76
:100E8C00FFFFFFFFFFFFFFFFFFFFFFFFFFFFFFFF66
:100E9C00FFFFFFFFFFFFFFFFFFFFFFFFFFFFFFFF56
:100EAC00FFFFFFFFFFFFFFFFFFFFFFFFFFFFFFFF46
:100EBC00FFFFFFFFFFFFFFFFFFFFFFFFFFFFFFFF36
:100ECC00FFFFFFFFFFFFFFFFFFFFFFFFFFFFFFFF26
:100EDC00FFFFFFFFFFFFFFFFFFFFFFFFDFFFFFFF36
:100EEC00FFFFFFFFDFFFDFFFFFFFFFFFFFFFFFFF46
:100EFC00DFFFDEFFDEFFDEFFDEF7BDF7FEFF58DEB5
:100F0C00EA7284494A8BCFBCCEC450D530D571DD42
:100F1C00B2E5D3E5F4E5F4E5B3DD52D54FB422499F
:100F2C004241F1ACDDFFDDEFFFF7BDE7FFF7FFF767
:100F3C00DFFFDFFFFFFFFFFFFFF7FFF7FFFFFFFF05
:100F4C00FFFFFFFFFFFFFFFFFFFFFFFFFFFFFFFFA5
:100F5C00FFFFFFFFFFFFFFFFFFFFFFFFFFFFFFFF95
:100F6C00FFFFFFFFFFFFFFFFFFFFFFFFFFFFFFFF85
:100F7C00FFFFFFFFFFFFFFFFFFFFFFFFFFFFFFFF75
:100F8C00FFFFFFFFFFFFFFFFFFFFFFFFFFFFFFFF65
:100F9C00FFFFFFFFFFFFFFFFFFFFFFFFFFFFFFFF55
:100FAC00FFFFFFFFFFFFFFFFFFFFFFFFFFFFFFFF45
:100FBC00FFFFFFFFFFFFFFFFFFFFFFFFFFFFFFFF35
:100FCC00FFFFFFFFFFFFFFFFFFFFFFFFFFFFFFFF25
:100FDC00FFFFFFFFFFFFFFFFDFFFDFFFDFF7FFFF7D
:100FEC00FFFFFFFFDFFFDFFFDFFFFFFFFFFFFFFF65
:100FFC00FFFFFFFFDEFFDEFFDEFFDEFFD9EEE96A5B
:10100C006349CC9B10C510CD0FCD50D5D2E5F3ED77
:10101C00D3EDF4ED55F614EED4E535F6F5E5D0BC8C
:10102C00A451013194BDFDFFDDF7BDF7DEF7BEF72E
:10103C00BFF7DFFFFFFFFFFFFFFFFFF7FFFFFFFF24
:10104C00FFFFFFFFFFFFFFFFFFFFFFFFFFFFFFFFA4
:10105C00FFFFFFFFFFFFFFFFFFFFFFFFFFFFFFFF94
:10106C00FFFFFFFFFFFFFFFFFFFFFFFFFFFFFFFF84
:10107C00FFFFFFFFFFFFFFFFFFFFFFFFFFFFFFFF74
:10108C00FFFFFFFFFFFFFFFFFFFFFFFFFFFFFFFF64
:10109C00FFFFFFFFFFFFFFFFFFFFFFFFFFFFFFFF54
:1010AC00FFFFFFFFFFFFFFFFFFFFFFFFFFFFFFFF44
:1010BC00FFFFFFFFFFFFFFFFFFFFFFFFFFFFFFFF34
:1010CC00FFFFFFFFFFFFFFFFFFFFFFFFFFFFFFFF24
:1010DC00FFFFFFFFFFFFFFFFFFFFFFFFFFF7FFF724
:1010EC00FFFFFFFFDFF7FFFFFFFFDFFFFFFFDFFF6C
:1010FC00DFFFDFFFDEFFDEFFFFFF1BE7297BC351B6
:10110C002DA471D510CDEFCC71DDB3E593E5B3E52E
:10111C00D4E593DDF4ED76FE35F6F4EDB3DD14DEB7
:10112C0031C542410131B4C5FEFFBDFFFFFFDFFFFA
:10113C00FFFFFFFFDFF7DFF7FFFFFFF7DFFFFFFF2B
:10114C00FFFFFFFFFFFFFFFFFFFFDFF7FFFFFFFFCB
:10115C00FFFFFFFFFFFFFFFFFFFFFFFFFFFFFFFF93
:10116C00FFFFFFFFFFFFFFFFFFFFFFFFFFFFFFFF83
:10117C00FFFFFFFFFFFFFFFFFFFFFFFFFFFFFFFF73
:10118C00FFFFFFFFFFFFFFFFFFFFFFFFFFFFFFFF63
:10119C00FFFFFFFFFFFFFFFFFFFFFFFFFFFFFFFF53
:1011AC00FFFFFFFFFFFFFFFFFFFFFFFFFFFFFFFF43
:1011BC00FFFFFFFFFFFFFFFFFFFFFFFFFFFFFFFF33
:1011CC00FFFFFFFFFFFFFFFFFFFFFFFFFFFFFFFF23
:1011DC00FFFFFFFFFFFFFFFFFFFFFFFFFFFFFFFF13
:1011EC00FFF7FFFFFFFFDFF7FFFFDFFFBEF7DFFFBC
:1011FC00BFFFFFFF7DFFFFFF5CF7CE8B81492BA468
:10120C0091D5EFC4AEC4B3EDD4ED52DD12D5F1CC13
:10121C0073DD73DD11D572DD14F675FEF3DD51CD82
:10122C00F4DD6EB4A038A559F6DDDAF6DAEE7CF70B
:10123C00DEFFFFFFFFFFDEFF9EF7BEF7FEFFDFFFC7
:10124C00DEFFFFFFFFFFFFFFFFFFFFFFFFFFFFFFC3
:10125C00FFFFFFFFFFFFFFFFFFFFFFFFFFFFFFFF92
:10126C00FFFFFFFFFFFFFFFFFFFFFFFFFFFFFFFF82
:10127C00FFFFFFFFFFFFFFFFFFFFFFFFFFFFFFFF72
:10128C00FFFFFFFFFFFFFFFFFFFFFFFFFFFFFFFF62
:10129C00FFFFFFFFFFFFFFFFFFFFFFFFFFFFFFFF52
:1012AC00FFFFFFFFFFFFFFFFFFFFFFFFFFFFFFFF42
:1012BC00FFFFFFFFFFFFFFFFFFFFFFFFFFFFFFFF32
:1012CC00FFFFFFFFFFFFFFFFFFFFFFFFFFFFFFFF22
:1012DC00FFFFFFFFFFFFFFFFFFFFFFFFDEF7FFFF3B
:1012EC00FEF7FFFFFFFFDEF7DFF7BFF7FFFFDFFFC4
:1012FC005DF7BEFFBEFF5CFFD2AC0339CA9B70D555
:10130C00CEC4EFCCD3EDD4F511DDD1D433DD13D570
:10131C0074DD54DDB0CC6EC430DD13FE75F6F3E530
:10132C0051D592DD0DB4C469E561266AC9726C832E
:10133C0033B5DAE6BDFFFFFFFFFFBEFF7DF7FFFF12
:10134C00FEFFBEF7FFFFDFF79EEFFFF7FFFFFFFF8C
:10135C00FFFFFFFFFFFFFFFFFFFFFFFFFFFFFFFF91
:10136C00FFFFFFFFFFFFFFFFFFFFFFFFFFFFFFFF81
:10137C00FFFFFFFFFFFFFFFFFFFFFFFFFFFFFFFF71
:10138C00FFFFFFFFFFFFFFFFFFFFFFFFFFFFFFFF61
:10139C00FFFFFFFFFFFFFFFFFFFFFFFFFFFFFFFF51
:1013AC00FFFFFFFFFFFFFFFFFFFFFFFFFFFFFFFF41
:1013BC00FFFFFFFFFFFFFFFFFFFFFFFFFFFFFFFF31
:1013CC00FFFFFFFFFFFFFFFFFFFFFFFFFFFFFFFF21
:1013DC00FFFFFFFFFFFFFFFFFFFFFFFFDEF7FFFF3A
:1013EC00DEF7DEF7FFFFFFFFFFFFFFFF7DF79DFF3F
:1013FC00DEFF9DFF57E64B8343494B8B2FCD0FCD23
:10140C00EECCB2EDD3F5D0D4D1DC74ED75E596ED20
:10141C0075E554E532DD6ECCECC36ED4F3EDD3E55B
:10142C0092E592E510D5ABABA78A667A6251C030D3
:10143C00A0286339EA6A53B53BF7DEFFFEFF7CEF69
:10144C009DF7FFFFDFFFDFFFFFFFFFFFFFFFFFFF4A
:10145C00FFFFFFFFFFFFFFFFFFFFFFFFFFFFFFFF90
:10146C00FFFFFFFFFFFFFFFFFFFFFFFFFFFFFFFF80
:10147C00FFFFFFFFFFFFFFFFFFFFFFFFFFFFFFFF70
:10148C00FFFFFFFFFFFFFFFFFFFFFFFFFFFFFFFF60
:10149C00FFFFFFFFFFFFFFFFFFFFFFFFFFFFFFFF50
:1014AC00FFFFFFFFFFFFFFFFFFFFFFFFFFFFFFFF40
:1014BC00FFFFFFFFFFFFFFFFFFFFFFFFFFFFFFFF30
:1014CC00FFFFFFFFFFFFFFFFFFFFFFFFFFFFFFFF20
:1014DC00FFFFFFFFFFFFFFFFFFFFFFFFFFFFBEF759
:1014EC00DEFFDEFFFFFFFFFF9DF7BEF7DEFFFEFF17
:1014FC00F9EE2EA4C87AA4610572F0CCEECC8DC4A2
:10150C0071E592EDF0DCF1E432E553E534E575ED8F
:10151C0014E513E574F5D1E4ACC329BBAECCB2ED44
:10152C00F3F550E591ED30DD2CBC0CB44DB48A9341
:10153C00E4592141223922318862F1AC5CF7FEFF7B
:10154C00DEFF7DF79DF7DEF7DFFFFFFFFFFFFFFFFD
:10155C00FFFFFFFFFFFFFFFFFFFFFFFFFFFFFFFF8F
:10156C00FFFFFFFFFFFFFFFFFFFFFFFFFFFFFFFF7F
:10157C00FFFFFFFFFFFFFFFFFFFFFFFFFFFFFFFF6F
:10158C00FFFFFFFFFFFFFFFFFFFFFFFFFFFFFFFF5F
:10159C00FFFFFFFFFFFFFFFFFFFFFFFFFFFFFFFF4F
:1015AC00FFFFFFFFFFFFFFFFFFFFFFFFFFFFFFFF3F
:1015BC00FFFFFFFFFFFFFFFFFFFFFFFFFFFFFFFF2F
:1015CC00FFFFFFFFFFFFFFFFFFFFFFFFFFFFFFFF1F
:1015DC00FFFFFFFFFFFFFFFFFFFFFFFFFFFFBEFF50
:1015EC00FFFFFFFFDEFFBDF7BEF7FEFF9CFFB4C59C
:1015FC00AC8BE459C46108938ECC8ECCAECC30DD70
:10160C00F3F551ED6ED432ED12E513E534E514E546
:10161C00F4E4F3EC13F5F2F42EE4C8BAE7A2AEDC72
:10162C00B1F570ED2FDD0ED5EED48DC4D2EDF3ED0A
:10163C0091DDAFBC6A8BA351C0306239EA6AB5BD8B
:10164C009DFFFEFFFFFFBEFF7DF7DEFFFFFFFFFFED
:10165C00FFFFFFFFFFFFFFFFFFFFFFFFFFFFFFFF8E
:10166C00FFFFFFFFFFFFFFFFFFFFFFFFFFFFFFFF7E
:10167C00FFFFFFFFFFFFFFFFFFFFFFFFFFFFFFFF6E
:10168C00FFFFFFFFFFFFFFFFFFFFFFFFFFFFFFFF5E
:10169C00FFFFFFFFFFFFFFFFFFFFFFFFFFFFFFFF4E
:1016AC00FFFFFFFFFFFFFFFFFFFFFFFFFFFFFFFF3E
:1016BC00FFFFFFFFFFFFFFFFFFFFFFFFFFFFFFFF2E
:1016CC00FFFFFFFFFFFFFFFFFFFFFFFFFFFFFFFF1E
:1016DC00FFFFFFFFFFFFFFFFFFFFFFFFDFFFFFFF2E
:1016EC00BEFFDEFF9DF7DEFFFEFF5BF712AD265A55
:1016FC00A3518A9B0CB40BBCADD46CCCD0D4D4F518
:10170C0031E54ECCAFDC52F511EDD1DCF2E4D3E493
:10171C00B2DC91E450E450EC0EECC9CAE39107B38F
:10172C00ADE4B1F54FE50DD5EDCC4ABC8CC450DD24
:10173C0033F613EED3E5F4DD8EAC455A0229843929
:10174C002F941AEFBDFFDEFFFFFFFFFFDFFFFFFF50
:10175C00FFFFFFFFFFFFFFFFFFFFFFFFFFFFFFFF8D
:10176C00FFFFFFFFFFFFFFFFFFFFFFFFFFFFFFFF7D
:10177C00FFFFFFFFFFFFFFFFFFFFFFFFFFFFFFFF6D
:10178C00FFFFFFFFFFFFFFFFFFFFFFFFFFFFFFFF5D
:10179C00FFFFFFFFFFFFFFFFFFFFFFFFFFFFFFFF4D
:1017AC00FFFFFFFFFFFFFFFFFFFFFFFFFFFFFFFF3D
:1017BC00FFFFFFFFFFFFFFFFFFFFFFFFFFFFFFFF2D
:1017CC00FFFFFFFFFFFFFFFFFFFFFFFFFFFFFFFF1D
:1017DC00FFFFFFFFFFFFFFFFFFFFFFFF7EFFFFFF8E
:1017EC007DF7BEFFDEFFDEFFFAE6AD7BE5492A7B27
:1017FC00F0BCCFC4CAAB2BC46CD4ADDCF1DC93F51C
:10180C006ECC0CC411ED2DD48FDCB1DC50CC71D46A
:10181C0010CCAECB8ED36CD32BDBA9CAC399207959
:10182C00E6AAEEDC6FE58FE56EDD2DD58BC4CDCC55
:10183C0090E5F3EDF3EDF4E514DED3D590A4685AFE
:10184C00A120064A95BDBDFFDEFFDEFFDEFFFFFFD8
:10185C00FFFFDFFFFFFFFFFFFFFFDFFFFFFFFFFFCC
:10186C00FFFFFFFFFFFFFFFFFFFFFFFFFFFFFFFF7C
:10187C00FFFFFFFFFFFFFFFFFFFFFFFFFFFFFFFF6C
:10188C00FFFFFFFFFFFFFFFFFFFFFFFFFFFFFFFF5C
:10189C00FFFFFFFFFFFFFFFFFFFFFFFFFFFFFFFF4C
:1018AC00FFFFFFFFFFFFFFFFFFFFFFFFFFFFFFFF3C
:1018BC00FFFFFFFFFFFFFFFFFFFFFFFFFFFFFFFF2C
:1018CC00FFFFFFFFFFFFFFFFFFFFFFFFDFFFFFFF3C
:1018DC00DFFFDFFFDFFFDFFFFFFFFFFFDFFF9EFF0D
:1018EC00DEFF7CEFFEFF57CE8862676AACA371E522
:1018FC004FE5C9BB46ABCDD44CC40FD574F5B1DCA8
:10190C000BAB4CB371DCCED3AED36DD34DD30BD369
:10191C00AACA89C2A9CAA9CA48C227C2A8A96178F9
:10192C00C06807A30DD56FDD2FDD0FDDAEDC4CCC11
:10193C00EEDC6FE56FDDD1ED13F654FE14E651CD00
:10194C002DA4065A02398D83FBEEFEFFBDF7BDF7C1
:10195C00FFFFFFFFFFFFDEF7FFFFDFFFFFFFFFFFD4
:10196C00FFFFFFFFFFFFFFFFFFFFDFFFFFFFDFFFBB
:10197C00DFFFFFFFFFFFFFFFFFFFFFFFFFFFFFFF8B
:10198C00FFFFFFFFFFFFFFFFFFFFFFFFFFFFFFFF5B
:10199C00FFFFFFFFFFFFFFFFFFFFFFFFFFFFFFFF4B
:1019AC00FFFFFFFFFFFFFFFFFFFFFFFFFFFFFFFF3B
:1019BC00FFFFFFFFFFFFFFFFFFFFFFFFFFFFFFFF2B
:1019CC00FFFFFFFFFFFFFFFFFFFFFFFFFFFFBEFF5C
:1019DC00BFFFDFFFDFFFFFFFFFFFBEF7BFFF7DF79E
:1019EC00FEFFFDFFD5BDE9626762B0B493E591EDF2
:1019FC008DD426A3C8B3ACCCCED471E573ED0EC494
:101A0C0084796CBB8DCBEBBACBC2AAC2AAC2E7A9B4
:101A1C00C6A106AA27B227B206B227BA67A141709F
:101A2C002058C27988A3CDCC2FDD0FE5EEDC6CCC31
:101A3C00CDD42EDD2ED56FDD90E5B1ED13E634EE71
:101A4C0035E6F0BC2A838449485AD6C5FEFFBDF75B
:101A5C00DEF7FFFFFFFFFFFFFFFFFFFFFFFFDFFFD3
:101A6C00DFFFFFFFFFFFDFFFDFFFFFFFFFFFFFFFDA
:101A7C00FFFFFFFFFFFFFFFFFFFFFFFFFFFFFFFF6A
:101A8C00FFFFFFFFFFFFFFFFFFFFFFFFFFFFFFFF5A
:101A9C00FFFFFFFFFFFFFFFFFFFFFFFFFFFFFFFF4A
:101AAC00FFFFFFFFFFFFFFFFFFFFFFFFFFFFFFFF3A
:101ABC00FFFFFFFFFFFFFFFFFFFFFFFFFFFFFFFF2A
:101ACC00FFFFFFFFFFFFFFFFFFFFFFFFFFFFBEFF5B
:101ADC00FFFFFFFFBEF7FFFFFFFFFFFF9EFFFFFFB4
:101AEC00BDFF93B5875AA76252C515E6B3E5AECCD8
:101AFC00C9B346A38CD4ACCC0ED570E530E5A79A0F
:101B0C00C0606BC3C9BA47B207B207B2E6A9238952
:101B1C0003898499C5A1C5A1A599E5A126916270F7
:101B2C000048804804720AB40ED52EE50EE5CDDCD3
:101B3C00EDD40ED52ED52FDD2FDD2FDDB1E5F2E561
:101B4C00D3E515EE15E6AC936441E651D1A4BDFF87
:101B5C00FEFFBDF7BEF7FFFFDFF7DFF7FFFFFFFF6D
:101B6C00FFFFFFFFFFFFFFFFFFFFFFFFFFFFFFFF79
:101B7C00FFFFFFFFFFFFFFFFFFFFFFFFFFFFFFFF69
:101B8C00FFFFFFFFFFFFFFFFFFFFFFFFFFFFFFFF59
:101B9C00FFFFFFFFFFFFFFFFFFFFFFFFFFFFFFFF49
:101BAC00FFFFFFFFFFFFFFFFFFFFFFFFFFFFFFFF39
:101BBC00FFFFFFFFFFFFFFFFFFFFFFFFFFFFFFFF29
:101BCC00FFFFFFFFFFFFFFFFFFFFFFFFFFFFDFFF39
:101BDC00FFFFDFFFBEF7FFFFDFFFDEFF9EFFBDFF56
:101BEC00B4C5455AC76AD2D534E671DD10D56DC47B
:101BFC00A8ABE9BBCCD4EDD46FE5B1ED6CCC2069CE
:101C0C002179E8C247BAE6B1A5A9A6A12389C27871
:101C1C00027943816489849184892381C4788268A0
:101C2C00004800380151E78A4BBCCCD40DDD0DE5E2
:101C3C000DDD0EDD4FDD2FDD0FD50FD50ED570DD93
:101C4C00B1E5D2E592DD35EE93D5065A0231B0A45A
:101C5C003AEFFEFF9DF7BEF7FFFFDFF7DFF7FFFF61
:101C6C00FFFFDFFFDFFFFFFFFFFFDFFFFFFFFFFFD8
:101C7C00FFFFFFFFFFFFFFFFFFFFFFFFFFFFFFFF68
:101C8C00FFFFFFFFFFFFFFFFFFFFFFFFFFFFFFFF58
:101C9C00FFFFFFFFFFFFFFFFFFFFFFFFFFFFFFFF48
:101CAC00FFFFFFFFFFFFFFFFFFFFFFFFFFFFFFFF38
:101CBC00FFFFFFFFFFFFFFFFFFFFFFFFFFFFFFFF28
:101CCC00FFFFFFFFFFFFFFFFFFFFFFFFFFFFDFFF38
:101CDC00BFF7DFFFFFFFDEFFBEF7DEF7DEFF94C5C9
:101CEC008762698391CDD2DDB1E5AEC48DCCADCC2C
:101CFC000ABC6BCCCCD42EDDB0ED4FDDE69A60582F
:101D0C00C39947BAA5A985A964994389A16860605C
:101D1C00A168C268C27023790271816062606258E6
:101D2C00214000306038835907930ABCCBD42DE591
:101D3C002EE52FE570E52FDD0ED50ED50EDD4EDD33
:101D4C00EED491E5B2ED92DDF4EDB3DD097BC1305B
:101D5C00CD839CFFFEFF7DEFDFF7FFFFDFF7FFFF7B
:101D6C00FFFFDFFFDFFFDFFFFFFFDFFFFFFFFFFFF7
:101D7C00FFFFFFFFFFFFFFFFFFFFFFFFFFFFFFFF67
:101D8C00FFFFFFFFFFFFFFFFFFFFFFFFFFFFFFFF57
:101D9C00FFFFFFFFFFFFFFFFFFFFFFFFFFFFFFFF47
:101DAC00FFFFFFFFFFFFFFFFFFFFFFFFFFFFFFFF37
:101DBC00FFFFFFFFFFFFFFFFFFFFFFFFFFFFFFFF27
:101DCC00FFFFFFFFFFFFFFFFFFFFFFFFFFFFDFFF37
:101DDC009EF7DFFFFFFFBEF7DEFFFFFF57DEA86AAF
:101DEC004983D1DD12E66FDDEDD4EED44BC48CCC3F
:101DFC004BC4ACCC0DDD6FE590E50BB48171C068C4
:101E0C00E5A106B224A104912481A16040480040C0
:101E1C00204861506158816061606158415041486F
:101E2C000138003000306038C369479B4AC4ECDC91
:101E3C004EE56FE570E54FDD2FDD2EDD0DDDCCD4ED
:101E4C00CDD40EDD70E5B1EDB2E5F3E5B3DDCC93A9
:101E5C00E1300A6B9DFFDEFF7EEFFFFFFFFFDEF739
:101E6C00DEF7FFFFFFFFBFF7DFFFFFFFFFFFFFFF07
:101E7C00FFFFFFFFFFFFFFFFFFFFFFFFFFFFFFFF66
:101E8C00FFFFFFFFFFFFFFFFFFFFFFFFFFFFFFFF56
:101E9C00FFFFFFFFFFFFFFFFFFFFFFFFFFFFFFFF46
:101EAC00FFFFFFFFFFFFFFFFFFFFFFFFFFFFFFFF36
:101EBC00FFFFFFFFFFFFFFFFFFFFFFFFFFFFFFFF26
:101ECC00FFFFFFFFFFFFFFFFFFFFFFFFFFFFFFFF16
:101EDC00BFF7FFFFBEF7BDFFDEFFB9DE2A7B6B8BC2
:101EEC0010C5F2E58FE50DD58BCC8CCC8CCCACCC65
:101EFC008BC4CDCC4EDD90E50FD5E792A060237955
:101F0C00859186A1E488C378C360203840300028CE
:101F1C0000380048215021500050415020402040B2
:101F2C000030013000280030E150247A47A34AC425
:101F3C00CCDC2EE54FE54FE56FE56FE50DE5EDDC0F
:101F4C000DDDACD40EDD70E550DD13F634F6B3DDEB
:101F5C00CC93C1302B73BDFFFFFF9EF7FFFFDFFF5C
:101F6C00DFFFFFFFFFFFDFFFDFFFFFFFFFFFFFFFD5
:101F7C00FFFFFFFFFFFFFFFFFFFFFFFFFFFFFFFF65
:101F8C00FFFFFFFFFFFFFFFFFFFFFFFFFFFFFFFF55
:101F9C00FFFFFFFFFFFFFFFFFFFFFFFFFFFFFFFF45
:101FAC00FFFFFFFFFFFFFFFFFFFFFFFFFFFFFFFF35
:101FBC00FFFFFFFFFFFFFFFFFFFFFFFFFFFFFFFF25
:101FCC00FFFFFFFFFFFFFFFFFFFFFFFFFFF7FFFF1D
:101FDC00DEF7DEFFBDF7DEFF3BF70E8CE97A31C58D
:101FEC0013E68FDDECD48ACC8BD46BCC8CCCADD4FB
:101FFC00ADCC6FDD4FDD2FDD0BB4C36961502471A7
:10200C0025790581C470A358413800202020002078
:10201C0000300040004800500040004800300030C4
:10202C00002800280028002840384161448267AB12
:10203C002AC4CCDC0DDD2EE58FE58FE56FED0DDDD3
:10204C00EDDCCDD4ACCCCDD470E5B1EDB1E5F3ED98
:10205C0055EE8B8BC128CE837DF7DFFFDFFFFFFFB3
:10206C00FFFFBEF7DFF7FFFFFFFFDFFFFFFFFFFF05
:10207C00FFFFFFFFFFFFFFFFFFFFFFFFFFFFFFFF64
:10208C00FFFFFFFFFFFFFFFFFFFFFFFFFFFFFFFF54
:10209C00FFFFFFFFFFFFFFFFFFFFFFFFFFFFFFFF44
:1020AC00FFFFFFFFFFFFFFFFFFFFFFFFFFFFFFFF34
:1020BC00FFFFFFFFFFFFFFFFFFFFFFFFFFFFFFFF24
:1020CC00FFFFFFFFFFFFFFFFFFFFFFFFFFFFDEF73D
:1020DC00BEF7FFFF9DFF7CFF32B5097352CD92DD39
:1020EC0091DD0DD58BCC4ACC6BD48CD48CD4CDD487
:1020FC000EDD6FDD0FD5CECC0893E04862488350DF
:10210C006358225022482138002000100010002073
:10211C0000300040205040508050A150A04060380A
:10212C0000300030003000280030A148A371648AD0
:10213C0046AB29C4CBD40CDD2DDD4EDD6FE54FE570
:10214C000EDDEDD4CDD4CDD4CDCCEED490E591E54F
:10215C00F3ED15E64B838020F2ACFFFFDEFFDEFFD4
:10216C00BEF7BEF7FFFFDFFFDFFFDFF7FFFFFFFF6D
:10217C00FFFFFFFFFFFFFFFFFFFFFFFFFFFFFFFF63
:10218C00FFFFFFFFFFFFFFFFFFFFFFFFFFFFFFFF53
:10219C00FFFFFFFFFFFFFFFFFFFFFFFFFFFFFFFF43
:1021AC00FFFFFFFFFFFFFFFFFFFFFFFFFFFFFFFF33
:1021BC00FFFFFFFFFFFFFFFFFFFFFFFFFFFFFFFF23
:1021CC00FFFFFFFFFFFFFFFFFFFFFFFFFFFF9EEF84
:1021DC00FFFF9DF7BDFF77DE297B8FACB3DD92DD72
:1021EC002FDDACCC4AC44ACC6BD48CD4ADDC0EDD28
:1021FC002EDD2FDDEECCABA3836100280130213026
:10220C00013801380030002000182018A02822497D
:10221C00A569068A689AA89AA78A867AA782667A96
:10222C00E4696359C148203800302040A0506169EE
:10223C00428A25AB07C4AAD4ECD40DDD4EE54FE59C
:10224C002EDDEED4EDD4CDCCCDD4EDD44FE591ED47
:10225C0091E514EE15E60A7BC12817D6FFFFFFFFA8
:10226C00BEFFFFFFFFFFBEF7FFFFFFFFFFFFFFFFFC
:10227C00FFFFFFFFFFFFFFFFFFFFFFFFFFFFFFFF62
:10228C00FFFFFFFFFFFFFFFFFFFFFFFFFFFFFFFF52
:10229C00FFFFFFFFFFFFFFFFFFFFFFFFFFFFFFFF42
:1022AC00FFFFFFFFFFFFFFFFFFFFFFFFFFFFFFFF32
:1022BC00FFFFFFFFFFFFFFFFFFFFFFFFFFFFFFFF22
:1022CC00FFFFFFFFFFFFFFFFFFFFFFFFDEF7FFFF3B
:1022DC007CEFBDFF9CFF0D94AB93B3DDD2ED50DDD5
:1022EC00CDCC4AC44AC46BCC8CD4ADDCCDDC2FE550
:1022FC002FE50ED58DC4A782A14000280020002018
:10230C0000200020002880308349876A29836A9B3B
:10231C00CBBBECC32CCC8DCCCECCCDBC8DBC4CBCB7
:10232C000BB4CBAB6AA3A88A856981486048E05896
:10233C008071218A04A3C7BB6ACCCCD42EDD4FE5B7
:10234C004FDD2EDD2EDDEDD4ACCCACD4CDD42FDDD9
:10235C00B1EDD3EDF4E594D5E55964413CEFBEFF06
:10236C007DF7FFFFDEFFFFFFFFFFDFF7FFFFFFFF44
:10237C00FFFFFFFFFFFFFFFFFFFFFFFFFFFFFFFF61
:10238C00FFFFFFFFFFFFFFFFFFFFFFFFFFFFFFFF51
:10239C00FFFFFFFFFFFFFFFFFFFFFFFFFFFFFFFF41
:1023AC00FFFFFFFFFFFFFFFFFFFFFFFFFFFFFFFF31
:1023BC00FFFFFFFFFFFFFFFFFFFFFFFFFFFFFFFF21
:1023CC00FFFFFFFFFFFFDFFFFFFFFFFFDFF7FEFF5A
:1023DC00BDFFDDFFB3C58A8B51CDF3ED50E5EED4D7
:1023EC004BC42AC46BCC8CD4CDDCEEDCEEDC2FE5FC
:1023FC002FDD6CC48AA362592030002840200018BD
:10240C000020A138C459E882EB9B8DB4AEC4EED445
:10241C00EEE4EEE4EEE42EDD2ED52DCD2ED52ED52C
:10242C004FDD0FDDCED4AFD42EBC6BA34682A27190
:10243C0000610069E081E4A2A7B329C4CDD42EDDEC
:10244C004FE54FE54EDD0DD5CCD4ACCCACD4CDD4D2
:10245C0050E592EDB3E515EE32C5C130CD837CF776
:10246C00DEFFDEFFDEFFFEFFFFFFDFF7FFFFFFFFFC
:10247C00FFFFFFFFFFFFFFFFFFFFFFFFFFFFFFFF60
:10248C00FFFFFFFFFFFFFFFFFFFFFFFFFFFFFFFF50
:10249C00FFFFFFFFFFFFFFFFFFFFFFFFFFFFFFFF40
:1024AC00FFFFFFFFFFFFFFFFFFFFFFFFFFFFFFFF30
:1024BC00FFFFFFFFFFFFFFFFFFFFFFFFFFFFFFFF20
:1024CC00FFFFFFFFDFFFDFFFFFFFFFFFFFFFBDF79A
:1024DC00FEFF3AF7EC93AFBCF3ED71E5CDD48BCCAA
:1024EC004AC44AC48BCCADD4CED4EFDCEEDCEEDCEB
:1024FC00CDD4EAB38682A040002800280018A03072
:10250C00A459E8820CACCEC4EECC0ED5CCCCACD459
:10251C00ACDCCCDCACDCABCCCBC4CBC4ECCCCCD40A
:10252C00EDDCEDDCEDDC2FE570E530DD8DCC89B339
:10253C00438A60714071C079A49AA8B32AC4ACD400
:10254C000DDD4EDD4EDD2EDDEDD4ACD4ACD48CD413
:10255C00EEDC50E5F4F5B3DDF4E50DA4C120D5C5F2
:10256C00DEFF5CF7FFFFBEFFFFFFDEF7FFFFFFFFA5
:10257C00FFFFFFFFFFFFFFFFFFFFFFFFFFFFFFFF5F
:10258C00FFFFFFFFFFFFFFFFFFFFFFFFFFFFFFFF4F
:10259C00FFFFFFFFFFFFFFFFFFFFFFFFFFFFFFFF3F
:1025AC00FFFFFFFFFFFFFFFFFFFFFFFFFFFFFFFF2F
:1025BC00FFFFFFFFFFFFFFFFFFFFFFFFFFFFFFFF1F
:1025CC00FFFFFFFFDFFFDFFFDFFFFFFFDEF7FEFF99
:1025DC00BDFFB4CD6EAC71D5F2F5EEDC6ACC4ACC55
:1025EC004AC46BC4ACCCCDCCEFD40FDD0FDDACD476
:1025FC002AC447A3C269403800280128C04046724B
:10260C00EBABAEC4EECCCDCCACCCABCC6ACC4AC430
:10261C0029C429C429C409C42AC46AC469C429C4E4
:10262C004ACC8BD4ACDCECDC0DDD0DD52EDD0EE50F
:10263C008DDC89BB23924071A079A49287B329CCFD
:10264C00CCD40DDD4DE54DE50DDDCCDC6BCC8CD467
:10265C008DD4EFDC51DDD4EDD4DDB4DDE649685A20
:10266C005BF79DFFDEFFFFFFDEFFDEF7FFFFFFFFE7
:10267C00FFFFFFFFFFFFFFFFFFFFFFFFFFFFFFFF5E
:10268C00FFFFFFFFFFFFFFFFFFFFFFFFFFFFFFFF4E
:10269C00FFFFFFFFFFFFFFFFFFFFFFFFFFFFFFFF3E
:1026AC00FFFFFFFFFFFFFFFFFFFFFFFFFFFFFFFF2E
:1026BC00FFFFFFFFFFFFFFFFFFFFFFFFFFFFFFFF1E
:1026CC00FFFFFFFFDFFFDFFFDFFFFFFFDEFFBEFFD0
:1026DC005BF78FA451CDD2E52FDDCDD449CC49CCBD
:1026EC004AC48BC4CDCC0FD50FD50FDD0FDD8CCCF0
:1026FC0087AB6382C048002820280541299B0CB475
:10270C00AECCCED4ADD48CCC2AC408C408BCE8BBA7
:10271C00E7BBC8BBC8BBA8BB88BB68BBC7B3E7BB20
:10272C00E8C3E9CB08CC08C469CCEBD4EBD40DDD01
:10273C000EEDAEE4CBCBC6A2E181A071C3A286BBE9
:10274C0029CCABD40CDD2DE50DDDECDC8BD4CDDC54
:10275C004CCCAED430DDF4EDD3E515E690A4E228F4
:10276C0053B5FEFF9DF7DEFF9DEFFFFFFFFFFFFF61
:10277C00FFFFFFFFFFFFFFFFFFFFFFFFFFFFFFFF5D
:10278C00FFFFFFFFFFFFFFFFFFFFFFFFFFFFFFFF4D
:10279C00FFFFFFFFFFFFFFFFFFFFFFFFFFFFFFFF3D
:1027AC00FFFFFFFFFFFFFFFFFFFFFFFFFFFFFFFF2D
:1027BC00FFFFFFFFFFFFFFFFFFFFFFFFFFFFFFFF1D
:1027CC00FFFFFFFFDFFFDFFFDFFFFFFFDFFFDEFFAE
:1027DC0057D6AFAC51CDB2E5CDD44BCC49CC49CCCE
:1027EC006ACCABCCEDCC2FD50FD5CED4ADD42AC47E
:1027FC00E59AC1716040403065512E8B6ECCCFD4C0
:10280C00CED48DCC4BCC09C4E8C3E8BBC7BBA6B3B4
:10281C0086AB45A326A326AB07B3E7B265AB66AB85
:10282C0066B366BBC7C3E7C326BC67BCA9CCABD435
:10283C00ADDCAEE4CFEC4DDC27AB428A008AC3A200
:10284C00A7BB49CCCBD42DE52DE50DE5EDE44BCC68
:10285C006CD44CCCCFD451DDF4E5F5E5F5CD475A2D
:10286C0027525BF7DEFFFEFFBEF7FFFFFFFFFFFF08
:10287C00FFFFFFFFFFFFFFFFFFFFFFFFFFFFFFFF5C
:10288C00FFFFFFFFFFFFFFFFFFFFFFFFFFFFFFFF4C
:10289C00FFFFFFFFFFFFFFFFFFFFFFFFFFFFFFFF3C
:1028AC00FFFFFFFFFFFFFFFFFFFFFFFFFFFFFFFF2C
:1028BC00FFFFFFFFFFFFFFFFFFFFFFFFFFFFFFFF1C
:1028CC00FFFFFFFFFFFFDFFFDEFFDDFFFDFF7AFFF6
:1028DC0030BDEFBCD2E52FDD6CD42BCC2AC44ACC56
:1028EC006CCCCED4EFDC0FDD0EDDCDD44BC469AB9C
:1028FC002582E1580038A37148A3CDD4ECD48BCCFD
:10290C004ACC2AC4E9C3C8BBA8BBA7B3A7B366AB60
:10291C0045A325A305ABE4A2A4A283A2C5A2C5A28C
:10292C00E5AA24AB65B3A5B3C6BBE7BB08C42ACCE8
:10293C004BCC6CD4EDE42EEDACDCE8BB418A008AC8
:10294C00E3A2E8CB4AD4ACE42DED0DE5CCDC8CD481
:10295C000ACC0BCC8DD4F0DC92E5D3EDF5E56FAC65
:10296C00C03074BDFEFFDEFFBEF7FFF7FFFFFFFFB9
:10297C00FFFFFFFFFFFFFFFFFFFFFFFFFFFFFFFF5B
:10298C00FFFFFFFFFFFFFFFFFFFFFFFFFFFFFFFF4B
:10299C00FFFFFFFFFFFFFFFFFFFFFFFFFFFFFFFF3B
:1029AC00FFFFFFFFFFFFFFFFFFFFFFFFFFFFFFFF2B
:1029BC00FFFFFFFFFFFFFFFFFFFFFFFFFFFFFFFF1B
:1029CC00FFFFFFFFFFFFDFFFDEFFDDFFFDFF77DE19
:1029DC0010B591D5B1E5EED42BC40ACC2AC44BCC9E
:1029EC006CCCCED4EFDCEEDCEEDCACCCA9ABA68AA6
:1029FC004161804883716AABAED4ADD4ABCC4AC4D0
:102A0C0009C4E9BBA8BB87B387B366B366AB25A380
:102A1C00E49AC39AA39A839A429A439A439A6392EA
:102A2C00839AC3A203A324AB64B385B3C7BBE8C327
:102A3C0009C40AC44BCCACDCEDE4EDE4E7C3619211
:102A4C00218A46B309CC6BDCECE40DE5CCDC6BD411
:102A5C000ACC0BCC4CCCAED451DDD3E556EE93D591
:102A6C00E5592A73BDFFDEFF9DEFFFFFFFFFFFFF60
:102A7C00FFFFFFFFFFFFFFFFFFFFFFFFFFFFFFFF5A
:102A8C00FFFFFFFFFFFFFFFFFFFFFFFFFFFFFFFF4A
:102A9C00FFFFFFFFFFFFFFFFFFFFFFFFFFFFFFFF3A
:102AAC00FFFFFFFFFFFFFFFFFFFFFFFFFFFFFFFF2A
:102ABC00FFFFFFFFFFFFFFFFFFFFFFFFFFFFFFFF1A
:102ACC00FFFFFFFFFFFFDFFFDEFFDEFFBDFF93C554
:102ADC0030BD13E62FD5CDD40BC4EAC34AC46BCC9E
:102AEC008CD4CDDCEEDCEEDCCDD44BC4079B248245
:102AFC00C05000596AAB8DCCCEDC6BCC4AC409BC3F
:102B0C00E8BBC8BB87B387B367B366AB04A3C39AF0
:102B1C006292418A218AE189E189E189028A028AE9
:102B2C0022926292A29AE3A224AB65B386BBA7BBA6
:102B3C00C8C3E8C3E8C309C48BD4ECE42CE5E7C3F1
:102B4C004192419287C32AD44AD4ECDCACDC2ACC27
:102B5C000BCCCACBEBC36DCCCFD492E535EE56EE95
:102B6C00AC932239DAE6FFFFBEF7FFF7FFFFFFFF5A
:102B7C00FFFFFFFFFFFFFFFFFFFFFFFFFFFFFFFF59
:102B8C00FFFFFFFFFFFFFFFFFFFFFFFFFFFFFFFF49
:102B9C00FFFFFFFFFFFFFFFFFFFFFFFFFFFFFFFF39
:102BAC00FFFFFFFFFFFFFFFFFFFFFFFFFFFFFFFF29
:102BBC00FFFFFFFFFFFFFFFFFFFFFFFFFFFFFFFF19
:102BCC00FFFFFFFFFFFFDFFFDEFFDDFF5BF731BD28
:102BDC0092CDF3E5CECC8DD42BCCEAC32ACC6BCCE6
:102BEC008CD4CDDCEDDCCDDC6CCCC9B3858A4069F2
:102BFC000061E79A6DCCADD46CCC0AC409BCE8BBBF
:102C0C00C8BBC8B3A7B3A7B386B345B3E4A2829A33
:102C1C00218A018AE181A079A079A179A181A17988
:102C2C00C181018A4192829AE3A245B386BB86BBDD
:102C3C00A6BBC7C3E8C3C8C308C429CCEBDC2CEDC6
:102C4C00A7C3219283A287BB09CC6BD46BD4EACBEC
:102C5C00CACB69BB8ABB2CCC8DCC50DDD4E577F6C6
:102C6C0053C5233913ADDEFFFFFFBEF7FFFFFFFF98
:102C7C00FFFFFFFFFFFFFFFFFFFFFFFFFFFFFFFF58
:102C8C00FFFFFFFFFFFFFFFFFFFFFFFFFFFFFFFF48
:102C9C00FFFFFFFFFFFFFFFFFFFFFFFFFFFFFFFF38
:102CAC00FFFFFFFFFFFFFFFFFFFFFFFFFFFFFFFF28
:102CBC00FFFFFFFFFFFFFFFFFFFFFFFFFFFFFFFF18
:102CCC00FFFFFFFFFFFFFFFFDEFFBDFFB8E611BDFB
:102CDC00D3DD91DD8DCC4CCCEAC3CAC32ACC4ACC13
:102CEC006BD4ACDCCCDCACDC4BCC48AB0282E0581B
:102CFC00648A8CCCACD46BCC2BC4A9B3C8B3C7B38B
:102D0C00C7B3C7B3C7BBA7BB86B324AB839A219207
:102D1C00E189A0818079807161718171817180718B
:102D2C008071A179E181218A829AE4A265B385BB85
:102D3C00A6BBC6BBC6BBC7C308C429CC68CCCADCFF
:102D4C00CBE466BBE189639AA8C3C9C3E9CB88C34A
:102D5C0048BBC6AA28BB0BCC4CCC0FDDB3E577F631
:102D6C0036E66762EA6A5CEFDEFFFFFFFFFFFFFFFC
:102D7C00FFFFFFFFFFFFFFFFFFFFFFFFFFFFFFFF57
:102D8C00FFFFFFFFFFFFFFFFFFFFFFFFFFFFFFFF47
:102D9C00FFFFFFFFFFFFFFFFFFFFFFFFFFFFFFFF37
:102DAC00FFFFFFFFFFFFFFFFFFFFFFFFFFFFFFFF27
:102DBC00FFFFFFFFFFFFFFFFFFFFFFFFFFFFFFFF17
:102DCC00FFFFFFFFFFFFDFFFDEFFBDFF36D652C563
:102DDC00F4E571DDAED4EAC3C9C3CACBE9C32ACCCE
:102DEC004ACC8BD4ABDC8BD4E9C3C69A4069228223
:102DFC002AC4ABD48ACC09BCC9BBA8B3C7B3C7B36C
:102E0C00E8BBE7BBE7BBE7BB86B304A34192E18910
:102E1C0080796071416961616261826181698169F6
:102E2C008269A271C279E281438AA39A04AB85BB01
:102E3C00E6C3E6C3A6BBA6BBE7C328CC28C428CCF4
:102E4C00CBE48BE4C4AAC189649A27AB27B3E6AA66
:102E5C0044A2039A07B3EBCB0BCCCEDCB4E556F60D
:102E6C0036E6AD8BE649FBE6DEFFFFFFFFFFFFFF1B
:102E7C00FFFFFFFFFFFFFFFFFFFFFFFFFFFFFFFF56
:102E8C00FFFFFFFFFFFFFFFFFFFFFFFFFFFFFFFF46
:102E9C00FFFFFFFFFFFFFFFFFFFFFFFFFFFFFFFF36
:102EAC00FFFFFFFFFFFFFFFFFFFFFFFFFFFFFFFF26
:102EBC00FFFFFFFFFFFFFFFFFFFFFFFFFFFFFFFF16
:102ECC00FFFFFFFFFFFFDEFFBEFFBDFFD5D5B3D574
:102EDC00D3E530DDADD4CAC3A9C3A9C3C9C3E9CBFB
:102EEC0009CC4AD46AD42ACC47B3038A406988B344
:102EFC00CCDC69CC28C4E8BBA8BBE9C3E8BBE8BB05
:102F0C0008BC28C448C428C4A6B3E4A2218AC18141
:102F1C008179616942612251224922490049E04884
:102F2C00215142596261A269037A848AE49A85B379
:102F3C0007C427CCE6C3C6BBC6C3E7C327C428CC8B
:102F4C0029D46BE4E9CB2392607923922392239AC0
:102F5C008189C29128BBCACBEAC3ADDC93E515EEDF
:102F6C0056EEF1B4A54158D6FFFFBEF7FFFFFFFFA9
:102F7C00FFFFFFFFFFFFFFFFFFFFFFFFFFFFFFFF55
:102F8C00FFFFFFFFFFFFFFFFFFFFFFFFFFFFFFFF45
:102F9C00FFFFFFFFFFFFFFFFFFFFFFFFFFFFFFFF35
:102FAC00FFFFFFFFFFFFFFFFFFFFFFFFFFFFFFFF25
:102FBC00FFFFFFFFFFFFFFFFFFFFDFFFFFFFFFFF35
:102FCC00FFFFFFFFFFFFDEFFBDFF9CFFB4CDF4DD75
:102FDC00B2E50FDD2CCCCAC3A9C368BBA9C3E9CB2E
:102FEC0009CC29D429CCC9C3E6A28179A59A0ACCEB
:102FFC008AD4AAD4C6BBE7BBE8BB67B3E8C308C492
:10300C0029C469C469CC49C4A6B3C49A0282A27902
:10301C0062694259E248813040202018001800189B
:10302C0020288030A14002498361237AE59245A390
:10303C00C6B327C448CC28CC07C4E7C3E6BBE7C358
:10304C00C7C3E9CB0AD4E5AA607940716081A18934
:10305C000079C29989CBAACBA9C38DD472DDF4E5D2
:10306C0019FFD5D5233933ADFFFFBEF7FFFFFFFFA7
:10307C00FFFFFFFFFFFFFFFFFFFFFFFFFFFFFFFF54
:10308C00FFFFFFFFFFFFFFFFFFFFFFFFFFFFFFFF44
:10309C00FFFFFFFFFFFFFFFFFFFFFFFFFFFFFFFF34
:1030AC00FFFFFFFFFFFFFFFFFFFFFFFFFFFFFFFF24
:1030BC00FFFFFFFFFFFFFFFFFFFFFFFFFFFFFEFF15
:1030CC00FFFFFFFFFFFFBEF7BDFF5BFF73CDD4DD3E
:1030DC00B3E5CFD40BC4CAC3A9C348BB47BB26B303
:1030EC00A8C309CCA8C306B344926079A9BB8BDCF6
:1030FC00AADC07C4C6BBC6BBC7BBC8BB09C449CC8A
:10310C008AD4AAD489CC8ACC87ABA492E37982697D
:10311C002259403000180010000821080008001047
:10312C00001020188228402860306251A58287A3A5
:10313C00C7B348C4AAD448CC69CCE7C3E7BBE7C340
:10314C00A7C3A7C3A8C306B3C289E068E070C06870
:10315C002081A6B2CAD389C389BB8DD451DD15EEAB
:10316C00F9FEB9F60A73919C9DF7FFFFFFFFFFFF75
:10317C00FFFFFFFFFFFFFFFFFFFFFFFFFFFFFFFF53
:10318C00FFFFFFFFFFFFFFFFFFFFFFFFFFFFFFFF43
:10319C00FFFFFFFFFFFFFFFFFFFFFFFFFFFFFFFF33
:1031AC00FFFFFFFFFFFFFFFFFFFFFFFFFFFFFFFF23
:1031BC00FFFFFFFFFFFFFFFFFFFFFFFFFFFFFFFF13
:1031CC00FFFFDFFFFFFFFEFFDDFF1AF793CDD4E516
:1031DC0092E5AED4EBC3A9C368BB48BBE6B2E6AA82
:1031EC0067BB87BB67BB649A607944926CD48BD401
:1031FC0049CC07C407C4C7BBC7BBE9BB29CC8AD41D
:10320C00ABD4EBDCCBD46AC4C8AB279B0472C140F3
:10321C004028001800104210420862086208821010
:10322C004210421062180010001060282149278BB0
:10323C006BBC6AC4EBD4AAD449C449CC28C4E7C338
:10324C00C8C3C8C347BB43922071A060C06840810B
:10325C0065A248C389CB68BBCAC3ADD4B3E592DDC4
:10326C0056EE3AFFD5CDD2A47DF7FFFFFFFFFFFF4F
:10327C00FFFFFFFFFFFFFFFFFFFFFFFFFFFFFFFF52
:10328C00FFFFFFFFFFFFFFFFFFFFFFFFFFFFFFFF42
:10329C00FFFFFFFFFFFFFFFFFFFFFFFFFFFFFFFF32
:1032AC00FFFFFFFFFFFFFFFFFFFFFFFFFFFFFFFF22
:1032BC00FFFFFFFFFFFFFFFFFFFFFFFFDFFFFFFF32
:1032CC00FFFFDEF7FFFFFEFFBDFFB9EED4D5D4E55F
:1032DC0072E5AED40BCCA9BB68BB48BBA5A2639A64
:1032EC00C5AA84A285A2C289207148B36BD409CC2B
:1032FC00C7BBC6BBE7BBC7BBE8BB29C46ACCCCDC2D
:10330C00ECDC2DDDECD46BC40AB428938351202063
:10331C00201842184210A418A41063086200630815
:10332C0042084208420801080008001000186149D0
:10333C00EBA30ECDCCCCECD4CBD48ACC89CC28C48A
:10334C00C8C346B3439A607900692069C289A5A2B3
:10335C0089CB89CB07BB48BB2BCCAED4B3E5D4E52A
:10336C0035E6D9F65BFF33AD7DF7FFFFFFFFFFFFBF
:10337C00FFFFFFFFFFFFFFFFFFFFFFFFFFFFFFFF51
:10338C00FFFFFFFFFFFFFFFFFFFFFFFFFFFFFFFF41
:10339C00FFFFFFFFFFFFFFFFFFFFFFFFFFFFFFFF31
:1033AC00FFFFFFFFFFFFFFFFFFFFFFFFFFFFFFFF21
:1033BC00FFFFFFFFFFFFFFFFFFFFFFFFFFFFDFFF31
:1033CC00FFFFDEFFFEFFFEFFBCFF98E6F4DDF4ED31
:1033DC0071E5AED40BCC89BB48BB68BBE6AAA18116
:1033EC00E2890392A2812071617989C30ACC09C454
:1033FC00E8C3C7BBC7BBE8BB49C44ACC8BCC2DDDEB
:10340C002EE54EE50ED5CDCC4DB486726020001065
:10341C00A31805218310830863084200630022006F
:10342C000100220022002200210820082010001098
:10343C00256230CD2FD54EDD2DDDECD4AAD46ACC4F
:10344C00E8C3C5A2C181C1814392849A68B3A9C360
:10345C00CACB48BB07B38ABB6DD4CEDC72DD76FE1B
:10346C0056EE16DE3BF758CE9DF7FFFFFFFFFFFF32
:10347C00FFFFFFFFFFFFFFFFFFFFFFFFFFFFFFFF50
:10348C00FFFFFFFFFFFFFFFFFFFFFFFFFFFFFFFF40
:10349C00FFFFFFFFFFFFFFFFFFFFFFFFFFFFFFFF30
:1034AC00FFFFFFFFFFFFFFFFFFFFFFFFFFFFFFFF20
:1034BC00FFFFFFFFFFFFFFFFFFFFFFFFFFFFDFFF30
:1034CC00FFFFFFFFFFFFDEFFBCFF97E6D4DDD3ED70
:1034DC0051E58DD40BCC89BB47B347B388C3A189C5
:1034EC00007162810071A060A28169BBA8BBC8BBDE
:1034FC00C8BBA7BBC7BB29C48BD4ABD40DD54EE579
:10350C008FED6FE52FDD91DD6EB44341000841086E
:10351C00C310C4104200010001004108E418620805
:10352C0001002100010001000100000041104018C1
:10353C008028AB9313EE91E52ED54EDDECDCCBD48D
:10354C004ACC67B3E5A247B3C9BBC9BBC9C3CAC39D
:10355C0068BB27B389C3EBCB8DD40FDDB2E555F631
:10356C0035E6B4CDFAEE9DF7DEFFDFFFFFFFFFFF80
:10357C00FFFFFFFFFFFFFFFFFFFFFFFFFFFFFFFF4F
:10358C00FFFFFFFFFFFFFFFFFFFFFFFFFFFFFFFF3F
:10359C00FFFFFFFFFFFFFFFFFFFFFFFFFFFFFFFF2F
:1035AC00FFFFFFFFFFFFFFFFFFFFFFFFFFFFFFFF1F
:1035BC00FFFFFFFFFFFFFFFFFFFFFFFFFFFFDEFF30
:1035CC00FFFFFFFFFEFFDDFF9CFF57E6B4DDF4EDD0
:1035DC0071EDAEDC2BD4A9C347B347B3C9CBE6AA74
:1035EC002179806040608060E48927B367B367B35A
:1035FC0087B3A8BBE9C34ACCABD4EDDC4FDD6FDDA0
:10360C00B1ED90E571E5F4EDAC9B40182008A208F3
:10361C00830042004200210000002008E31841080A
:10362C0000002100210000000100010000008218B0
:10363C0000106449D3DD13EED1E58FE58EED0DDD81
:10364C008BD42ACC2ACC2BCC2ACCE9BBA8B3A9BBD3
:10365C0048B348BBEBCB2CCCAED492E514EE14EEB5
:10366C0076EE93C5B4C55CEFFFFFDFFFFFFFFFFFF6
:10367C00FFFFFFFFFFFFFFFFFFFFFFFFFFFFFFFF4E
:10368C00FFFFFFFFFFFFFFFFFFFFFFFFFFFFFFFF3E
:10369C00FFFFFFFFFFFFFFFFFFFFFFFFFFFFFFFF2E
:1036AC00FFFFFFFFFFFFFFFFFFFFFFFFFFFFFFFF1E
:1036BC00FFFFFFFFFFFFFFFFFFFFFFFFFFFFDEFF2F
:1036CC00FFFFFFFFFEFFDDFF9CF715D6B3DD14EE09
:1036DC0092EDCEDC4CD4C9C347B347B368C3CACB55
:1036EC00459AA06820588060A381649A47B388BB30
:1036FC00C8BB0AC44BCC8BCCCCD42DE590DD90DD73
:10370C00D2EDD2EDB3EDF4ED686A00086108A308C0
:10371C0082004200620041082008000820080000D6
:10372C00000000002000410041004200010021087F
:10373C00001020186FAC55EE53F6D1E510FE8FED4E
:10374C00EDDCACDC8CDC6BD40AC4E9BBC9BBC9BBFB
:10375C00CAC3EACB4CD48ED410DDD3ED14EE55EEA7
:10376C0096EE32BDEA6A95B5FFFFDFFFFFFFFFFF64
:10377C00FFFFFFFFFFFFFFFFFFFFFFFFFFFFFFFF4D
:10378C00FFFFFFFFFFFFFFFFFFFFFFFFFFFFFFFF3D
:10379C00FFFFFFFFFFFFFFFFFFFFFFFFFFFFFFFF2D
:1037AC00FFFFFFFFFFFFFFFFFFFFFFFFFFFFFFFF1D
:1037BC00FFFFFFFFFFFFFFFFFFFFFFFFFFFFDFFF2D
:1037CC00FFFFFFFFFEFFFEFF9CFFD4CD93D514F649
:1037DC00B2F5EEE46CD4EAC347B347B347BBEACBCC
:1037EC0029BB0692C1682058C0686179439226AB08
:1037FC00A8BBEAC36CCCCDD40DDD8FEDF2E5B1DD09
:10380C00F2ED13F614F6D4E5855100088208A300F6
:10381C008200620041002000000800100000200817
:10382C00200800000000200021004200420801088E
:10383C00011000104B8376F633EE32F611FEF0FDDC
:10384C006FED0DE5CDE48BD44ACC4ACC0AC40AC446
:10385C002BD48DDCAEDC30E5B2EDD3EDF3E596F692
:10386C0056EE32BDC120EE83DEFFFFFFFFFFFFFFF0
:10387C00FFFFFFFFFFFFFFFFFFFFFFFFFFFFFFFF4C
:10388C00FFFFFFFFFFFFFFFFFFFFFFFFFFFFFFFF3C
:10389C00FFFFFFFFFFFFFFFFFFFFFFFFFFFFFFFF2C
:1038AC00FFFFFFFFFFFFFFFFFFFFFFFFFFFFFFFF1C
:1038BC00FFFFFFFFFFFFFFFFFFFFFFFFFEFFFEFF0E
:1038CC00FFFFDEF7DEFFFEFFF9EE31BDB2D554F699
:1038DC00B1ED50E58DDCCBCB6BCB0AC307BB68C31A
:1038EC00AACB48BB249A4071E068E0686079228AD0
:1038FC0087B36BCCCCD40EDD90E5B0E5F0E532EEC1
:10390C00F2E555EE36EE16DE6441000860086008FC
:10391C004000000040082008000001084108200079
:10392C0000002000000000002000000062100000D9
:10393C0020100010475AB7EE75EE74EE54F674FE74
:10394C00F2F5D1F54FE52EE50DDDCDD4ACD4CDD4CB
:10395C000FDD2FDD51DDD2EDF3ED14F635EE56EE25
:10396C0015DE90A400088D73DFF7DFF7DFFFDEFFB5
:10397C00FEFFFFFFFFFFFFFFFFFFFFFFFFFFFFFF4C
:10398C00FFFFFFFFFFFFFFFFFFFFFFFFFFFFFFFF3B
:10399C00FFFFFFFFFFFFFFFFFFFFFFFFFFFFFFFF2B
:1039AC00FFFFFFFFFFFFFFFFFFFFFFFFFFFFFFFF1B
:1039BC00FFFFFFFFFFFFFFFFFFFFFFFFFEF7FEFF15
:1039CC00FFFFDEFFDEFF7DF733B56F9CD3D575F6B9
:1039DC0013F671EDAEDC4DDCACCB2AC348C328BB6F
:1039EC0069C389C368BBE7AA659A038A228AE5A2E0
:1039FC00E9C3CCD42EDD6FE5B0EDD1ED32EE32EE75
:103A0C0013EE55F677EE37E6033100082000000080
:103A1C0040004000200000000008010800000000E9
:103A2C0000002000200000002000000000004208E0
:103A3C0000000008E55197EED6F6B5F695FE74FE3B
:103A4C0053FE33FE11FEB0F56FED6FED6FE52FDD1C
:103A5C0070E5B2EDF3F534F614F655FE55F6B3DD1C
:103A6C0056E6C96A20080C639EEFFFFFDFFFDEFFFE
:103A7C00FEFFFFFFFFFFFFFFFFFFFFFFFFFFFFFF4B
:103A8C00FFFFFFFFFFFFFFFFFFFFFFFFFFFFFFFF3A
:103A9C00FFFFFFFFFFFFFFFFFFFFFFFFFFFFFFFF2A
:103AAC00FFFFFFFFFFFFFFFFFFFFFFFFFFFFFFFF1A
:103ABC00FFFFFFFFFFFFFFFFFFFFFFFFFEF7FFFF13
:103ACC00FFFFDFFFFFFF1BEF0B6B4B7BF4D534EEDF
:103ADC0054F6D2F510E5CFE40DD4ACC368C328BBC3
:103AEC0028BB89C3CACBCACBCACBA9C30AC46CCC6A
:103AFC00EDDC4FE590EDB1EDF1ED12F632EE32EE7C
:103B0C0054EE75F6B7F698EE85410008611000008A
:103B1C0020000000000000004008000000006110C0
:103B2C006110400800000000000020000000410867
:103B3C00000000080652D7EEF7F6D6F6B6FE74FE75
:103B4C0094FE74FE33FE52FE12FEB0ED12FEF2F540
:103B5C00B1ED34FE54FED3ED55FE75FE35EEF4DDBD
:103B6C0032C5C2280000E7393CE7FFFFFFFFFFFF2B
:103B7C00FFFFFFFFFFFFFFFFFFFFFFF7FFFFFFFF51
:103B8C00FFFFFFFFFFFFFFFFFFFFFFFFFFFFFFFF39
:103B9C00FFFFFFFFFFFFFFFFFFFFFFFFFFFFFFFF29
:103BAC00FFFFFFFFFFFFFFFFFFFFFFFFFFFFFFFF19
:103BBC00FFFFFFFFFFFFFFFFFFFFFFFFFEFFFFFF0A
:103BCC00DEFFDFFFFFFFFBE6A641475AD4CDF4DD55
:103BDC0034EE34F671E510E58EDC4DD4CACB89BBDE
:103BEC0048BB69BB69BBAAC32CD46CD4ADD40EDD65
:103BFC002EDD6FE5D1EDF2EDF2F533F633F653EE43
:103C0C0094F6B5F6D7F6F9F64B7B000800000100E8
:103C1C0001002100200000004000E110C6410B63B0
:103C2C008D734C6B48522429610800000000210060
:103C3C0041100008E96A19F7D7F6D6F6D6FE95FEBC
:103C4C0074FE53FE32FE53FE53FE94FE13F654FEE6
:103C5C0054F655F655FE75FE76FE34F6F4DDD4D5E5
:103C6C00886A4010000086313CE7DFF7DFFFFEFF7B
:103C7C00FFFFFFFFFFFFFFFFFFFFFFFFFFFFFFFF48
:103C8C00FFFFFFFFFFFFFFFFFFFFFFFFFFFFFFFF38
:103C9C00FFFFFFFFFFFFFFFFFFFFFFFFFFFFFFFF28
:103CAC00FFFFFFFFFFFFFFFFFFFFFFFFFFFFFFFF18
:103CBC00FFFFFFFFFFFFFFFFFFFFFFFFFFFFFEFF09
:103CCC00BEF7BFFFFFFFBADE0329033132BD14DE9E
:103CDC0034E655F6D2ED51E510DD8ED46CD40BCC18
:103CEC00AAC3AAC3AAC3CBCB2CCC6CD4CED40EDD26
:103CFC006FDDD1E533F633F612F613F653F694FE78
:103D0C00B5FED6F6D6EE19F753BD6118010823108F
:103D1C000200220041004000A008E852D2A458D66C
:103D2C00FAE6B9DEB5BD6D734429000000006210DF
:103D3C0082100008B0A45AFFF7F6F7F6B5FEB5FEF0
:103D4C0033F633F633F633F6F2ED95FEB6FE34F673
:103D5C0076F635F655F676F6F4E5F4EDF5DDED9BF5
:103D6C0040180008000065295DE7FFFFDFFFDFFF5B
:103D7C00DEFFFFFFFFFFFFFFFFFFFFFFFFFFFFFF68
:103D8C00FFFFFFFFFFFFFFFFFFFFFFFFFFFFFFFF37
:103D9C00FFFFFFFFFFFFFFFFFFFFFFFFFFFFFFFF27
:103DAC00FFFFFFFFFFFFFFFFFFFFFFFFFFFFFFFF17
:103DBC00FFFFFFFFFFFFFFFFFFFFFFFFFEFFDEFF29
:103DCC00DEFFDFFFFFFFF8C5C3204010ED8BF4D5FD
:103DDC0055EE55F613EEB2ED71EDEFDCCEDC6DD495
:103DEC002CD42CD40CCC2DD46ED4CEDC50E590E558
:103DFC00F1E532EE53F633F612F6F2F533F694FEA5
:103E0C00B5FEB5F6B5EE18F7D8E627520008231024
:103E1C00020801000000600063198E7CFAE6BDFF09
:103E2C00BDFFBDFF9DF795B5694A410800004108EB
:103E3C0000004431B8E639FFF7F617FF95FE53F64C
:103E4C0033F653F6D1E553F6D1E5EAA3B3DDB7FE6D
:103E5C0097F697F656EE15E635EE72D5CD93E13022
:103E6C000008200800000421DBD6FFFFDFF7DFFF8E
:103E7C00DEFFFFFFFFFFFFFFFFFFFFFFFFFFFFFF67
:103E8C00FFFFFFFFFFFFFFFFFFFFFFFFFFFFFFFF36
:103E9C00FFFFFFFFFFFFFFFFFFFFFFFFFFFFFFFF26
:103EAC00FFFFFFFFFFFFFFFFFFFFFFFFFFFFFFFF16
:103EBC00FFFFFFFFFFFFFFFFFFFFFFFFFEFFFFFF07
:103ECC00DEFFDFFFFFFFD39C82100008E651F1B448
:103EDC00F4DD14E654F634FEB2ED91ED2FE5EEDC94
:103EEC00CFDCAEE48EDCAFDC10E571ED91E5D1E515
:103EFC0012EE33EE12EE12F6F2F5F2F5F2ED33F6B7
:103F0C0074F6B5F6B5EEF7F639F713B5822000085E
:103F1C00431842100000200043190D7498DE7CF702
:103F2C007CF7BDFFDDFFB6BD6952610820000000C3
:103F3C0081184F947AFFF8F6F7FEF6FE73FED1ED7A
:103F4C0032F612F68FDD32F612EE246A456A11C58E
:103F5C0094D5B5D594CD53C552C5097B812040105D
:103F6C00C22040084108041959C6FFFFDFFFDFFFDC
:103F7C00FEFFFFFFFFFFFFFFFFFFFFFFFFFFFFFF46
:103F8C00FFFFFFFFFFFFFFFFFFFFFFFFFFFFFFFF35
:103F9C00FFFFFFFFFFFFFFFFFFFFFFFFFFFFFFFF25
:103FAC00FFFFFFFFFFFFFFFFFFFFFFFFFFFFFFFF15
:103FBC00FFFFFFFFFFFFFFFFFFFFFFFFFEFFFFFF06
:103FCC00DEF7BEF7FFFFCF7B4108000840188C835B
:103FDC0052C5B3DD55F655FE91E5F3F5B1ED70E53F
:103FEC0050ED51ED31ED52F572F592EDF3ED13EE1E
:103FFC0073F674F632EEF1EDD1ED91EDD2EDF2F502
:10400C0053F6B4F6D5F6F6F6F7F65AFF4F9C0010B9
:10401C000008411061100000A1088842F2A4B9DE2A
:10402C003BEFFAE638CECE7B44292008000020086E
:10403C00A9623AF7D7F6B6F616FF74F6F1F5D1ED9C
:10404C00F1F5AFE5F0EDF1E533EE698B4020023987
:10405C0068624C7B4C7B8862023120186010EB62EA
:10406C00853900000000041938C6FFFFDFFFDFFFB1
:10407C00FFFFFFFFFFFFFFFFFFFFFFFFFFFFFFFF44
:10408C00FFFFFFFFFFFFFFFFFFFFFFFFFFFFFFFF34
:10409C00FFFFFFFFFFFFFFFFFFFFFFFFFFFFFFFF24
:1040AC00FFFFFFFFFFFFFFFFFFFFFFFFFFFFFFFF14
:1040BC00FFFFFFFFFFFFFFFFFFFFFFFFFEFFDDF72F
:1040CC00FEFFFFFFBEF7EB5A000040100008C54989
:1040DC006FAC93D5D3E534F613F6F3F5D2EDB1ED21
:1040EC00B2ED92ED92F5B3F5D3F5F3F534F6B5FEEA
:1040FC0053F6D0E5F1ED90E5B0ED90ED70EDB1ED4E
:10410C00F1ED73F6B4F6F6FED6F638FF19FFCD9343
:10411C00E22800080008400840000319474A8C7345
:10412C00EE830E84EB626531811000000008C962D9
:10413C0077DE59FFB6F6D6FE94FED0E5D0F5AFED9E
:10414C00AFEDD0EDCFEDB0E5F2E58DB46028001009
:10415C004018A220821841102008000081182C6BF6
:10416C000421000000004108F7BDFFFFDFFFFFFF47
:10417C00FFFFDFFFDFFFFFFFFFFFFFFFFFFFFFFF83
:10418C00FFFFFFFFFFFFFFFFFFFFFFFFFFFFFFFF33
:10419C00FFFFFFFFFFFFFFFFFFFFFFFFFFFFFFFF23
:1041AC00FFFFFFFFFFFFFFFFFFFFFFFFFFFFFFFF13
:1041BC00FFFFFFFFFFFFFFFFFFFFFFFFFEFFDDF72E
:1041CC00FEF7FFFF9EF7AA520000400800080010FF
:1041DC004762F1BCD4DDF3ED34F675FE75FE54FE8A
:1041EC0014F614F6F4F5F4F515F655F675FE91DDA6
:1041FC00D1E5B0E5D0ED8FED8FED6FED4FE5B0ED86
:10420C0090E590E5F1EDB5FED5FEF7FE59FFD7F63A
:10421C006F9CE54960100000000000002008A11808
:10422C000221C11840100000000823316B7356DEC8
:10423C007AFFB6EED6FE53F6D0EDB0EDAFF58EEDBF
:10424C008EEDAFF5AFEDAFE512EE30CD21390010AC
:10425C0000080008000000002000610841088A5294
:10426C00C73941080000E83918BEFFFFDEFFFFFF29
:10427C00FFFFDFFFDFFFFFFFFFFFFFFFFFFFFFFF82
:10428C00FFFFFFFFFFFFFFFFFFFFFFFFFFFFFFFF32
:10429C00FFFFFFFFFFFFFFFFFFFFFFFFFFFFFFFF22
:1042AC00FFFFFFFFFFFFFFFFFFFFFFFFFFFFFFFF12
:1042BC00FFFFFFFFFFFFFFFFFFFFFFFFFEFFFEF70C
:1042CC00FEF7FFFF9DEF07420000410820080008A1
:1042DC00A128E97AD1BC93DDF4ED14F634EE55F651
:1042EC0035F676FE56FE56F697FE55F68EBCA99B15
:1042FC006FDD90E58FE58FED6EED2EE52EE56FED24
:10430C004FE54FE58FE5D1E532EEB5F654E679FF92
:10431C0039FFF4CD8C7BE6492431812060102008D4
:10432C0020080008A1206439A95A909CF9EEBBFF23
:10433C00F7F654EE74F6F1ED6FE58FED8FF56EF543
:10434C006EEDAEF5AEED8EE511EEF3E5A35100107A
:10435C0021102108210001004100A2100000C739E2
:10436C002C6320000000AA52BAD6FFFFDEFFDFFF4D
:10437C00FFFFFFFFFFFFFFFFFFFFFFFFFFFFFFFF41
:10438C00FFFFFFFFFFFFFFFFFFFFFFFFFFFFFFFF31
:10439C00FFFFFFFFFFFFFFFFFFFFFFFFFFFFFFFF21
:1043AC00FFFFFFFFFFFFFFFFFFFFFFFFFFFFFFFF11
:1043BC00FFFFFFFFFFFFFFFFFFFFFFFFFEFFFEFF03
:1043CC00DEF7FFFF9DEFA6310000410820086110C9
:1043DC0000086020C972D1BC93D572D5D4DD56EEDD
:1043EC0015E6F5DDF5E5F5DDB3D58FB48259C6825A
:1043FC00B1E590E52EDD4EE56EED2DE52DE54EE5B6
:10440C004EE58FED6FE52EDD6FDD12E6D6F6B6EEDE
:10441C0018F77AFF3AF777DE33BDAD8B4A732A7300
:10442C00E96A8C7B90A494BDD9E67BFF19F7B7EEB3
:10443C0033E653EE6FDD4EDD8EEDF0FD6EF58EF551
:10444C008EF5AEF5CEF58EE5F1ED33EE87720010FC
:10445C0020100100210001004100E3106208041942
:10446C006E6B61080000652979CEFFFFDEFFDFFF70
:10447C00FFFFFFFFFFFFFFFFFFFFFFFFFFFFFFFF40
:10448C00FFFFFFFFFFFFFFFFFFFFFFFFFFFFFFFF30
:10449C00FFFFFFFFFFFFFFFFFFFFFFFFFFFFFFFF20
:1044AC00FFFFFFFFFFFFFFFFFFFFFFFFFFFFFFFF10
:1044BC00FFFFFFFFFFFFFFFFFFFFFFFFFEFFFEFF02
:1044CC00DEF7FFFF9DEF6529200041000000611021
:1044DC00401000084018A549CD93B0B452CDB4D5C6
:1044EC0073CDB4CDB4CDD1AC2A7BE0304028CAA377
:1044FC0013F64FE52EE50DE54DE56DED4EE56EE55C
:10450C004EE56EED8FED6EE5B0E590DDB2D5F3CDF9
:10451C00D8EEB7E619F75AFF3AFFF9FE18F718F775
:10452C00F8F6F9F61AF75BFF3AFF97E635DEF3D5A6
:10453C00B1D590D590E5D0ED8EED6EED4EED8FF5BD
:10454C008EF58DF5CEF58EEDD0ED13EE8B934020E0
:10455C0000080000010000002000C208E4186200FE
:10456C00CB52662900006108F39CFFFFDEFFDFFFE2
:10457C00FFFFFFFFFFFFFFFFFFFFFFFFFFFFFFFF3F
:10458C00FFFFFFFFFFFFFFFFFFFFFFFFFFFFFFFF2F
:10459C00FFFFFFFFFFFFFFFFFFFFFFFFFFFFFFFF1F
:1045AC00FFFFFFFFFFFFFFFFFFFFFFFFFFFFFFFF0F
:1045BC00FFFFFFFFFFFFFFFFFFFFFFFFFFFFDEFF20
:1045CC00DEFFFFFF5DE7452120006100620041082E
:1045DC000000000000080010E228C549686A4B83FF
:1045EC006C832B73264A0229801800108030CFC4AC
:1045FC00D2ED0EDD6FED2DE56DE58DED6EE52DE566
:10460C002DE56EED6EED6EE5F2F5D2E54983876230
:10461C00909C53B515D615DE75EE75F617FFD7F6CB
:10462C0018FFF8F697EED8F6F4D5F4D5D3CD91CD96
:10463C0013E690D5B0E58FE5AFED8EED6FEDAFF5F0
:10464C008EF56DEDCEF5AEEDCFED12EE2DAC602806
:10465C00001021104108410020006100A31042000D
:10466C002D63494200006110508CFFFFDEFFFEFFFE
:10467C00FFFFFFFFFFFFFFFFFFFFFFFFFFFFFFFF3E
:10468C00FFFFFFFFFFFFFFFFFFFFFFFFFFFFFFFF2E
:10469C00FFFFFFFFFFFFFFFFFFFFFFFFFFFFFFFF1E
:1046AC00FFFFFFFFFFFFFFFFFFFFFFFFFFFFFFFF0E
:1046BC00FFFFFFFFFFFFFFFFFFFFFFFFDFFFDFFF3E
:1046CC00DFFFFFFF1CDF25192000620041006200A4
:1046DC0021000000410800000000401060288128E3
:1046EC00C220A1186008200000000008224131D52A
:1046FC0071E50EE58FED4DE58DE56DE56EE52CE58F
:10470C004DED8DF54DED2DE5F1F591D56241201076
:10471C0064390A6BF4CDB2D591D590DD91D550CDDD
:10472C0051CDB3D510BD2DA4097BD0B4F7F691CDE6
:10473C00B1D5D1E5D0ED8FE5D0F56EED70ED90F5FE
:10474C008FF56DEDCEF5AEEDAFED12F6EFC4C130D9
:10475C000008211001002000200061006200A3105D
:10476C00CF73083A2000A218D29CFFFFDEFFDEFFB9
:10477C00DFFFFFFFFFFFFFFFFFFFFFFFFFFFFFFF5D
:10478C00FFFFFFFFFFFFFFFFFFFFFFFFFFFFFFFF2D
:10479C00FFFFFFFFFFFFFFFFFFFFFFFFFFFFFFFF1D
:1047AC00FFFFFFFFFFFFFFFFFFFFFFFFFFFFFFFF0D
:1047BC00FFFFFFFFFFFFFFFFFFFFFFFFDFFFDFFF3D
:1047CC00DFFFFFFFDBD624190000620083006200CC
:1047DC008308210000004108400820080010001048
:1047EC00000800000000600040082010E55972DD50
:1047FC0051E52FE54EE52DE58EED6DE56EE56DE5AC
:10480C008EED6DED2CED6EEDD1ED4DB48028A1202B
:10481C000000601015D675E66FD58FDD4FCDB1D584
:10482C0050CDF3E52DAC21410018E87ABAFF74EEB7
:10483C006FCD32EEB0E58FE5AFEDAFF590F590F5BD
:10484C00AFF58EEDCEF5AEEDAFED12F672D5234190
:10485C000010621821082000200040008300E410A2
:10486C000C5B66290000A110F3A4DEFFDEFFDEFF67
:10487C00DFFFFFFFFFFFDFFFDFFFFFFFFFFFFFFF9C
:10488C00FFFFFFFFFFFFFFFFFFFFFFFFFFFFFFFF2C
:10489C00FFFFFFFFFFFFFFFFFFFFFFFFFFFFFFFF1C
:1048AC00FFFFFFFFFFFFFFFFFFFFFFFFFFFFFFFF0C
:1048BC00FFFFFFFFFFFFFFFFFFFFFFFFFFFFFFFFFC
:1048CC00BEF7FFFFFBDE252100008308620083009A
:1048DC008300630063000100210021002000200000
:1048EC00000820082108010000000010A77290E5C4
:1048FC00B0ED4EE58FE54EE54DE54DED6EED6EED13
:10490C006EF54DED8EF58FED13EE6A8B2010611068
:10491C0082100000B1A47AFF70CDB0DDD0F5D0F5D7
:10492C00B0ED95FE0973200820000321B9DE7BFF52
:10493C0092C590DDAFEDAEEDAEEDD0ED8FEDB0F5F7
:10494C00AFF5ADF5CDF5CFF5D0EDD1E512E6E451EF
:10495C000010421000000000000001000100C41013
:10496C00E418C3104108821054ADFFFFDEFFDFFFD7
:10497C00FFFFFFFFFFFFFFFFFFFFFFFFFFFFFFFF3B
:10498C00FFFFFFFFFFFFFFFFFFFFFFFFFFFFFFFF2B
:10499C00FFFFFFFFFFFFFFFFFFFFFFFFFFFFFFFF1B
:1049AC00FFFFFFFFFFFFFFFFFFFFFFFFFFFFFFFF0B
:1049BC00FFFFFFFFFFFFFFFFFFFFFFFFFFFFFFFFFB
:1049CC00BFFFFFFFFBDE452100008208A308620049
:1049DC006300630042000100210021000000000080
:1049EC000000000001000100000000106A93D1EDEE
:1049FC006FE54EDD8FED6EE54EED4DED4EED6EED52
:104A0C006EF56EF58EF58FED13EE298320102008D0
:104A1C0020002000AD837AFFB1D590DDF1F5B0F523
:104A2C00B0ED54F6A86A40080000C218B5BDBCFF32
:104A3C0014DEB0DDCFF5CFF5CFF5CFE5B0F5D0F581
:104A4C00CFF5ADF5CEF5CFF5D0EDF1ED32E66662F2
:104A5C000010221000000000200001004200420063
:104A6C00010041004108A21075ADFFFFDEFFDFFF22
:104A7C00FFFFFFFFFFFFFFFFFFFFFFFFFFFFFFFF3A
:104A8C00FFFFFFFFFFFFFFFFFFFFFFFFFFFFFFFF2A
:104A9C00FFFFFFFFFFFFFFFFFFFFFFFFFFFFFFFF1A
:104AAC00FFFFFFFFFFFFFFFFFFFFFFFFFFFFFFFF0A
:104ABC00FFFFFFFFFFFFFFFFFFFFFFFFFFFFDFFF1A
:104ACC00DFFFFFFF3CE765290000A310A308A30844
:104ADC00C408A30801000100A31061080000000035
:104AEC000000000000000100000040184DACD2EDA9
:104AFC006FE54EE58FED8FED6EED4DED4EE56EED08
:104B0C008EF58EF56EED6FE5F3EDE87A4010000052
:104B1C0020002008A9627AFF33E690DDF1F58FEDD5
:104B2C0090ED54F64A7B0000400840087094DCFF7E
:104B3C0076E690D510F6EFF5EFF5D0E5D0F5D0FD93
:104B4C00CFF5CEF5CEF5CFF5D0EDF1ED53EE087BEC
:104B5C00201801080000200020000100420062081B
:104B6C00210000002000A210B6B5FFFFDEFFDFFF22
:104B7C00FFFFFFFFFFFFFFFFFFFFFFFFFFFFFFFF39
:104B8C00FFFFFFFFFFFFFFFFFFFFFFFFFFFFFFFF29
:104B9C00FFFFFFFFFFFFFFFFFFFFFFFFFFFFFFFF19
:104BAC00FFFFFFFFFFFFFFFFFFFFFFFFFFFFFFFF09
:104BBC00FFFFFFFFFFFFFFFFFFFFFFFFFFFFDFFF19
:104BCC00DFFFFFFF5DEF8631200004190519E410AB
:104BDC00C408C41021000000042162102000200031
:104BEC00000000000000210000008020AFBCD1EDCF
:104BFC008FED8FED8FED6EE58EED6EED4EE56EED7E
:104C0C008EF58EF58EED90EDF3EDE87A2010200800
:104C1C0020000000885A59FF95F670D5F1F5AFEDDC
:104C2C00D1F574FE6A83000840086110CD83DDFF66
:104C3C00B7EE70D511F6EFF5F0F5F1EDD0F5F0FD1E
:104C4C00CFF5CEF5EEFDCFF5D0EDF1ED73EEAB8BF0
:104C5C004018000800002000200001004200A310B2
:104C6C00831020000000821017C6FFFFDEFFDFFF5D
:104C7C00FFFFFFFFFFFFFFFFFFFFFFFFFFFFFFFF38
:104C8C00FFFFFFFFFFFFFFFFFFFFFFFFFFFFFFFF28
:104C9C00FFFFFFFFFFFFFFFFFFFFFFFFFFFFFFFF18
:104CAC00FFFFFFFFFFFFFFFFFFFFFFFFFFFFFFFF08
:104CBC00FFFFFFFFFFFFFFFFFFFFFFFFFFFFDFFF18
:104CCC00DFFFFFFF9EF7C73900002521C731E41035
:104CDC000519C41041002100821041080000000099
:104CEC0000000000000021000000C12810C5D1ED1B
:104CFC006FED8FED6FED6EED6EF56EF56EED8EED7D
:104D0C006EF5AFF5AFF5D0ED13EEAB8B00082008C8
:104D1C0000000000A95A7AFFD6F64FCDF1EDD0ED88
:104D2C00D0F554F68A8B8018000020086C73BCFFF9
:104D3C0019F7B2DDF1F5F0F5F0F5F1EDD0F5F0FD88
:104D4C00CFF5CEF5EEFDCFF5D1EDF1ED74F62D9C52
:104D5C0041180008200820000000020062086208C8
:104D6C00420021002000A21038C6FFFFDEFFFFFF2B
:104D7C00FFFFFFFFFFFFFFFFFFFFFFFFFFFFFFFF37
:104D8C00FFFFFFFFFFFFFFFFFFFFFFFFFFFFFFFF27
:104D9C00FFFFFFFFFFFFFFFFFFFFFFFFFFFFFFFF17
:104DAC00FFFFFFFFFFFFFFFFFFFFFFFFFFFFFFFF07
:104DBC00FFFFFFFFFFFFFFFFFFFFFFFFFFFFDFFF17
:104DCC00DFFFFFFF9EF7284200002519A7312519A8
:104DDC006A42A310000061080000000800000000F7
:104DEC0000000000000000000000223992D5D1ED37
:104DFC004EE56FED6FED6FED8FF56EF58FED8FF579
:104E0C008FF5AFF5AFF5B0EDD1DD6EAC40102000F5
:104E1C0040082000885A9AFFF7F691CDD1ED11F693
:104E2C00B0ED53F6AFAC4010C218E6414B6B5BF7DC
:104E3C009BFF13DE90E510F611F6F1EDF0F5F0F5B1
:104E4C00CFF5CEF5EEFDF0F5D1F5F1ED94F68EAC97
:104E5C004018010840080000000002006308A3107D
:104E6C004208200000002421BAD6FFFFDEFFFFFF1E
:104E7C00FFFFFFFFDFFFFFFFFFFFFFFFFFFFFFFF56
:104E8C00FFFFFFFFFFFFFFFFFFFFFFFFFFFFFFFF26
:104E9C00FFFFFFFFFFFFFFFFFFFFFFFFFFFFFFFF16
:104EAC00FFFFFFFFFFFFFFFFFFFFFFFFFFFFFFFF06
:104EBC00FFFFFFFFFFFFFFFFFFFFFFFFFFFFFFFFF6
:104ECC00DFFFFFFFBEF7CB520000E418252146217F
:104EDC002D5BA310210061082008200800000000B1
:104EEC00000000000000010000008449B2DDD1F593
:104EFC004EE56EED8FED8FED8FF58EF5AFF5AFF5D1
:104F0C00AFF5AFF5D0F590E591DD92CD02294008D3
:104F1C004842A5310A639BFF38FFD2D5B1E532FE7A
:104F2C00F1F533F692CD8018E6410E8470945BF760
:104F3C00BCFF75EE6FDD31FE31FEF1EDF1F511F6D2
:104F4C00F0F5CEF5EFFDF0FDF1F5F1ED94F6F0B4E2
:104F5C006120000820080000200002006208E4180C
:104F6C0083082000000085313CE7FFFFDEFFFFFFD8
:104F7C00FFFFFFFFDFFFFFFFFFFFFFFFFFFFFFFF55
:104F8C00FFFFFFFFFFFFFFFFFFFFFFFFFFFFFFFF25
:104F9C00FFFFFFFFFFFFFFFFFFFFFFFFFFFFFFFF15
:104FAC00FFFFFFFFFFFFFFFFFFFFFFFFFFFFFFFF05
:104FBC00FFFFFFFFFFFFFFFFFFFFFFFFDFFFFFFF15
:104FCC00DFFFFFFFDFFF4D6B2000C310C310041980
:104FDC006A4AC310C31820002008200820000000D3
:104FEC0000002008000020000008E551B2DDF1F5BA
:104FFC006FED8FED8FED8FF58FF5AFFD8FED8FEDA5
:10500C00D0F5AFF5F0F5B0E5D2DDB7EE8439600838
:10501C00B2946C6B0E849BFF79FFB2CDF2E511F666
:10502C0011F612EEF3DD88624010E64116C6BDF7AC
:10503C00BCFFD7F64FD531F631F6F1ED11F611F67E
:10504C00F0F5EFF50FFE11FEF1F511EE94F630BD13
:10505C008120000800000000210002006208A3105B
:10506C00210021000000C6313CE7FFFFDEFFFFFFFF
:10507C00FFFFDFFFDFFFFFFFFFFFFFFFFFFFFFFF74
:10508C00FFFFFFFFFFFFFFFFFFFFFFFFFFFFFFFF24
:10509C00FFFFFFFFFFFFFFFFFFFFFFFFFFFFFFFF14
:1050AC00FFFFFFFFFFFFFFFFFFFFFFFFFFFFFFFF04
:1050BC00FFFFFFFFFFFFFFFFFFFFFFFFFFFFDFFF14
:1050CC00FFFFFFFFBEF7108441088208A3102519CB
:1050DC00E8392521C310200020082008000000001A
:1050EC0000000000000021080000265A13EEB0ED6D
:1050FC008FED8FED8FED8FED8FF58FF5B0EDAFED73
:10510C00D0F5AFEDF0F5B0E570D539FFCD830000EB
:10511C00E739484257CEDCFF7AFF14D6B0DD32F6C1
:10512C0032F6D1E533E693C5E5416B73BDFFDEFF87
:10513C00DDFFD7EEB1DD32F632FEF2ED11F611F6EF
:10514C00F0F50FF610FE11FE12F612EE94F651C5A4
:10515C00A120000800000000000003008308620882
:10516C0001004100000048425DEFDFFFDFFFDFFF81
:10517C00FFFFFFFFFFFFFFFFFFFFFFFFFFFFFFFF33
:10518C00FFFFFFFFFFFFFFFFFFFFFFFFFFFFFFFF23
:10519C00FFFFFFFFFFFFFFFFFFFFFFFFFFFFFFFF13
:1051AC00FFFFFFFFFFFFFFFFFFFFFFFFFFFFFFFF03
:1051BC00FFFFFFFFFFFFFFFFFFFFFFFFFFFFDFFF13
:1051CC00FFFFFFFFFFFFF39C62086208C310C310D0
:1051DC004942862961080000000000080000000018
:1051EC0000000000000020000000676213EEB0ED2C
:1051FC008FEDAFF5B0EDB0F5B0F58FF5B0EDD0F5B6
:10520C00D0F5F0F5F1F5F1ED50CD18FFB8E66431BD
:10521C0020002C633BE7FDFF9BFF55DEB1DD32EE3A
:10522C0032F612EED2DD39F736CE1AE79CF79DF73F
:10523C009CF739F7D2E5F1ED12F633F632F612F6A9
:10524C0011F610FE10FE11FE12F612EE94F671C558
:10525C00A12000080000000001002300A410A310EE
:10526C00010021000000CA5A7DEFFFFFDFFFDFFFC6
:10527C00FFFFFFFFFFFFFFFFFFFFFFFFFFFFFFFF32
:10528C00FFFFFFFFFFFFFFFFFFFFFFFFFFFFFFFF22
:10529C00FFFFFFFFFFFFFFFFFFFFFFFFFFFFFFFF12
:1052AC00FFFFFFFFFFFFFFFFFFFFFFFFFFFFFFFF02
:1052BC00FFFFFFFFFFFFFFFFFFFFFFFFFFFFDFFF12
:1052CC00FFFFDEFFFFFFF7BDC3104100820883081C
:1052DC008A4AC731210020000000000000000000B5
:1052EC0000000000000000000008A86A13EEB0EDFA
:1052FC00AFF5D0F5D0F5D1F5D0F5B0FDD0F5D1F5B1
:10530C00F0F511F612F632EE70CD18F7BCFF53AD76
:10531C008D7379CEFEFFDDFFBBFF76DED2DD73F63B
:10532C0032F612EED2DD39F79BFFFDFF9CF77CEFD6
:10533C009CF79BFFF3E5D1ED12F653F652F632F6DD
:10534C0031F631FE31FE12FE13F612EEB4F692CDAA
:10535C00C22800000000200001002400A410C4108A
:10536C00010020004000AE739DF7FFFFDEFFDFFF62
:10537C00FFFFFFFFFFFFFFFFFFFFFFFFFFFFFFFF31
:10538C00FFFFFFFFFFFFFFFFFFFFFFFFFFFFFFFF21
:10539C00FFFFFFFFFFFFFFFFFFFFFFFFFFFFFFFF11
:1053AC00FFFFFFFFFFFFFFFFFFFFFFFFFFFFFFFF01
:1053BC00FFFFFFFFFFFFFFFFFFFFFFFFFFFFDFFF11
:1053CC00FFFFBEF7FFFF9AD60421210041006208BF
:1053DC00AB4A494200002000200000000000000001
:1053EC0000000000000000000008E97213EED0ED90
:1053FC00AFF5F0F5F1F5D1F5D1F5D0F5F1F5D0F536
:10540C0011F6F1F552FE12EE91D518F7BCFFFEFF26
:10541C009DF7FFFFDEFFBDFFDCFF97DED2D553F615
:10542C0052FE12EEF2DDB6EE7BFF5AEF9CF7BDF7A3
:10543C00DDF7BCFFF2DDD1E552F633F652F652F64B
:10544C0052F651FE51FE32FE33F633EEB4F6B2CDC7
:10545C00C22800000000200021004408A410A31062
:10546C00210021006108B294DEFFDFFFDFFFDFFFC8
:10547C00FFFFFFFFFFFFFFFFFFFFFFFFFFFFFFFF30
:10548C00FFFFFFFFFFFFFFFFFFFFFFFFFFFFFFFF20
:10549C00FFFFFFFFFFFFFFFFFFFFFFFFFFFFFFFF10
:1054AC00FFFFFFFFFFFFFFFFFFFFFFFFFFFFFFFF00
:1054BC00FFFFFFFFFFFFFFFFFFFFFFFFFFFFDFFF10
:1054CC00FFFFBEF7FFFFFBDE86310000410042000C
:1054DC00293A8B4A410000004108000021000000DD
:1054EC0000000000000000002008097334EED1ED2C
:1054FC00D0F5F0F5F1F5D1EDD1F5D0F511F6F1F5DA
:10550C0032FEF1ED52F6F2E591D5F8F6BCFFBDFF97
:10551C00FFFFBEF7DEFFBDFFBCFFD8E6B2D553EEF2
:10552C0093FE52F691D5D7EEFCFF9CFFDDF7FEF70C
:10553C00DEF7BCFF13DEB1E553FE33F652F652F63E
:10554C0052F652FE52FE33FE33F633F6D5F692C5C2
:10555C00C12000000000200042006508C410620851
:10556C0021002100610875ADFFFFBEF7DFFFFFFFD3
:10557C00FFFFFFFFFFFFFFFFFFFFFFFFFFFFFFFF2F
:10558C00FFFFFFFFFFFFFFFFFFFFFFFFFFFFFFFF1F
:10559C00FFFFFFFFFFFFFFFFFFFFFFFFFFFFFFFF0F
:1055AC00FFFFFFFFFFFFFFFFFFFFFFFFFFFFFFFFFF
:1055BC00FFFFFFFFFFFFFFFFFFFFFFFFFFFFFFFFEF
:1055CC00FFFFDFFFFFFF3CE7494A00006208620073
:1055DC00E410C831452141000000410821000000C1
:1055EC00000000000000000020080A7B54EED1ED02
:1055FC00D0F5F1F5F1F5D1EDD1F5D1F5F1F512F6D6
:10560C0011F612F632F653EE91D538FF9BFF9CF74C
:10561C00BDF7DEFFFEFFBDFFBDFFD9E692CD74F6F0
:10562C0053FE94FEB1D575E67AFFFDFFFEFFFEF743
:10563C00DEF7DDFF54E670DD53FE73F653F673F6BA
:10564C0053F652FE52FE53FE34F653F6D5F671C5A0
:10565C00A12000000000200063086508E418420047
:10566C0001000000C31838C6FFFFBEF7FFFFFFFFA5
:10567C00FFFFFFFFFFFFFFFFFFFFFFFFFFFFFFFF2E
:10568C00FFFFFFFFFFFFFFFFFFFFFFFFFFFFFFFF1E
:10569C00FFFFFFFFFFFFFFFFFFFFFFFFFFFFFFFF0E
:1056AC00FFFFFFFFFFFFFFFFFFFFFFFFFFFFFFFFFE
:1056BC00FFFFFFFFFFFFFFFFFFFFFFFFFFFFFFFFEE
:1056CC00FFFFFFFFFFFF9EF78E6B01004100830879
:1056DC0041000411662182080000610821000000CD
:1056EC0000000000000000002008097354F6F1EDE2
:1056FC00D0F5F1F5F1F5F1F5F1F5F1FD11F612F644
:10570C0011F632F653F674F6B1D538FFBCFFDDFF57
:10571C009DF7BEFFBDFFBDFFDDFF98DE72C574F6C1
:10572C0032F6B4FE53EE14DE19F7FDFFFEFFFEF762
:10573C00BEF7FDFF96EE4FD553F694FE73F673F657
:10574C0073FE72FE53FE54FE54F674F6F6FE30BD34
:10575C00811800000000200063086608C4102100B6
:10576C00010000008529FBDEFFFFBEF7FFFFFFFFF6
:10577C00FFFFFFFFFFFFFFFFFFFFFFFFFFFFFFFF2D
:10578C00FFFFFFFFFFFFFFFFFFFFFFFFFFFFFFFF1D
:10579C00FFFFFFFFFFFFFFFFFFFFFFFFFFFFFFFF0D
:1057AC00FFFFFFFFFFFFFFFFFFFFFFFFFFFFFFFFFD
:1057BC00FFFFFFFFFFFFFFFFFFFFFFFFFFFFFFFFED
:1057CC00DEFFDFFFDFFFDFFF718C420821004200AC
:1057DC00C4102519620000006100200001000000C7
:1057EC0000000000000000002008E97254EEF1ED0A
:1057FC00D0F511F612F6F2F512F612FE32F612F69A
:10580C0032FE11F693FE53EE91D5D7EEBCFF9CFF02
:10581C009DF7DEFFBEFFBDFFDDFFD9E6D3CD54EE15
:10582C0073FE73FE53EED3D5DBFF9BFFDDF7FEF764
:10583C00DEF7DCFFB6F64FD553F694FE94F694F6ED
:10584C0093FE73FE73FE54FE55FE74F6F6FE10B511
:10585C006018000800002000630865088308210018
:10586C000100000028427DEFDEFFBEF7DFFFFFFFE7
:10587C00FFFFFFFFFFFFFFFFFFFFFFFFFFFFFFFF2C
:10588C00FFFFFFFFFFFFFFFFFFFFFFFFFFFFFFFF1C
:10589C00FFFFFFFFFFFFFFFFFFFFFFFFFFFFFFFF0C
:1058AC00FFFFFFFFFFFFFFFFFFFFFFFFFFFFFFFFFC
:1058BC00FFFFFFFFFFFFFFFFFFFFFFFFFFFFFFFFEC
:1058CC00FEFFDEFFDEFFFFFFF7BD83100100420885
:1058DC00C518630822004100000000000000000011
:1058EC0000000000000000000008C97255EE13EE25
:1058FC00F1EDD1ED31F632F611EE53F6D1FD12F693
:10590C0052F672E6B3EE93E690D5B6FE7BFF7CFFC3
:10591C00DFFFFFF7FFF7DDFFDCFFD7EE6FDD94F65F
:10592C00F6F695EE74EEB2DDF8FEDCFFBDEFDEE7C9
:10593C00FFF79BF776EE30D513F694FE95F695F6B9
:10594C0094F6B4FE73F674FE74F675EE18FFD1ACD3
:10595C0060100000410042006200C40841082000B1
:10596C00000000006D6B9EF7BEF7DFFFDFFFDFFF6F
:10597C00DFFFFFFFFFFFBEF7DFFFFFFFBEF7FFFFFD
:10598C00FFFFDFFFDFFFDFFFDFFFFFFFFFFFFFFF9B
:10599C00FFFFFFFFFFFFFFFFFFFFFFFFFFFFFFFF0B
:1059AC00FFFFFFFFFFFFFFFFFFFFFFFFFFFFFFFFFB
:1059BC00FFFFFFFFFFFFFFFFFFFFFFFFFFFFFFFFEB
:1059CC00DEFFFFFFBEF7FEFFBAD62521220822001C
:1059DC0084108310420842002000200000000000C8
:1059EC0000000000000000000008886A55EE33F645
:1059FC0012F6F1F531F611F612EE52F612FE32FEF7
:105A0C0052F672EEB3EE73EE90D596F67BFF7DFFF9
:105A1C00BFFFDFF7DEF7DDFFDCFFB7E690DD74EEEE
:105A2C00B5EED6F695F691DDF8FEBCFFFDF7FEE778
:105A3C00FFF7BCFF55EEEFCC12EEB5FE95F695F6E2
:105A4C0094F6B4FE73FE94FE74F675F619FF6F9C13
:105A5C0060100000210042008300E5106108200066
:105A6C0000000000718CBEF7BEF7BEF7BEF7BEF7A4
:105A7C00BEF7BEF7DFFFDFFFDFFFDFFFDFFFFFFF5C
:105A8C00DFFFDFFFFFFFFFFFFFFFDFFFFFFFFFFF7A
:105A9C00FFFFFFFFFFFFFFFFFFFFFFFFFFFFFFFF0A
:105AAC00FFFFFFFFFFFFFFFFFFFFFFFFFFFFFFFFFA
:105ABC00FFFFFFFFFFFFFFFFFFFFFFFFFFFFFFFFEA
:105ACC00FFFFFFFFBEF7BEF79EF74A4A2100010019
