:020000040800F2
:100000000050002021020008270200082B020008EF
:100010009D020008A1020008E9020008000000009B
:100020000000000000000000000000003103000894
:10003000350300080000000039030008910A000899
:100040004D0300084D0300084D0300084D03000850
:100050004D0300084D0300084D0300084D03000840
:100060004D0300084D0300084D0300084D03000830
:100070004D0300084D0300084D0300084D03000820
:100080004D0300084D0300084D0300084D03000810
:100090004D0300084D0300084D0300084D03000800
:1000A0004D0300084D0300084D0300084D030008F0
:1000B0004D0300084D0300084D0300084D030008E0
:1000C0004D0300084D0300084D0300084D030008D0
:1000D0004D0300084D0300084D0300084D030008C0
:1000E0004D0300084D0300084D0300080000000008
:1000F0000000000000000000000000000000000000
:1001000000000000000000005FF808F100B583B0B7
:1001100000F0AAF9304B314A1360314A1360314B79
:10012000314A32498B4204D21168196004330432D7
:10013000F7E72A4B1A682E4B9A4200D0FEE7284B6D
:100140001A682C4B9A42F9D1234B2B4A13602B4A45
:1001500013602B4B02E000221A600433294A9342B9
:10016000F9D3254B1B6813B9244B1B6803B1FEE779
:1001700000F086F9694601A800F022F9224C234BD1
:10018000E41AA4100025AC4214DC214C214BE41AE3
:10019000A4100025AC4213DC0099019800F094FCF7
:1001A00005461D4C1D4BE41AA410002C0EDC2846FD
:1001B00000F0E2F8154B53F8253098470135E2E797
:1001C000144B53F8253098470135E3E7013C134BB6
:1001D00053F824309847E8E7BABADECA0000002096
:1001E0008400002000000020D4A80008880000201F
:1001F000785634123254769888000020300100205E
:1002000088000020340100207803000878030008EB
:1002100078030008780300087803000878030008D2
:1002200008B5FFF773FF00BEFEE71EF0040F0CBF1A
:10023000EFF30880EFF309807146414A10472DE93A
:10024000F04182B004468846124B5E6B9F6B9D6AFC
:100250001B6B13F0020F03D00E4BDB6A002B0CDB81
:100260000D4800F0B5F8CDF800803B4632462946EF
:10027000204600F009F900BEFEE74BF6AB6100F046
:100280007DF90028ECD0034B4FF00042DA6202B057
:10029000BDE8F08100ED00E06C14000800BEFEE750
:1002A0001EF0040F0CBFEFF30880EFF309807146D6
:1002B000244A10472DE9F04182B004468846084B95
:1002C0005E6B9F6B9D6A074800F082F8CDF8008056
:1002D0003B4632462946204600F0D6F800BEFEE7EF
:1002E00000ED00E07C1400081EF0040F0CBFEFF3DB
:1002F0000880EFF309807146134A10472DE9F04159
:1003000082B004468846084B5E6B9F6B9D6A074827
:1003100000F05EF8CDF800803B4632462946204684
:1003200000F0B2F800BEFEE700ED00E0881400081F
:1003300000BEFEE700BEFEE700BEFEE7704700001D
:100340003F020008B5020008FD02000800BEFEE7FB
:10035000D4A800080000002088000020D4A80008CD
:100360000000000000000000880000203401002090
:08037000000000000000000085
:10037800FEE7000008B503460C4A12685AB10B4A5A
:100388001068033323F003030344094A934206D851
:10039800064A136008BD054A06491160EFE700F0F8
:1003A800A3FB0C2303604FF0FF30F3E78C00002021
:1003B800004C00203401002001230360014B0B6036
:1003C800704700BF040000200FB400B583B004AB31
:1003D80053F8042B01938021064800F0B7FB00284E
:1003E80003DD0146034800F037F803B05DF804EB7D
:1003F80004B07047940000202DE9F04385B004460E
:100408000F4643560BB10E461EE0042528462146EA
:10041800ABBE0446384605B0BDE8F08314F9011BAD
:1004280004AA1A4402F8101C0133AB42F6D304AAFA
:100438001344002203F8102C4FF00408E946404604
:100448004946ABBE8046761B002EE3D03546102EBB
:1004580028BF10250023E8E708B5FFF7CDFF08BD42
:1004680008B500F0FDF8024A024B9A6008BD00BFCB
:100478000000000800ED00E008B500F019F908BD1B
:10048800F8B504460D4617461E462748FFF79CFF59
:1004980021682648FFF798FF61682548FFF794FF11
:1004A800A1682448FFF790FFE1682348FFF78CFF15
:1004B80021692248FFF788FF61692148FFF784FF17
:1004C800A1692048FFF780FFE1691F48FFF77CFF1B
:1004D8001E48FFF779FF29461D48FFF775FF1D4C99
:1004E800E16A1D48FFF770FF216B1C48FFF76CFF9E
:1004F800E16B1B48FFF768FF15F0800F0AD115F470
:10050800004F0CD11748FFF75FFF06991648FFF711
:100518005BFFF8BD39461548FFF756FFEFE7314650
:100528001348FFF751FFEDE7501300086013000868
:10053800701300088013000890130008A013000827
:10054800B0130008C0130008D0130008E013000817
:10055800EC13000800ED00E0FC1300080C14000880
:100568001C1400084C140008541400082C1400082B
:100578003C14000883691A888A4201D00020704719
:100588000268033A012A03D80233836101207047C5
:100598000020704782B00023019300932C4A13680F
:1005A80043F4803313602A4B1B6803F40033009331
:1005B800019B01330193009B1BB9019BB3F5A06F0D
:1005C800F1D1234B1B6813F4003F06D0012300939D
:1005D800009B012B04D002B0704700230093F7E77B
:1005E8001C4B1A6842F010021A601A6822F00302C3
:1005F8001A601A6842F002021A60A3F580535A681A
:100608005A605A685A605A6842F480625A605A6856
:1006180022F47C125A605A6842F4E8125A601A6846
:1006280042F080721A600A4B1B6813F0007FFAD000
:10063800074B5A6822F003025A605A6842F00202D5
:100648005A60034B5B6803F00C03082BF9D1C2E72F
:10065800001002400020024008B5FFF79BFF08BDCC
:1006680008B5104B1A6842F001021A6059680E4A20
:100678000A405A601A6822F0847222F480321A60A2
:100688001A6822F480221A605A6822F4FE025A601C
:100698004FF41F029A60FFF7DFFF044B4FF0006230
:1006A8009A6008BD001002400000FFF800ED00E06D
:1006B8001F4B5B6803F00C03042B15D0082B17D0D5
:1006C8001BB11C4B1C4A1A6002E01A4B1A4A1A60EA
:1006D800174B5B68C3F30313184AD35CDAB21549A6
:1006E8000B68D3400B607047124B134A1A60EFE750
:1006F8000F4A53685268C3F38343023312F4803FAE
:100708000AD00B4A526812F4003F0BD00C4A02FB85
:1007180003F3084A1360DBE7094A02FB03F3054ABF
:100728001360D5E7044A02FB03F3024A1360CFE7DC
:10073800001002401C00002000127A000C0000206B
:1007480000093D0000B583B000220FE02A4B1B884A
:100758009BB22A490968CB5CDBB2134103F0010361
:1007680002A9114401F8083C0132D2B2062AEDD997
:100778009DF800200021084600F000F99DF80120AE
:100788000121002000F0FAF89DF802200221002043
:1007980000F0F4F89DF803200321002000F0EEF8A3
:1007A8009DF804200421002000F0E8F89DF80520B9
:1007B8000521002000F0E2F89DF80620062100201F
:1007C80000F0DCF89DF807200721002000F0D6F89B
:1007D800094A138801339BB21380128892B2084BDE
:1007E8001B889BB29A4202D003B05DF804FB024B0F
:1007F80000221A80F8E700BF1A0100201401002027
:100808001801002008B502220021084600F03EF831
:1008180002220121002000F039F8022211460020AE
:1008280000F034F802220321002000F02FF8022201
:100838000421002000F02AF802220521002000F0FF
:1008480025F802220621002000F020F802220721C4
:10085800002000F01BF8034B00221A8000F0F8F883
:1008680008BD00BF1A010020024B1860024B198016
:10087800704700BF140100201801002008B5024984
:1008880000F0ECF808BD00BF4D07000810B40128BF
:1008980027D018B1022847D010BC7047072912D9B1
:1008A8000F29F9D8A1F10804E4B2314B5968A40022
:1008B8000F20A04021EA00015960586802FA04F1AB
:1008C80001435960E8E72A4B186889000F248C40D7
:1008D80020EA04001860186802FA01F1014319605F
:1008E800DAE7072912D90F29D6D8A1F10800C0B232
:1008F800204B596880000F24844021EA0401596084
:100908005C6802FA00F121435960C5E7194B186881
:1009180089000F248C4020EA04001860186802FA45
:1009280001F101431960B7E7072912D90F29B3D894
:10093800A1F10803DBB2104841689B000F249C40DA
:1009480021EA04014160446802FA03F1214341604D
:10095800A2E7094B186889000F248C4020EA04009C
:100968001860186802FA01F10143196094E700BFA2
:1009780000080140000C014000100140012813D07C
:1009880010B102281FD0704712B1012A06D0704753
:10099800012303FA01F1134B59617047012303FA4C
:1009A80001F1104B196170473AB1012AEFD10123C7
:1009B80003FA01F10C4B19617047012303FA01F1A5
:1009C800094B596170473AB1012AE0D1012303FA72
:1009D80001F1064B1961DAE7012303FA01F1034B30
:1009E8005961704700080140000C014000100140A7
:1009F800034B4FF480321A60043301221A607047A7
:100A0800001002401F291CD801280BD010B1022861
:100A180010D070470B480368012202FA01F119430C
:100A28000160704708480368012202FA01F119437E
:100A38000160704705480368012202FA01F1194371
:100A480001607047141002401C1002401810024048
:100A5800014B00221A60704710E000E0074B0122AA
:100A68001A70074B1960074B58601A6842F0020267
:100A78001A601A6842F001021A6070472C010020BF
:100A88001C01002010E000E008B50A4B1B785BB998
:100A9800094B1A6822F002021A601A6822F0010251
:100AA8001A6000225A609A60044B1B689847024BF0
:100AB8001B6808BD2C01002010E000E01C0100208C
:100AC80008B5FFF795FF02210846FFF79BFFFFF7E0
:100AD80099FE49F207410348FFF7C6FE7D20FFF75C
:100AE800CDFEFEE798140008014B1868704700BF58
:100AF8002000002030B5141E05469BB0184605DAC4
:100B08008B234FF0FF302B601BB030BD4FF40273C6
:100B1800ADF80C300CBF234604F1FF330293059364
:100B28004FF6FF7300910491ADF80E3002461E9BFC
:100B38006946284600F072F8431CBCBF8B232B6023
:100B4800002CE1D00022009B1A70DDE707B5009366
:100B580013460A46014603480068FFF7CBFF03B077
:100B68005DF804FB200000202DE9F0478E688246DE
:100B78009E420C469046994637D88A8912F4906F5F
:100B880031D00223256809696F1A656905EB4505A7
:100B980095FBF3F509F101033B449D4238BF1D461F
:100BA800530530D5294600F035FB064650B90C23CD
:100BB8004FF0FF30CAF80030A38943F04003A38107
:100BC800BDE8F0873A46216900F0B4FAA38923F416
:100BD800906343F08003A38126613E4426604E461D
:100BE8006561ED1BA5604E4500D94E46324641462B
:100BF800206800F0AAFAA36800209B1BA360236862
:100C08001E442660DCE72A4600F05EFB0646002804
:100C1800E2D12169504600F0B1FAC8E72DE9F04F5A
:100C28009DB003938B8980461D060C4616460FD54A
:100C38000B696BB9402100F0EDFA2060206128B9FA
:100C48000C23C8F800304FF0FF30C7E04023636141
:100C58000023099320238DF8293030234FF0010B0E
:100C68008DF82A3037463D4615F8013B0BB1252B48
:100C78003ED1B7EB060A0BD05346324621464046D2
:100C8800FFF772FF013000F0A480099B53440993D9
:100C98003B78002B00F09D8000234FF0FF32CDE918
:100CA8000523049307938DF853301A932F46052292
:100CB80017F8011B4F4800F02FFA049BD0B9D9064A
:100CC80044BF20228DF853201A0744BF2B228DF8E9
:100CD80053202A782A2A15D02F4600200A25079A59
:100CE800394611F8013B303B092B4DD9B8B10FE01B
:100CF8002F46B8E73F4A3D46801A0BFA00F01843E2
:100D08000490D3E7039A111D12680391002A01DBAE
:100D1800079204E0524243F00203079204933B789F
:100D28002E2B0CD17B782A2B33D1039B02371A1D2B
:100D38001B680392002BB8BF4FF0FF3305932E4D6D
:100D480003223978284600F0E7F938B14023401BE0
:100D580003FA00F0049B0137034304933978062211
:100D680026487E1C8DF8281000F0D6F9002838D0C7
:100D7800234B13BB039B073323F007030833039369
:100D8800099B4B4409936DE705FB023201200F468E
:100D9800A6E700230A25194601370593384610F8B7
:100DA800012B303A092A03D9002BC8D00591C6E790
:100DB80005FB012101230746F0E703AB0093224618
:100DC800104B04A94046AFF30080B0F1FF3F8146C5
:100DD800D6D1A3895B063FF536AF09981DB0BDE8AB
:100DE800F08F03AB00932246064B04A9404600F05F
:100DF80081F8EAE79FA80008A5A80008A9A80008A4
:100E080000000000710B00082DE9F04791461F46CD
:100E18008A680B6906469342B8BF1346C9F8003082
:100E280091F843200C46DDF8208012B10133C9F84F
:100E380000302368990642BFD9F800300233C9F858
:100E48000030256815F0060507D104F1190AE36892
:100E5800D9F800209B1AAB4229DC94F84330226869
:100E6800003318BF012392062ED404F143023946F9
:100E78003046C047013021D02368E56803F00603F7
:100E8800042B18BF0025D9F800204FF0000908BF2F
:100E9800AD1AA368226908BF25EAE5759342C4BF65
:100EA8009B1AED181A344D451AD1002008E0012389
:100EB800524639463046C047013003D14FF0FF3023
:100EC800BDE8F0870135C2E73020E11881F843001A
:100ED8005A1C94F845102244023382F84310C4E7A0
:100EE8000123224639463046C0470130E6D009F191
:100EF8000109D8E72DE9F04301F1430C0C46097EBE
:100F080085B06E291746064698460C9A00F0B380BD
:100F180022D8632936D00AD8002900F0B980582988
:100F280000F0838004F1420584F8421032E064291D
:100F380001D06929F6D120681368050603F1040178
:100F48002AD51B681160002B03DA2D225B4284F836
:100F580043206F480A2239E0732900F09D8008D8A1
:100F68006F2920D07029DDD1236843F02003236046
:100F780003E0752917D07829D4D17823654884F8F7
:100F8800453055E0136804F14205191D1B681160CE
:100F980084F8423001238CE01B6810F0400F116088
:100FA80018BF1BB2CFE713682568181D1060280604
:100FB80001D51B6802E06806FBD51B886F2914BFA2
:100FC8000A2208225248002184F843106568002D3F
:100FD800A560C0F29580216821F004012160002BF2
:100FE8003DD1002D40F08E806546082A0BD123683C
:100FF800DB0708D5236962689A42DEBF302305F80B
:10100800013C05F1FF35ACEB05032361CDF8008009
:101018003B4603AA21463046FFF7F6FE01304DD184
:101028004FF0FF3005B0BDE8F083394884F845102B
:10103800136821681D1D1B6815600A060BD5CA07B1
:1010480044BF41F0200121601BB9226822F0200230
:1010580022601022B7E74D0648BF9BB2EFE765460E
:10106800B3FBF2F102FB1133C35C05F8013D0B46FB
:101078000029F5D1B9E713682568181D6169106062
:1010880028061B6801D5196002E06A06FBD519809D
:10109800002365462361B9E71368191D11601D68AF
:1010A80062680021284600F037F808B1401B6060EC
:1010B80063682361002384F84330A7E723692A463D
:1010C80039463046C0470130AAD023689B0713D45D
:1010D800E068039B9842B8BF1846A3E701234A4635
:1010E80039463046C04701309AD00135E368039A43
:1010F8009B1AAB42F2DCEBE7002504F11909F5E78E
:10110800002BACD1037804F1420584F842306CE737
:10111800B0A80008C1A8000810B5C9B2024490429E
:10112800034601D1002303E01C7801308C42F6D13C
:10113800184610BD10B5431E0A44914200D110BD97
:1011480011F8014B03F8014FF7E7884210B501EB9E
:10115800020307D8421E99420AD011F8014B02F83F
:10116800014FF8E78342F5D98118D21AD34200D14A
:1011780010BD13F8014D01F8014DF7E738B50546E4
:10118800002943D051F8043C0C1F002BB8BFE418C9
:1011980000F0D0F81E4A1368104633B96360146033
:1011A8002846BDE8384000F0C6B8A3420BD92168EC
:1011B8006218934201BF1A685B6852182260636024
:1011C8000460EDE713465A680AB1A242FAD91968D1
:1011D8005818A0420BD1206801445818824219605F
:1011E800DED110685268014419605A60D8E702D904
:1011F8000C232B60D4E7206821188A4201BF1168AC
:1012080052680918216062605C60C9E738BD00BF98
:101218002001002070B5CD1C25F0030508350C2DE4
:1012280038BF0C25002D064601DBA94203D90C2343
:101238003360002070BD00F07DF8214A1468214613
:1012480091B9204C23681BB9304600F063F8206040
:101258002946304600F05EF8431C24D10C23304662
:10126800336000F068F8E4E70B685B1B18D40B2BBD
:101278000FD90B60CC18CD50304600F05CF804F163
:101288000B00231D20F00700C31AD3D05A42E250A6
:10129800D0E74B688C4216BF636013600C46EBE7DF
:1012A8000C464968CCE7C41C24F00304A04205D0CE
:1012B800211A304600F02EF80130CFD02560DBE748
:1012C8002001002024010020F8B5074614460E46E8
:1012D80021B9BDE8F8401146FFF79CBF22B9FFF7D6
:1012E8004DFF25462846F8BD00F026F8A0420FD24B
:1012F80021463846FFF78EFF05460028F2D03146D2
:101308002246FFF717FF31463846FFF737FFE9E770
:101318003546E7E738B50023054C054608462360FF
:10132800FFF728F8431C02D1236803B12B6038BDAE
:10133800280100207047704751F8043C181F002B03
:10134800BCBF0B58C0187047537461636B2066723A
:10135800616D653A0A000000205230203D202025AA
:101368003038580A00000000205231203D20202546
:101378003038580A00000000205232203D20202535
:101388003038580A00000000205233203D20202524
:101398003038580A0000000020523132203D202504
:1013A8003038580A00000000204C52203D202025EB
:1013B8003038580A00000000205043203D202025E6
:1013C8003038580A0000000020505352203D202594
:1013D8003038580A000000004653522F4641523A0E
:1013E8000A0000002043465352203D202025303873
:1013F800580A00002048465352203D202025303806
:10140800580A00002044465352203D2020253038F9
:10141800580A00002041465352203D2020253038EC
:10142800580A0000204D4D464152203D20253038B5
:10143800580A00002042464152203D2020253038DD
:10144800580A00004D6973630A000000204C522FAF
:101458004558435F52455455524E3D202530385823
:101468000A0000005B486172644661756C745D0A2D
:10147800000000005B4275734661756C745D0A007C
:101488005B55736167654661756C745D0A000000A1
:101498007673767A7E7F838183807E7A7B7D7D7B7F
:1014A8007A8082867E7D78767672716D706F6E6FC7
:1014B80071767A7B82868C88868785827E80828612
:1014C800878985878483808084807D787C828482F4
:1014D8007F80848486848586868A898B898A898C9C
:1014E8008E8E8B8B8A888883837E7D7A77767471DB
:1014F8007173797C818385898A8B8886817F8283D1
:1015080081817E817F7C7D7B7B75716B696A666575
:10151800666870757E838B908E8D8A8A8682807EBF
:101528007E7E7E7F7B7D787675706E6A6D71757B49
:101538007C81878C928E8F8D8D8B8889868A8A890B
:101548008F8F938E898682837A746F6E7375777A9C
:101558007D85878E919497908D8785838385858BEC
:10156800898B8B84847D7A7772706B6D6D6D6F6CEF
:1015780071767B8182878888868186858984807E4A
:101588007E817A7874757772706E6D706E727780FE
:101598008685898A8D8F88827B7B7D83827F828105
:1015A80087858686817F7A797371707072747A8183
:1015B8008285868B92908A7E7A7C7F7F7E7E828DE2
:1015C8008C8C8889887C766E70727070747B858844
:1015D80087898E8F887B777B7E8786858D97978F87
:1015E8008D89857D756A6A716E6C6B727C81838268
:1015F800868B847E787F85898C8B919A9A897E7672
:10160800756F685F5F6870747B868E979897939103
:1016180083766C717E8A8C898F999A8B7B73756DB2
:101628006A6970777C80848D93938C84817E7066E0
:101638006570808E8B898C8B83736A65696E6D7813
:1016480087989C9DA09A998A78716B655B58698088
:101658009CA79A9F9E988068616166626D7E8D9056
:101668008A908B877C6C6B6D74706F7F96B1B2A01B
:101678009D938C705A5E616966758A94908487819F
:101688007972686E7277706D8298B1A49498928915
:101698006B656A707670848D8F877C857E7A716DB4
:1016A800767477666A8198A6908F8D8977606B7259
:1016B8007E7C80989E9E918E9185847A7D7B756DC7
:1016C80060738A9F917F817E755B59697178788C88
:1016D8009991887F887E7C77757F7A7866748EA4E6
:1016E800A28C8F897E6158656A736E7B8E8D877D2B
:1016F80087878483808D89816E7C9BAFAF969B980A
:1017080090726473777C757E8F8B7F707475706E42
:101718006A797874626E92A9A6898E8D856B5D6BE5
:101728007377707B8D8A7D6F747C7B767887887FF2
:10173800697897AA957985827B5A5C7381877C8EB4
:101748009E9D90828B8E8F84849290806981A0B0B8
:101758008E75807F704F576B797670839089796F1B
:10176800777E7E747A8583716E8FB1AA837B7E7B48
:1017780059495C717F788193988875747B7E6E6E09
:10178800797C6E6486AFB896878F957A657591A1D6
:101798009898A6AD967A717777635F6A7060598179
:1017A800AAAF8C848984674C5D7688797F90978806
:1017B80070717C796D707D7C646C99B9A286848B1C
:1017C8007A51506484827A8A9B987B6F78806F669E
:1017D800708073749FC8C3A39A9C97715B67878D49
:1017E8007F818E917B6565746B63626F666B93BA5C
:1017F800BA99908C8660495371817B8394988874D8
:101808007683797671796C6F94B1AA8984807652DF
:1018180046526D7E818D9FA59283888D807D7D83C4
:10182800768DB6C5B39A98927A574C5C7172757F6B
:101838008D89796E7A79716B706C6A96B9B89B905C
:101848008F82624A4C6370737A8C968F838088800B
:101858007C71705F739EAD967F85836E5352677BF4
:10186800808998ABA6968D959386807F72729CB876
:10187800AE928887785E4F576B71747A888B7C70CC
:101888007477747170696694BBBAA1939685674F33
:1018980050666E757F90978C8283837875776D5EBE
:1018A80080A8AB92858E846B54516979828EA1B2DF
:1018B800ACA09E96887E786B5D78A2A6918488837A
:1018C8006A574F626B6C7A7F8D857D7D7A70696E01
:1018D800676185B1B5A79BA095765E51656A687406
:1018E800808F867D85827B70716C6A95B1A6938C9A
:1018F80092846A5B60797B808FA1AE9E9A9D958366
:10190800716D6168959F91807A816959505E736D98
:101918007B8494927C7E7A796C68665E83ADADA197
:1019280094969278696074777181848E82767877DC
:1019380072666A676F9FB9AFA1949781665F647F8B
:10194800818B9BA5A9929090867A6C695E76A1A2FC
:101958009582807E5D4941576B6D808EA09B838305
:101968007D75695D5F5F8DAFA49D8D97876B5C57B3
:10197800757A7D8A909E8C7E7B6D6759595771A9BF
:10198800AFABA2A09E837265738586969EA9A99522
:101998009084766A5D5C5B87A99D958684725C4FAE
:1019A8004A5F6B7488919E968A8D7E786A5F5B6EBB
:1019B800A5A89B908D8B705D525F747B8A99A1A5B9
:1019C8009089806F6B5C59517FADA49E949E937EE5
:1019D8006F6B7F878C99A0ABA3908C796E60575101
:1019E8005C99A99A928C8B70594D55666673818F54
:1019F800978687867C7A6D6F6689B6A99C8D8F7D60
:101A080060504D616C7482919D9C8D8D80746F685F
:101A180061689FB0A2978F927D6D636E828D97A249
:101A2800A9AE9F8E89766C5E574B5C91998E85879F
:101A3800846D5D515E6B757C8591958E7E81777224
:101A48006B66657CAFB1A1938E8A6D5E535C6B76D5
:101A58007D8892979081867C776F6C6573A7B2A218
:101A68009893937D6E636F8291999CA5A29B827BCC
:101A78006F655B554D4C779C93867E877F6A5E5871
:101A88007481888A9396978478776F6B62635B70AA
:101A9800A8B1A0938D927A665764767B7D828B95E8
:101AA8008D8087857F74736C6C93BFB2A0919C9472
:101AB8007768627F8B88898E958D74706D6F615B96
:101AC80059536195A9948B8293806B5A6A8884864E
:101AD8008794967C7070746B6065636892C0B09EE2
:101AE8008E998C6C5F57747D7A7E879186797B8618
:101AF80082777A7C7686BDCAB0A098A08066556445
:101B08007B73787B8B836B6C6E71655F65605C7AC9
:101B1800AFA69789939474685D8086817F838B775D
:101B2800707078726869676369A3BFA89789977F9F
:101B38006C5B68867F8280898679798189888388C9
:101B48007F7993C8C4A8908D8D6754466874727560
:101B580079897C6F6B74776E6C70656690B8A793A3
:101B68008691896D5C5C7C7E7E7D8A8F80737577BB
:101B7800726E70695C74A8C0A395909A81665E6D58
:101B8800847B7A81908F85838F918F888878738EF4
:101B9800B7B99A8D83825E48425B68656B75857FAD
:101BA80074788789847D7A6A708DB7AF93888988BD
:101BB8006356516E7A77798794837378837E7573C9
:101BC8007264709AC8B5A393968D6556567D8081C8
:101BD80081959D92868C95887F7976647296BDA44E
:101BE8008E7E8172473B3E656B757E91978E8188AC
:101BF80091847A756B5C6B92B9A191838B7D5D51F1
:101C0800587A797D7E8F92867B80837C74716C6430
:101C180077A1C2AEA3929C886E636A8C86888192F3
:101C280091897F84897B6E6C635E7093B3988971A8
:101C38007D6B554E567D7B8A849C998C82838876F1
:101C480069655E586C96B69F938089726056628209
:101C5800808B879C978B827F7F716969666D82B85C
:101C6800CCB6AA98A17C6B55627B767C7D958E85D7
:101C78007D807F66625F595E76AEAFA08B81866697
:101C88005D4C6875787F7E95918E8586806D6D63D5
:101C98005B6280B2AA9F8A8B8C6B6657798281803F
:101CA80080938D878187857779727582A5CDB9B341
:101CB800969C8A6A5E4D6D68716B72847D7B757BBC
:101CC800746B6D656D75A1BAAAA388947365534C3E
:101CD8006C687670859893908381766E6757657483
:101CE800AAB3AAA398A2796F5867736D7776939A67
:101CF80098928C92837B6A64758FC1BCB6A4A394B6
:101D08006F5E4559545459617D8085878A8C7F77E9
:101D18006366749BB3A6A28E987F6750516661690B
:101D2800667D8C8F92888B817A68576577A8A6A381
:101D3800989CA180755D737774737591949B978D4A
:101D480090848062677294B09EA38A9B8168504792
:101D58005F585A546C888D97909190897A5E6E7509
:101D6800A198948C8B957369495C60636364838FD5
:101D78009B9C92988F8A67596383A6909586A49DA9
:101D88008E756580787C6A7388919F91919394860B
:101D98005F636C95908A7F7F967E775259686C67EF
:101DA800586B79929D8E94939E796F7183998483F1
:101DB8006E847C806B59686F786A6B77869E989082
:101DC800878A876F78749292978C8D97979781837B
:101DD8007E857E7473768291867E78776C6C737B51
:101DE800838889848F8B917F7B7472746D6E6B7519
:101DF8008188878083827D787C7F7A7F7880878ED0
:101E0800887F817F807D7B787B8387858083827FC5
:101E1800827D847F837E86959CA1989A9A9B9287DF
:101E28007A726E716C69696C696C6F75797C85847E
:101E38008C8F988F8A898D8C81786F6D6F71707394
:101E4800767872767377777B7A7E83888A858488BA
:101E5800928F8D827F808684817D7E7877787B7D66
:101E68007E83808B95A0979492968F84796E6C6907
:101E78006D6967666866717B807C86898D939594A9
:101E88008A89858680756660646B6D6C6E747580F2
:101E9800898985838483898A8E888685878A8B84C5
:101EA8007E7C80807A77787B7E8A8D8E878E8D8BFC
:101EB800908E8D8B8785867F7C716863656461628F
:101EC800686B7680888D8F96979B979386837A7CAC
:101ED8007C767266616066696D6F747B828B8E8CAE
:101EE80091909393928D8585848888857D7A7A8070
:101EF800827E7E7F797F858A88848881878A8E889A
:101F0800858789857E766A696A6C6C6A6E6E717D72
:101F1800858C8A8E8D8F8F8C8980817C7E7A726B7E
:101F2800666A6F7073777B7F81868C8E8989848CD3
:101F38008B8F8E8487828A8D8C8885898B8B86830C
:101F48007E7777777D787175717E858B88828582BB
:101F58008885807672767D7A76797771727B8280D1
:101F68007E7E7B8687877C777A7C7F7B79707378A7
:101F7800818282858584888A8E888482848A8989F8
:101F88008085848D8D8C8C87868888817A75716C24
:101F980074787F7774717880868C8084838A888649
:101FA8007D73787B796E6A6A646B74838A8C90839C
:101FB8008C8B8B8276787A817C7970717A84807642
:101FC8007A7E768082909D989A8D9B9698887E805E
:101FD800848A8280757B85837466696C5C6364849B
:101FE8008C9089849B969D8282848C847A6E707C86
:101FF80084735F5A696754626EA6A0A489949F90FF
:1020080085656C7A85747072848A9572757C8C701B
:10201800626F90C4ADA78FAEA28668596F8378713E
:102028007B95999383676D675D364C58919B8E9627
:1020380097B39278666C7E766D7B8C9C90907B7B58
:102048006C66574A6272A8A4A89FA1A67F65515BD7
:10205800665C676B829092988E93888E78757B9871
:10206800C0B2AF9BA99B6F5E4C6264616B71858146
:10207800827B777270715E656796B0A0A096AA950C
:102088007A635C7671716B7886827E72746D6B6729
:102098005C6370A5B8AAA297A2826551586F676C55
:1020A8006E8693929492988F8B857A7787B4BFAF18
:1020B8009E979A72523D465C575C647D8A86837F00
:1020C800827B776E64677AABB2ABA5A8A9826C52A3
:1020D8005E6C5F656A7D82807B78796B66615D5E28
:1020E80079AFB7AEA3A4A2806754697874767F9657
:1020F8009A9B98999B8E8273666379A7A7978A871C
:1021080083624E40596B6C7580959A948F8E897D49
:102118007C70615F7AAEAA998A90906D594C677409
:102128006D6F788D8C837C7D7E6E6D6B666C8DBEDD
:10213800B9A7949A9378675D7B81818189A09E99DC
:1021480091928B79756456597BA6978778817756D3
:102158004848737C838694A89D958D92887973638B
:1021680055537BABA293878F836046467073737514
:10217800879C8F81808683757371686F9AC5B8AAAA
:102188009CA5926F5B5778757A778DA19A8D888A0E
:1021980074675F5A505C8BB3A3968D937E5F5257DA
:1021A8007B7B817D94A394867F85746960534E639D
:1021B8009AB7ABA3999F7C604A53726873718E92E9
:1021C800877D80867B79766E6B88BCD0BDB3ABAAE1
:1021D8008467506072696D718F8A7D7276776964E1
:1021E800635D5C7BB0BAAAA09E9B716254707B71E0
:1021F800767D968A7C7379766A68645E6080B6B20A
:10220800A599978B64564C70707374849789837DF5
:102218008D8A83827F7781A7D1C0B1A3A287624BC1
:1022280043685C676278867C797A837A79757067A7
:1022380076A5BFACA2959A7A614C5A7167736F8D77
:10224800857C7B818174716F635C76AEB4A3959253
:10225800936B614D6E75797E84978D8F8A988E8C7D
:102268008D89797C9EC5B79F898B74503E365956A7
:1022780067667B87858487918586837A6F7EADC004
:10228800A795898C6A523E586F6D76758C85857DC9
:102298008781787570626185B8B59A8F93916D5D05
:1022A8005177798083909B94928F988B87867C69ED
:1022B800729AB79C8A7B8568503E4C676674728DAB
:1022C800888A88928E8584816E6C8BB0A894848667
:1022D8008361564C756E74748185797B7D817575C3
:1022E8007368617AAAB9A09A949E7E6F647F888485
:1022F8008E8E9E8B8884897F75766A5C668FA48EA5
:10230800847886735C5362776E80829790898B8C11
:10231800867C7E7769688BAC9B8B7E87795E585903
:10232800766C7576868A797D7E8273787B6A698712
:10233800BBAE9A959B93756F6F8E85868B949782AB
:1023480085827E6E6E705C5878A697847D8A8764D5
:102358005D627F78767C8A9382848382747C7765D9
:10236800688DB49A8981897F5D555B786C6C747FC0
:10237800867881828176847C6B7AA2C0A096919EB1
:1023880088706D7B917F87889585787F776E626C82
:102398005A526F9EA08780848F6D616B8687798182
:1023A800888F78797F7B6D716E5E6A94B7998A841D
:1023B800907E58576581707278878276817D7A74AD
:1023C80082727191BEBA9691999B766C73908F8444
:1023D800898D8F7B807D73626A61526593A5847E47
:1023E8007B897261687E8D7E8D90957E79827D7104
:1023F8006871667199AF948482846E565E6B7A6D4B
:1024080075838B7D727B7E77777B707DA5C6AB9855
:10241800989E8C6A6C809481808E97857376726C96
:1024280064695D628CAC967F7D877D5F5F77938BF7
:102438008389948C7B7778736E6E63678DB7A68972
:1024480080847959526282807D8A948D7573737203
:102458006F746B6994C4BA9C979B9373626C8D8FED
:1024680087929E9B8176716B6662585675A7A89075
:1024780087898364565D7B828089999B8A81797775
:102488006E6F68607DA9AD918C90816252566A72B8
:102498006D788F9384807F7D726F676585B0B69FF6
:1024A8009AA3A4806A6D848D7D88969F8E7E7C75A4
:1024B8006D64564C699AA48881898D78636679879A
:1024C8007C7C838E857D7E787975705F6BA2B39BEB
:1024D800878A86715B5568746F747F897E767C7B8A
:1024E800777A7A6E739FC0A69291958A6A6F7F9267
:1024F8008C88959D957F7D7C776D695C5379A199D2
:102508007F788080655B678290848D939782757BE6
:10251800777775766874A2B4978682807357576305
:102528007979787F878473777A7A7B7D7B7695C48F
:10253800BCA4928E8D70656B838A84959C9C817BEC
:1025480081786E676C5E6996A694837F82725B5C05
:102558006E8980808E9B93777F837B706F6A637FA1
:10256800ADAF928581836454556E7C6F7981927B7F
:102578006F7E817E7784767097C6B59C959D976FA0
:10258800676A8A86808A91977B7E807B69666C5CA5
:102598005D87B89E857B897D5F5B678D7F82899328
:1025A8008F79888B8672777C615F83B59F887A85FF
:1025B8007957525B807677808A86737C8A89797BA3
:1025C80086736C90C6BC9E949D97726C6C8F847A4F
:1025D8007E84846C6A757B7069716A5C72B0B69827
:1025E8008E8C8E6761587A867E8187937C777B8A0A
:1025F800817279755E6190B4968279846E5D566653
:1026080086767D7F958D787B8B89817E8A766B88AF
:10261800BFC7A2979DA27A6C638183716E75796A30
:1026280059677A7575757C666994C2AC938E988D76
:10263800655F648581777F8884716C7C807A727825
:102648006C525E92B691808195835F5E718F7F7DBB
:1026580086928F7D808287868587716C84B8C89FB3
:10266800979AA0775A55687961636A7C7A6D707D0C
:1026780087827F826E6A84B5BD9C928F966B555314
:1026880070826C72798C826F72828373716F5C57FF
:1026980070ABB2948B8F9A6E6264818E7B828EA4AB
:1026A8009281829090808080716E83B5B69181818D
:1026B800855A4B4A627166707D9281737F8F907DD7
:1026C8007C7F776F80B6BA99847F876253506A7827
:1026D8006B787C8E76677584836E727A6D637AB553
:1026E800C29F90929E76646282947F898DA08B7D32
:1026F80088938A7376776A5E70ADB39181849164AA
:1027080054516F7D6C777E97857F8A979078797A18
:102718006D6074B0BD9C89879065504C6373626A24
:102728007890837B89988973717A706376B6D1B211
:102738009FA0B08269617A8F77798A9B8975808A30
:10274800745C5C6B5D5668B0C0A39391A3715850DC
:10275800717A6A778EA08C7F89927E67686E5E5CDC
:1027680070B5B39580808954494A6D726D7997A583
:102778009287929381696D786D7493D0BCAF97A35B
:1027880095645758786D6D768D8B7971807C6C5F08
:102798006C6A6675A0C4ADA2909C7C5D4F6173693C
:1027A8006A7D95918385978576686B636075A0A02F
:1027B80093878984645656706F6F718F9993949E2E
:1027C8009D91857A75737C9CB3ABA59CA284715846
:1027D8005F6255565F7875777E8D86807C747373DB
:1027E80085A5A4A9A2A4987C6C5F665757556A74FE
:1027F80079868C93847F7061656E888D9093979BA2
:102808008E8172776A67666E82829398A49E989387
:102818007F7C798D8C918F93998B8A7471685D5FB9
:10282800565F67717B858E8D9588847D878F8A8FAB
:102838008D9D9790867B7C6C695E5C6362726D7718
:102848007B827E75717689848A87989D968F888E1B
:102858008A827A758281837F85938E9283807F872F
:1028680083837F858B8081757879706B676B716ED8
:10287800757684898C8585898C978F938E948D85C0
:10288800837B7B716A645E615A63676B7677827E4D
:10289800818494949292949F93978F8B9187837855
:1028A800777D787E7C8181868278797F8A807D7940
:1028B80086897E7F7B857D736E6B756C7171778180
:1028C800858880848797918F8F919689817B7A7B81
:1028D8006D675C5C615963667C7D8685848E949F98
:1028E800999E9CA5A29B948B918B867D6D786F7128
:1028F8006E6F7A777A6F73717F80838689958E8DF4
:1029080085878E837B6F727771736C79777B7A7228
:102918007980888588868E8E8A8377807B6E6A64C4
:102928006A696E6E7681828B818588979A999B9663
:10293800A39B978E898C837E706A6E676A676F75B2
:10294800747772767684868C8B8D998F8E82838845
:10295800807C6E73736D716D79787B76747478880A
:10296800818580858B827F747A7C77716A767279AB
:102978007D818F8D938B8C89939A9799939D97924C
:10298800877D827E76685F656263646D77787E781E
:102998007D7D8F8F8D918F9E97988B888C7F7B6A9A
:1029A80067686167647075787A71797B8985898BC6
:1029B8008E928C92838788858070746F7474758406
:1029C800878C8A8B8C9199949B959A929088777929
:1029D8007173655D5D5C64666A787D8580828691C9
:1029E80099979C959D909386807E767764615F64C5
:1029F800666870757B7C6F7474838488908F9A94F2
:102A08009A8E94908D8A7D77747A7C7A818789876B
:102A18007F7D7F8E8488858C90908F7F867B797070
:102A28006363626A6E6F7E828A8482818E988F91D8
:102A38008C998D9083767B7170626261616C6C6D2C
:102A4800777C7E777876888D8F9492A29BA49290DB
:102A5800908C89767A767D7F7D7C82808071656FA7
:102A6800908D878890A68F8073857F736561736F5B
:102A7800686D8789837C7D7677788FA2A396989FE7
:102A88008779616163644E56666A737F8A898D842B
:102A98007E707584A9A9A4A6B0B09081737F736B6A
:102AA8006979847A7D89937D6F756F5C5A739AA56D
:102AB8009C97ADA5826C6975655D5F787D747D9A1C
:102AC80096797A80775F6888AEA29093A1926153D5
:102AD8005A5F4D4D6483817F94AEA181858E7F6658
:102AE8006F8CB8B19EA1B0A271686C776361738571
:102AF8008375849A89676C756A50587CACA8959DD3
:102B0800B0A06E6368766361748C8A76899D906FD5
:102B18006F7B6D565A7EAC9E888D9A8655505F7035
:102B28006169829F9D8BA1B59E7A7D8A7E65699237
:102B3800C1AD9498A488514E5D6E61667A928B748B
:102B4800869685666A76695A6596C3B0979BA6820B
:102B580057566470636B7F968C76848F7C626E7533
:102B680067536199BC9E86909A7656596E796D7BAB
:102B780093AC9D8B9AA5927B828678636FA7BA9354
:102B88007D87946A484865726471839E8A788490C8
:102B9800836E747770627BB1B9A08F9D9D6D53521F
:102BA800747164698095796F7985756A6D706762EB
:102BB8008EBDB5A194A59265575E847B7B82A1AD3D
:102BC800939094977F747065575B95AF9C898695B1
:102BD8006F57495E786B787F9D9584868D85706F79
:102BE8006963567DB4B5A495A19266534E6D696329
:102BF8006E809279757E8579727B72686EA9C5B090
:102C08009F9AA67D6258698177838BA19B89898861
:102C18008574716E5F5275A5A08E7E8D815E50554C
:102C280077797C85949C88808383797171685F69E2
:102C3800A3B8A79892996F58495E756A6E7589838B
:102C4800777C848A838583767099C3B3A597A59189
:102C58006B5E5E7D787A7C89917E79797E767474F4
:102C6800695B689FA191858A926F625975867B809E
:102C7800849185767B817F797C776A6999B29F890F
:102C88007F927461555D7E72767D8B8C7B7E8489A4
:102C9800878D8F80728EBDB5A3919B956E605C7A8F
:102CA8007A6F767786777074777970796D5E699ABE
:102CB800AB9587899778665C6F83737A7F928D74FA
:102CC8007B7F8277787A695F7FA99B898093866505
:102CD8006064847F757E8B977F7A868D897F8C86EA
:102CE800767DAFBDA5949199755D506277666971DF
:102CF80085826F7077807375796B6586B4A79386C4
:102D080091866254567B807B828D9D887B7E847BF6
:102D18006C6D665B6394A9998A899882695B7292E3
:102D280088838A9D9A7F828F8C7E7E82776D8AB611
:102D3800B59D878C8A684C476873686D7C877C6F03
:102D48007A84807980856F6A95B4A0867D897E5D56
:102D580051608382787F8E9580787A79706C7770ED
:102D68005D6FA5B29C8C94A0836C667E93898488E1
:102D78009A957D7682837B7880766887AEAF9280DD
:102D88008985654E4B6B766C6C7C938471768685F1
:102D98007878816E658BACA58B818E886B545F814A
:102DA8007F76798C8F76677581766F777D696F9C72
:102DB800BAA793929F91726674948C848395917A42
:102DC8006B7685787276745F709AA9927F808A7420
:102DD800574E65837A757A9189766E82897B747984
:102DE8007562759DB39A8B8A8D765C526A7E76730E
:102DF8007A91897873888A7F77817A677DAAC1A753
:102E0800979AA68C6C5B75897C717F9488726A86A8
:102E1800817166726A53679BB6988B8E997A594D01
:102E2800677F716A7B9189787390937F71808163E2
:102E38006290BEA7877E907E5B44577C77757E9CA8
:102E480098867C909883778387686695D0BA968CA5
:102E5800A093675159837B6E6C8989706270826E0A
:102E68006669816D5F7FBFC6968690936646467099
:102E78007B71738F9880757C947C7176886F566EA1
:102E8800ABC18E7E889D6E51527993818192AC92AE
:102E9800817F9B8E7A738381626E9FD2A68B8A9D77
:102EA8007A4A436081686470947D6C708F8D6D6D13
:102EB8007D8D686787C8B5847A8D8A52495B857924
:102EC800727A9D9A807B82966F6B6A8A6F5870A21D
:102ED800C48F868BA4745B6486957F889AAF838041
:102EE800809A7F64708786596789C5A07B7D917AAF
:102EF800424A5D7D6B6F79978B7A8182906E7C8078
:102F08008F695E789FC08A868797614E5B727D6DF8
:102F1800808D9F79827D90806F7E8285586D81C07B
:102F2800B99B9DA39B63676A8B7D80839991748508
:102F38007A8B696C6D766C4B6276B1AE918A9787A5
:102F48005150547371787E999780887A907875710A
:102F5800817E606576A7BC988A90885C47596D7EAB
:102F6800768195A7888C878D8A7878798D766C801C
:102F78009EC9BE99979283575C60717467748787FE
:102F8800737B6F7E756D697A8574717B8FB2A27E53
:102F98007D807D5B63687F7A748697998184778367
:102FA80073686F7D7B6867748CACAF969D98906EE4
:102FB80070727B7E748A919B8187868E8A77787DF2
:102FC8008D75696C849DAC8C7A7C795E4B63637873
:102FD8006C7A819291858B7F846E6C657B7D75762A
:102FE8007B94B3AC868E9288636669756F647B8FB9
:102FF8009471797B877B707B92A28884849EA2B12E
:103008009991978D795D6E6B83767D8691846F77C4
:103018006B7E6D69667B75696A71859BAB8A948DD9
:103028008C7473767079647B7A87747C85818574F7
:103038007D7C8D7671717985A2A386949592676758
:103048006878796F8596A38C95919B8F7F797C8A18
:10305800716E677D90B1A792938579515A546665D0
:103068006579838676847A847D78768489787B818D
:10307800979EB3948B8A8171566560746A75849142
:103088008A7E887A867878748692857D7B8CA4BBC4
:103098009C9D9E9C846F716D7868737F8C7B767D18
:1030A800747E70767078726D6E6D8196AE918D8A31
:1030B800886E5960647267788A9B8E888D8D8D754D
:1030C8006E6E7F716A69778A9FAF91978E896E65F8
:1030D8006C6B7A72828F998C8F8D888A7E7F7C8EBA
:1030E80086847B8093AAAB858784785951545E6621
:1030F800657B88907F817F7C7B7477768278777117
:103108007A8CAEB09195908B6A686A707667758193
:10311800837175787E837C7E8696857B7A8A9CB659
:10312800AD949C93896F6E6C72716E808B8E818961
:1031380080868071686C7967645F7387A7A28A95B7
:1031480092836462626E6A6F838B8C808982867CCC
:10315800787981877C7A6B8190B3A083827F79515B
:103168005E5E77757A909D9B8C968D9481817A8529
:1031780086787D7E8B95B7998B8A85785F5F576750
:103188005E616D79777476717D777774908F857DC0
:10319800798D9DB38B8C8C89715A635E6D6775824E
:1031A8008B85818480837B7F7682837C74738BA7F5
:1031B800BFA09E9EA182686E6C7769778692888789
:1031C800898383706F6978736D6A6F8198AE88841C
:1031D800858367545B5F746D7A8D9F968F8B83862A
:1031E800757270837E756E74899EAC878B8A886DC4
:1031F8005F696E7E718089958B8687899282827FCE
:10320800968D83747D95A9AA8690878560545A59AE
:1032180068617278867C807D7A7C75766C8078753A
:10322800697993B0B4919D97906961646A716A7C79
:103238008489777D7D807B757B7D8F8380788CA06A
:10324800B7B0959B928762636571797685929B8BFF
:103258008C84877C736C6F7A68625A7285A19486B5
:103268008C867B5A5C5B6D6E737E8E9485898792A3
:1032780084817E898F7B6F698893AA93878E8672F3
:10328800505D6076737C8B999A8E958F978A857737
:103298008486776E728FA2B6938C908D6D595F5924
:1032A800655A667280757279777D7275758A857AC6
:1032B800757E93A8B08E908F8B6B5C636C766D7AFD
:1032C800879684807E8384757073857D766C8195FE
:1032D800B1B49AA39B93716A6A6C766E7F888D8469
:1032E80086828180776D6F7F727269768CA39575FF
:1032F800807B6D4B525B6A6D6C85989C868C8D903B
:10330800827878838E7A75718497AC9A858B867764
:10331800595A627577748593918486878E88827FDF
:103328008C9283797C93A6B5958A8D82674F58597C
:103338006A616B7D867E737A7780706A687A7A6D47
:103348006D7590A9B595979A9071606C727F727A35
:10335800898F7E767A7B827773778A8378737F9872
:10336800B1AF91989487676269727C7288959B87E0
:10337800868A8A86756E707F6E645C72879F967B7C
:103388008A837552575D6B6F678090937D858788B8
:10339800827677839586827B8B9DAF9C7F8A806CB3
:1033A80050535D6D737891A2A18C949291877B7D27
:1033B8008B8F7B74728A9DB1988E978C73545A5EEA
:1033C8006C60647580746471737C6F646780897BDA
:1033D800757A96ADB89B93968B6E5E6B6978717BA8
:1033E8008E968D82898080727072838074757E9CBF
:1033F800B4BB9DA1A296786874727A687488897A39
:1034080078838380727273827466616B81959D7E06
:10341800827A7257505C64756B81929D93919A96EB
:1034280094807D808F8177717E96A7A98B968A7C00
:103438006059646A776F83939989898E8D89807DB5
:103448007E92827A69768DA3A2818B817B58555EA4
:10345800656C5C6F7E827372767B7B737276837425
:1034680070698298B0B59CAA9F95767477767E71BC
:10347800848E948684868180746E778879726D8351
:103488009DB7AC949F95836364656D6C6C84928ED4
:1034980081877D7A7069686C7465625C7287A393B2
:1034A8007E887E74565E647678768C9694868F8E47
:1034B800918883838D9485837C8E9BB39C88897F38
:1034C800785A5E60737776869195888C8A93897C22
:1034D8007783847168658190A7928B928672576111
:1034E8005B645C63767B746C7472756C6A6C7C7DEF
:1034F800716D7590ABC1A5A1A0967E677274827C30
:1035080086979D90878D8583766E6C787672707CB1
:1035180091ACBB9A999B957B6972717A6D76878815
:103528007B767B78776E6C708375695E687A8D9A26
:10353800787F79765D516466767384969C8F8D92D8
:103548009598918B8A97887A718293ABAB90999072
:10355800856661686A726B7E8D8E848E9193908980
:1035680084878C7D786E7F8AA69F808A7F7958555C
:103578005F60645F738280737477776E6463727B55
:103588006F6E6E8C9FB9AE9DAA9E977474797C8578
:103598007E8C938A7F8080838076727F83786F6F3A
:1035A8008495B0A0959F91836A7174777777878A9D
:1035B8008179817F7F78726E7772645C5C74869E95
:1035C80087838E8371525A5D646670868F9089985E
:1035D8009C9C968A899793887F8094A4B9938988BC
:1035E8007E6B50616172747A9093938B93918D89FD
:1035F8007F808B8478747A8A9CA88C8D8D7D67589F
:10360800646269646E7A736B69717575706C7586BE
:103618007C776C7890A7B298A39E977C727E7E8CFC
:10362800818E94968C848A85867C75727D6E6A6399
:10363800768EAEB598AB9C93746E78727C6E7E83F2
:10364800818081877D7B756A7079716D657385A3CB
:1036580095798376714D525C606D6B8D98989092D8
:103668009593918783909388847D8F9DB9A792972E
:10367800887B5C646770746A7F83847F828A909396
:103688008D8793938478728590A7917F867B7255F6
:103698005E5F65676379797C73777C757465616F44
:1036A8006C665F6A8299BDACA9A9A294757F79807E
:1036B8007F7D9091918A898A8782746E7D78736BF9
:1036C800758EA1B99B97928C7D6778707E7A7F936F
:1036D8008C878085827971686876726A5E667B8E6F
:1036E800A4848582806C4F61586A646A7F838A8566
:1036F8009292969790919A958E7E8491A4BA909280
:103708008B86725A6962746B76898A8D8695918EDA
:1037180089797F8B82796C7786A2B38E9088866B45
:10372800585C576C5A61757B7C6E77787670616BE4
:1037380079736C667588A3AF919C97937F70797045
:1037480088828E9C999B8B8F847F7C6E6F77757334
:10375800667389A9B5949D999C81707A6E806F75FE
:10376800857F82777F7C7C7D6F767C78715F6C7CCF
:1037780095A07D827D7D624D5B556D636F899099C3
:103788008F9993929182818B8A86778297B5C59D0E
:103798009B93947458605670646D84848E828D8C6B
:1037A8008B8E7E888E8B8575838EA1AA87857F7D7B
:1037B80066505A566E646E857F87797D7775705826
:1037C8006271716B5A6D86A8B898A6A8A888707C93
:1037D8007685757D8F8C8F808A848586797F8180B8
:1037E800786571839FAF8D9191977D65716D8575B2
:1037F8007C918C8A7C87827D7460677169635E7155
:10380800839DAD8A938A8466515B4D6558657B8339
:103818009488959393917D879697917F8D9BAEB46D
:103828008D928D856B56645E77707A908C917D86CB
:10383800807D80737D8A867D6F7C8DA2B48D908B10
:10384800876D505C586D5A5F73757B68797A7C7B9D
:103858006C787D796F5E708198AA8F98969A83703C
:103868007C718A7C8496979E8990867E78636E7533
:10387800777362768CA6B497A09C96745B6B62781B
:1038880068758C888F78857C7A76687A7B7A71619E
:103898006E7F96A583837B7C60485D5B7768758BBC
:1038A8008D95818E868B85768792938677879FB54F
:1038B800BA98A298926C5A6C5C725D6C7C7C857824
:1038C8008A828B8B818B8E8F85707788A3AB858E50
:1038D800888865526863765E72828385707F7475A6
:1038E800685C6A73716662748AABB79AA8A19E7D98
:1038F8006B766F836F818F9197838C828482787DBA
:10390800807E715F7085A1A58796959371677474A1
:1039180086708694938D738277796D637275706102
:103928005C728CA8AA909D8F865B525D566A547013
:103938007D828981988F948C8694958F7E788D9FCF
:10394800B5AA8D99938A605B64627462818E938E46
:103958007E897D84777180868676738BA0BBAA96D4
:103968009F8E805453575960517579827C7583783E
:103978008271707D7A7560668094AC958F9A938613
:1039880061757885857C9E9DA48D8B8D81806C73F7
:103998007877705D6B869BB1969B9F9980596C6315
:1039A800716A6E8D8F947E8586827B6D79817A6D42
:1039B8005A677D929B7E898780634C635E6F6173D3
:1039C8008F8B907B89878482778788857E748BA08C
:1039D800BDBA9AA89F926D62695F6D586F81807DAC
:1039E800758A828A817A8D8F8A7A748896B0A08B3C
:1039F800978D8159585F636E5F7A878479747C707C
:103A0800746A6573736F61637E97B6A598A39D8D7D
:103A1800696D6D74796E889195878892858E80809E
:103A28008B87806C6F7F91A68F879893815E696A78
:103A380073777494989A8886877C7A666B787469A9
:103A480056627E9BAC8F92978B6D4F5856605A5E2C
:103A58007B82837A8087888A808B98908679889BF6
:103A6800B1B3939C998C6E5D6C697367758C8A860B
:103A78007D837C77736B7E88837A70849BB3AD97E4
:103A8800A29E8D6459615D6352687D7C756D7A78FC
:103A980079746C8084796B62768EA9978999928300
:103AA800636772768176909E9C968F9486857770F0
:103AB8007F7D79686D839BB395909A937C5B6366F1
:103AC8006C696A89908E878689807E7274837B731D
:103AD80065697D97A28685877B5F4A585A6A686EB2
:103AE8008D8D887E7E817C7C6F788A888273869EA5
:103AF800BBBE9FAAA59973636E6673677184838042
:103B080079827E7C7E727F8B897F748596B3AD9136
:103B18009B9484625C62616B5E75868480737A753F
:103B2800756F627077736B627990B1A896A3988D60
:103B38006A656A6C766B859293908790878C857F8F
:103B48008C8E8B77728597B39C8A97887D57585F40
:103B580066756B8C979B938B908483726A79797660
:103B680066647A8DAC948C9386785159575D635A04
:103B7800788187807C817E857A798C8E8E7F7E9114
:103B8800A4BF9F999D95805D6B6372726D8B8E96B5
:103B98008580847B796C6E7B7D7A6E778EA4C3A8D2
:103BA800A3A397835C6657615F5B757681727579AD
:103BB800767D6C717D7D786972859EB191939389CC
:103BC8007459696679767A97939C8B928D888974F3
:103BD8007C86847E74798BAABD9A9B988F72556176
:103BE8005B6C626B898D91818788898475818782F6
:103BF800786572839BA682877F785D465552696295
:103C0800748C8E907E8681807B6F7985887D7484A4
:103C18009BBBBC9EA69F9773616A6475667B8A8B03
:103C28008879857E857C768386857A6D7E96B3AC29
:103C3800959C928A5F575C5E6F5D75858A83757EF9
:103C4800767569616B726F6261788FB6A996A39574
:103C58008C62606369766A8792998E878C888E8178
:103C68007A888B8878758DA1BC9F9291887A4E5DF1
:103C78005C6B706E8E969E8F8E8E87846F6B797458
:103C88006E6368829BB492918E836E4A57526663C4
:103C98006681848C7D80838283767C8A8A8575831D
:103CA8009AB0C09C9E958F735669657B758199996A
:103CB800998588817C7969757D7973667C92B3B8BA
:103CC8009BA497916D5861596E62748382816F7756
:103CD80072756F647376776F667E93B5A98E9489D3
:103CE800825A5A6067796D8C999E988A918A8679EA
:103CF8007682817F716C869CBEB09FA1948A5D5A42
:103D08005D606E63808A8D857C8883857775858103
:103D1800806E687F92AE9688877C70464E4D5A6753
:103D280062848B938780857B80707180807F6F76BB
:103D380090AAC5A89FA3988561676270716D8D91DF
:103D480092817E847F80737A8A87826E778AA5BA09
:103D58009696948E73535D5569676B898B8D7B7AC4
:103D68007B7271626A75726D596C82A2B9989B9563
:103D7800937259665D746B758F9093848E88828276
:103D880073838D8982738393B3BA95988C876550B2
:103D98005B5A74697A9192948288817D746578817E
:103DA8007C74667B91B2AE8E978980594C55516967
:103DB8005E75878885768074787368797E7D746E81
:103DC800859BBEB1979F938A66646870827894A039
:103DD800A1988C9589877B717F7D796B657E91B180
:103DE800A29096897B55585A6471678386877C733D
:103DF800787273666A7F7E7C6C6C869BB89A9290A8
:103E0800806F465251606D708E939C908E8F888A19
:103E1800797E8A8A85737992B3C5A4A29F937957CC
:103E2800625B69676A858180737577707067788966
:103E38008683748398AFB38C8A81745343525266D5
:103E4800657A94908E7E8380756D617279726964EB
:103E58007E98B8B09DA99E927069706F7B748C999A
:103E6800968F8588848278788A8B867570899CB4C9
:103E780096878C7D69485758646D709297978E889D
:103E8800897C736166756F6E5F6D89A6B797969327
:103E98008669545F5C68646C848A8A7F81848483C1
:103EA8007B8F9C958C7C92A9C0B99A9F938460580B
:103EB8006565726A7F9290897D7F7A766D65787E76
:103EC800766B6A879FBAA493998C7B545A5C606618
:103ED800617B86857B757877766B6E85877D6B765B
:103EE80090AAB5949494896E5668697778819EA251
:103EF800A29492918B83717A857F75667891ADAB28
:103F08008B938F82605360627066788D8E8A787921
:103F18007A776E60738078706A849AB4A287918287
:103F280075504F5A5F6A627E9090887E8682807450
:103F38006C878B867A7A97ACC6AC9EA69B8A666E8F
:103F48006F73746B878E897A72767474686C837EEB
:103F5800796B7795A9BB95908E80684855566363B1
:103F680065848C8D807E857B78676C8077756478B6
:103F780092AAB38F96928C705B6B6B7F7A839E9EAE
:103F880098878889848174808C887F718A9CB4B36F
:103F98008F93857B5A4A57556761708B8F8F8082C4
:103FA800827D76637179756E647B8BAAA189958C05
:103FB80086635C676472687A8C8C85747977746CB4
:103FC80067808B8B8782A0B1C7B79B9F9187625D03
:103FD8006266726B869899948386817B6E61757729
:103FE8007165617E95AE9D8D958A7F5B5E63657018
:103FF800637B84817B707875766E6B7E848377783B
:1040080092A2B498858A7C705259646D7876949F90
:10401800A39B8F95908C7B7889848371728E9FB8CF
:104028009E9595897D595E5D67685F7B7E84787211
:1040380079767C6B7185827F6D748FA1B698908E2E
:104048007F6D4A555969726D8D9394877E83797D0A
:104058006B6D82807E72809DB5C6ABA6A198866383
:10406800706D757B758F8E8E7C75797278687282AB
:10407800817E6B758EA1B09189867C6A4E5C5E6B81
:104088006C68868B92807B817C7D6A71807F776586
:10409800728BA0AE8E8D8B86745669687A79779804
:1040A80099A08F8A8D898A788591908C7A889BAD22
:1040B800B8938D867E674655526461668689947F7B
:1040C800818681826B757F7D786471859BAA8F8FCD
:1040D8008A887255655F726D6D86828C76787B777B
:1040E8007A6A7B8A91928294A6B9C4A4A1978F75A3
:1040F8005764607775789698A08A8785817C677100
:1041080077766F5E6D829BAE92958A8A7254655CF3
:1041180071686982848872767375786B7B8588810B
:10412800718190A9B18D8A807C5D4A565A787786CC
:10413800A6ABB19C99938F89717F85837D70849498
:10414800AFB998988C876A515D586E616C81858883
:10415800747C797E7B6C7E868A836D808DA4AD8825
:10416800867C785D4756556E6B7B92959880897DE5
:10417800807B64757B848073899DBDC8AAA99D9B3B
:1041880076616A687D6B7C8E90967E857E817C6B7D
:10419800767C7F7565778AA8B09190868460505C3C
:1041A8005B7466748B90937C807B7E766472777D7B
:1041B8006F657988ACAE93928A8863575F60786E32
:1041C80083989EA18D928C928676858A8B7E738643
:1041D8009DBDB699968A80564C5656665D728692F3
:1041E80094818581857B6A747A796A60718AACA6C4
:1041F80091918B865C555A6471627886918A777E34
:104208007980736C7C848C7D7890A6C6BEA09C94C3
:10421800885F5A5D6478728896A29D9091878874A9
:1042280067727977675C748CABA690959087605CB1
:104238005F657060727D867C7175747E6B6D7C863F
:10424800877773889FB9A78A8A8377515058687788
:10425800718B9DACA2949791917A727D83807072D4
:104268008AA9C1AF9C9A9582615F5A686860747F19
:10427800847876777A7F6D6F848A84706F859DAD38
:104288009182827E65474E556C6E738B969B8B82AE
:1042980081827F6A6979807A687693B7C6A7A19F79
:1042A8009B765D65677A70788D96998886888A810D
:1042B8006D7684847766768EAEA78888857E585119
:1042C80057647468798C958C7B7C7A7E6E5F717A82
:1042D8007864637B97B8A29094907F58595E6E7803
:1042E8007286959E9288898F927D77888F8970765D
:1042F80093B1C3A195929072555E5F736A69828E7D
:1043080092817D7D84816A707D8073617084A9AAA1
:104318008885898761545963786B6F82908C7B7C20
:104328007B847761758186776E88A5CAB59B9A9BD1
:104338008E605F6170796E8295A19A8B9095957F5A
:104348006E7E7E7C66627C9AB08F85878C745561A0
:10435800627574707E868D7A717578786062777D03
:104368007C6A7691B3B18B8B8A89624C535C6E669A
:10437800738A9EA093929697917A838B877D687CA7
:1043880095BBAC91999A916A6568757D6A748089C4
:10439800827072787C6F6579848A76718AA6BE97F6
:1043A8008381826D454D53696761778394877B82EA
:1043B80084856D68787D7C646C86ADBD98989EA573
:1043C80085686D73857672848F937E78848D8A7202
:1043D8007A888C866E7F95BAAF838383855B4C53CE
:1043E8005D72636F818F907D7C8084735B6870776A
:1043F8006C5B7492B49B848A8E885A56596A735F30
:104408006F808F8E7E87929785768B8E957E738C44
:10441800ABC9A291929A895C5A5F73726677879446
:10442800897B8286856D63747B7B626682A9BA8E7E
:1044380086878F734B51586E675A707E8C7F727D5A
:10444800827D6264747F7E657390BABF99979CA6DB
:10445800815F646E81736F8396A18E89939A92733C
:1044680079828B7F647893B9AD8A858D9465525330
:1044780064796A6D7A90947B787C867657636E7CD3
:1044880072647998BEA286828F8C5A4845626D5DA7
:104498006478979B8C8A96A59277818C947C6D82A0
:1044A800A4C6A28B899F9C6B5C60808072707D998A
:1044B800957F77808F76606977846C6B81ACC8A3B1
:1044C800877E9581533D4062625B586F92938278F4
:1044D80085937B6566737C656674A7BFA08F8BAA7E
:1044E8009C7C656686877B6F7F9DA08F7B85978682
:1044F800776F7E8C7F7E86B3C6AA907F907E63435B
:104508003D606C6D63718F9F9E837F8A82765F5F4B
:1045180064666A7193A3998B7F867F745C4B60672E
:104528006D656D7B8B9C8F919292918E8B85878B1D
:1045380091A5AE9E978F94887E6E5F6B6C72707734
:10454800838E968E8E867F7C75746F6F75798A9947
:10455800918C8689867C7564645E6362616A68761C
:10456800797E807774737B7B78787C8791908C8E4A
:10457800929795938D8A8383828386808181888CA4
:10458800878582868485818186888C8A89868885C4
:1045980082827C787779767775736F6E7370716DB8
:1045A8006C6E7475747C7F838485827E7D7C7A755D
:1045B800747274777C7F8585828A8E8B888A8A8AD2
:1045C8008A8582868A888C92939393939293948A0D
:1045D8008788807D776D6A7170696D73797F828253
:1045E800838985807F7C7673777476787374787F17
:1045F8007C757570726E6665676E6C707678838A86
:104608008F969D9B9BA5A49F9D938A8B8A81767488
:10461800737578777A7F8989898C878382837F808D
:104628007E767F87868787888C90887C78736C668F
:10463800655E5F6865656C7371747B7E83847D7F5E
:104648008886807F7E7E85837C7C80818086898A3F
:10465800908E888B8B858186858787838A939B94A8
:10466800949893938D8279736D63676B6B7074778D
:104678007C837E7D838481817C7D86827B787E7C41
:104688007A7A716D6A6761686F6F7174797B827D00
:104698007C878B8D919597A1A59E9C9F9A949087D6
:1046A8007D7A7570757875777D8181847F7B82844A
:1046B800818286878A8E8989928C86807E76706CC4
:1046C80061666867666B6E6F7573707578747376FC
:1046D800777C86838891918D8B908888827C818174
:1046E8007F787F8280868580858A888B9290939A4E
:1046F80098949695898280736E6B63687272707CE9
:104708007F7F82807B7C7F787477777981828487CA
:10471800897F7E8077736963616A615A666A6E71A0
:104728007A7F8996989CA4A0A3A4A19D968F838143
:10473800807C7871747B85837C828383827E7B7B9B
:10474800868D8C877F86878F9082807D827F796A2D
:104758005E666F6C625359676C68637483A9AFA017
:104768008B81827A785B525C6B767875798BA3A3A0
:10477800957F7D95978870778CBDD1AB88818E8920
:1047880070494C75909180728B9F977762627083A5
:104798006D686A7E9ABDCAAD97807661412D324AAE
:1047A800647070758A8F7E736F757478747A7A7096
:1047B8007C97C1BC9D807987806C536894A7A38C33
:1047C8008B9C987F6A717B8A8E7E837E8597BBC718
:1047D800A58C7073705F47476E8C95887C89918132
:1047E8006D6A79788174736D647589B09E81676329
:1047F8006F634F40577E918A7C8298907E73838D39
:104808009193828B7E8192B8CCAA8F757D82725AE1
:104818005A7B989C8C7A899382736A7E849082787A
:104828007770869CC4B9957B6E7166523C4F6F82D7
:104838007C6B6C828073676F81878C707163688012
:10484800A3C0A48D7681847668607F9B9F917E87C4
:104858009285777287939F9684847B899DC1BD9941
:104868007E6E776E5D4952768F92807B8C8F8071D9
:1048780073848B8870655A586D8AAA977E666971A9
:10488800665648648690836F6D7F796B667C929BD1
:104898009B88897F8AA1C4CEA8876F726E644E57A1
:1048A8007D9AA08D858E9685797487918D7C6F6DA4
:1048B800657893BAB092786E7772614B5A7B8C7D2B
:1048C800675F6D6C5D58667F8C8B7A776F7688A38F
:1048D800B69A7B66666A6458567597A595858997D2
:1048E8008E817C8A999B8F7D7A728199BBBD9F87C7
:1048F8007A7E7A6D555C79918F796E7B8278707447
:1049080087929684766D6A7C95AB95755C5B5F5BE8
:104918005046607F8F857277858278717B8A938D08
:104928007B796E7C9BBBC2A78D7C807A715E668624
:104938009DA18B7E8591867F7C89939589766C6C09
:10494800819FBBA68B756F71695D4E688393866E78
:10495800676E7267676F7C8786736D626B87ACBBA7
:104968009879636A6C6859597D99A4927D818A8681
:10497800817E8A959C92837D778DA9CCC29F827611
:104988007C736751607D918C766D787E7A777B89B0
:1049980090958377676A81A0B59573595A5D5C4F86
:1049A800486A88978D71707B77726D747C87837481
:1049B800736C84A4C7C9A48A787F7C6F595F819778
:1049C8009C85758391908F878E949C8C7B70667F75
:1049D8009AB9A7876D66706E63556C899C957866E1
:1049E80070736B6563696E786A665F6786ADC4A32A
:1049F80085686A7062524A6687998D75778B92943A
:104A0800908F919C99867A6C7F99BEC099817482A7
:104A180085796769869B9F876A6E7B7D7D79797DBD
:104A28008C877D706B85A3C5B388685E6560513CD3
:104A38004C6D878E7364737F89898080858E8275BB
:104A4800656982A6C6AC8E7679878073617698AAE6
:104A5800A28174818E948D8885909B8C846C7692CB
:104A6800B3C6A180626A756F5D4E6786989070695B
:104A7800778083766D6B757D7167576582AAB99764
:104A88007A667079746056708D9B8F7068788B8F9A
:104A9800898283949A8C7E6B7C9DC4D0A58774810F
:104AA8008A816A5C78949F8E6C6676858A817B7C25
:104AB8008D9483725F6C89B4BA8E6D55616A614A50
:104AC8004160869789686277878C7F737083887D59
:104AD800695A7495C4CCA4846F7E857A635476969B
:104AE800A5947174889BA0908C8E9FA18F7C65760D
:104AF80090B3BA926F5E6D756E5B4F7194A3936AB3
:104B0800677885836C615C7175665D4F6C8FBCC31B
:104B18009977606F75674E4161809386676E82985A
:104B28009D8C86879B988875617A99C3C3977E6E9A
:104B3800808A836B61839EAB946D717B8A86716F6B
:104B48006C85857B6F5D7D9AC0BF8E6D586263559D
:104B58003D365E7D8F8265708193918078798983F7
:104B68007A67557290BBBA91786A7F87806C67873D
:104B7800A3B095767A869697857F819993897A6B83
:104B88008BA7CEBC8D6C596D6C614A4E7791A08411
:104B98006C757F8E8370676C7E726A55507495C091
:104BA800AF886B5E71736B4F5279909F8265717E8F
:104BB800918B7D7C8599938D777391AFD3BB9276DA
:104BC80070807F765E6789A1AD866E7784918279E1
:104BD8006F7A8B807B6466819EC3A47B5D54686614
:104BE8005A415277939D76656C7F8F817569768778
:104BF8007F795C6282A9CAA88466677E7D725A6CD6
:104C080091AAA980707C92A2968A8492A1988E6DAE
:104C18007891B3C89A775760727065536F8DA89F63
:104C280071676E808774685D71797369506A86B53B
:104C3800C49A7A5867736F5A48647E968F6764720D
:104C480089978E887F999D9987697E95C2C3967545
:104C58005F758786726A8CA8BAA3757073898B781A
:104C68006D657F858472627B9BC7B88A624D636974
:104C78006147426481977F616874919386767489ED
:104C8800867D5F546E92B9A47C60607D89836A7169
:104C980090AFBB90737480979386767E9A9A967637
:104CA8007794BADAB18560607371614858799AA2CD
:104CB8007A696B7B938978626D807D724D5475A695
:104CC800C19970505E797B6D556684A09C6F5D605C
:104CD800798C867B6E86999B8F7381A2D2D8A77CAC
:104CE8005C6E83836E5D7897B7A7807076929A8D95
:104CF800786B7E8B8871576C8EBFBA88654F6774E6
:104D080071574964849E87655C68868C7C6A688074
:104D1800898469587196BFAC7F5D5675817E6667D8
:104D280083A3B6997C76859E9F917D7E979E997880
:104D3800718AB0D2AF825D5A777F7459607B9BA429
:104D4800826A687B8E887860667A7E75575B76A9FA
:104D5800C09A74515F797E694D597392916D5B6108
:104D68007E959284748499A08F717C99C9CC9B702C
:104D7800566E8A8F79657999B8AC8673788F9A8ED2
:104D8800736577858873607398C5BA8D63516D7A3A
:104D98007353465B7C927A5E576B8A918A746F85EF
:104DA8008D8A6C5F6E92B4976B464C7287846A6E7C
:104DB8008CB0BC9E7D7283979A8872768C9A957D0A
:104DC8007C95C2DAB5845B637D857154597093957F
:104DD8007764647E96998A727786897E5A5B729E1A
:104DE800AD8663485E7B83715C6681A299765F5A63
:104DF8006E82807261758B99937B87A3D3D6A879CD
:104E08005F74898A705F6F8DAEA584777A92A29D50
:104E180089707D8A9081646C86B6B286624D69819C
:104E28007F645364819B8D685B5E75858473637949
:104E3800858F7D626F89BCB6855E4A657B7D685CBF
:104E48007495B1A3867B7F95A29F8A788A969E8C5B
:104E5800737E9BCBBF926E5E788682675C718CA2F4
:104E68008B6D65677E8B857264777F88725A6886DA
:104E7800B8AA815B4D6B7776605168819A876760C5
:104E88005B758887746A82909E8A7686A4CFBD9265
:104E98006B5E798887736F83A1BAA6857B768E97B8
:104EA8008D75657A84907765779BC4B2895F5773EF
:104EB8007E775B53647C917B655D5F7F8A88756DC7
:104EC8007F898F70636D8EB29A744B4867787B6761
:104ED8006A86A4B9A0877D7A949A8C7770828F9815
:104EE800807A8FB6D9BE946B647981765A5A6D8B65
:104EF800997F6D606C8C978E7673818986655C6D01
:104F080090AC8D6A49506B77745E697C989F806914
:104F180059637A7B7061677E8D8F777C95C1D9B331
:104F28008E686B7D8378656C7FA2A88F7F76869E5E
:104F38009F907B7D898F8362657AA5B48E6D4E5B69
:104F4800767D7460687C9994755F55667D8173661B
:104F58006F808C84686F86ADB58D684B596C776CA3
:104F68005D6B86A6A58C7B788DA3A08F7E87979E88
:104F78008E747B97C4C59C796071858978687188BF
:104F8800A09677635E758B887A6E76858D7A636F67
:104F980089B1B08560495E7379675B69819B8E7161
:104FA8005F5B738787776A7A8791836D7D9BC4BFC0
:104FB8009A756177878B786F7F9BB5A38879758B96
:104FC8009A927D707E878C75607292BCB0896453AA
:104FD8006D7C7C685D6C859B876D61607B8D887856
:104FE80072848C9078607290B3A078514864777C12
:104FF8006A687D9DB4A28675758B99917F77879233
:1050080097817389AED2C1986F677E867F655B6C26
:10501800869A886D616784918C807787908A6F5CA7
:105028006B90B39E764F4A69797A69677C99A98FA4
:105038006E5E5F7681796C667A8989786D8AB0D17F
:10504800BF946E647B857D66667F9AAC997E757C1D
:1050580096A1998A818D90866B5B6D94B29B7456EC
:1050680056737F7A6A69819BA08466585D75827CD5
:105078006F6C7D8B87746981A8BFA2754F50696F6B
:105088006A565E7C9BA8927A758099A29787828FD0
:105098009489726B88B4CAAA7F606981877A636BC6
:1050A80082989A7C625E687E847A7175888B846E39
:1050B8006B8BB1BB93664C5870726858698A9E991D
:1050C8007D68647488887B6F7184877A666E95BE04
:1050D800C29A745F76888875697D98AB9D80737372
:1050E800859A94857A828D87745D6E98B7AD7F5B5B
:1050F800526E7A7463617C98A0886A5F6A7C8A7F42
:1051080075758590876D607EA8BD9C6F4E547073D1
:1051180067576485A3A1827072819393857D80937C
:1051280095856D729DC4CAA17563788A826A5E711D
:105138008F9C85655B677A887F747889968F77649A
:105148007AA8BCA170505570786B596387A5A38263
:105158006A6B7A837E6C66728487735F6B9BC5BE4D
:10516800957167828F83696179939D8669687C935D
:10517800A193888D9FA593756B89B2B68B5F4B60A1
:105188007875675C6F90A3946F616A7B87786762B4
:1051980073847E6A6584B7C6A1795E6D837F6A5819
:1051A800667F8D86695E6E809090817F8C9A947BF5
:1051B8006F85B3C2A2785E6A888B7F75869DAAA028
:1051C8007F70717A7F7B6B666E7676646482ABBA29
:1051D80099735B647A71675F6D8B91876E6B788367
:1051E80089827B80888981696F8FB7BC926A55688C
:1051F8007A746A6C8AAAAB907578898D887E7A866B
:105208008E907D6A82ACD2BD87675D76765C4E5D96
:10521800839584645A70888274626F85847552633A
:1052280091BEBB8B706981866E616D93AA97786712
:10523800778B857A67728689795A70A5CDC18E7504
:10524800748B84645B76A3AE977675939F8F7A711F
:10525800838E83644B6EA3C199665968816C5555DA
:105268007CA19B7A5C647C7F746364808781636FB4
:10527800A6CEC6957B75816F5353749A9D84707AB8
:1052880088897A798395937C646A9EC3B9897A817F
:105298008E82595479AEB89D7F7C8E89705B5B692C
:1052A8006F654A5189BAB88E767882714C456182A9
:1052B800877A717F92887873829086705975ADC9A4
:1052C800AD827D898860384575969582879FAA9CAE
:1052D800837D858B7F675779ABBC9D868F9C976C48
:1052E800556889907B6D7A8C8064535F79806D54A2
:1052F8006599BFAE7C707F8D713F3D5D86846F6F11
:1053080087A2978578818F86736380AEBB9D7F7FE8
:105318008B84624A5B8393868190ABAA8D77738A6C
:105328008B74566294C0C69F919AA1865445577350
:1053380074616374918C786E77897D6357709AAEC7
:1053480099828997926C4B536B7E72687794ABA164
:10535800897C8A927F5E5878A4B59B8B94A19C79AE
:1053680062677882776F7C8F9A928287919178674B
:105378007592ACA08C8A999C825F505E6C695A5970
:1053880074879282727A8685645463869C93868C2D
:105398009DA390786A757A7065667D8E95837F89FE
:1053A800928263627EA1A796889DAEA38467687C7B
:1053B8007C67536183989688919FA38566638094E0
:1053C800897D7C9395866F65747A6E585269787674
:1053D80066677F948968647B9DA08A819AB4AF913F
:1053E8007272847F674E58717F796A7B949F8A773F
:1053F80080A0B09E89879E9D856B667D84705D5F69
:1054080080928B7C7A959C8C655B718A8D7C798F78
:10541800A6977E6A707E725B4F5769686667788B5D
:105428008982778398A199959BAEAE9984797C758A
:105438005E4D4F6274747A80959D9A8D828B959A91
:105448008B898E98968783838A88756C686C706957
:105458007179857F776E6C78818A868E9399918031
:105468007C77756F605B58626463737C8F91948FEF
:105478008C939DA29997989D9286786C6F6A6163C8
:1054880066747B80878D9189857C818994979296B3
:105498009AA1988D8780806F5F5A565F5F69737B8A
:1054A8007F7D7B72757A88898C90919688807871D7
:1054B80073676261616D6C7B88969D999286898B12
:1054C800948A898D95988A847D7F7C6E6866686FDA
:1054D8006D787D868B8C908F94989E9696928E8A06
:1054E8007F7B777165555454595E5F717F868580DF
:1054F8007678818D92888C8A938E82807C817E7268
:10550800716D70737785898A87898281828B949976
:10551800A2A0A396918B7E77655F626167667081B2
:105528008F96928E85878D99938B8787897E776EE4
:105538006E6E655B58576167757D8386807E757969
:105548007D8989939B9FA094928F9188756C6B6AD3
:1055580069606B7683888885869099A49B9D9DA0B9
:105568009D918375736E686764686D7282888C8993
:105578008C817E8286878185868A8277767A7D6F1E
:105588005E5C5C6A6C6E72767E7E7E747C89A0A19D
:10559800A5A6A6AD9B958B847F6F655F5B5D5C6FF1
:1055A8007D8D8E90908A92949C9599989D9A8983E6
:1055B8007C7C796B6260666C6B75777C80887E78A2
:1055C800798189898C888C8B8A84827D70635E5905
:1055D8005A545F707C87858B83909BA5A39EA0A35C
:1055E800A594887F7D7E6F61615E6866737C838D1C
:1055F8008F9188898B97979A9999968E8B837F77C5
:105608006864605C5B5868747B7C7E797D838F936B
:105618008F90929B90857A77756B5C59575F626F14
:105628007F899491969195939D98969B9897888356
:105638007F8382756A6A686D667077808A87847DE1
:1056480087929E979595A19F9182757369605C5A20
:10565800585A5C6C75807F807E7F8892999193916F
:105668009184777678766D5F646775767A89909994
:10567800939280818190938E969BA0968C85837F50
:1056880073686B6568626E7B84888787808C939962
:10569800928F919A96887A737269564F50576165BE
:1056A80073788789928881868B948D888388848390
:1056B8008483817C727572736C7584898D85867913
:1056C800828C9A9B989BA1A5968883817F7265643A
:1056D8005F6566747780868C8E85868995929290B0
:1056E800938E8179746C6255565C6467697B7E8899
:1056F80082847678818C8E868C8F9F9A948C8A8A05
:1057080082716E606466737E8088898F8187899BC9
:105718009A9A9C9E9A8E8A85867F6F696A696C635D
:10572800727382858A877A8489928686848B8C8232
:105738007B7873726663615F636876757A737B7171
:105748007B86949E97A0A2A59A908A8981726162AD
:105758005D696B777F859293937F7F849794969703
:10576800989C928A847F7C6F69655C5F5E7479839C
:10577800807F7D76797C857B858B98948986837FED
:10578800735D57535658596B70858A948E8D95A1C1
:10579800A9A09B949A928D857E7C746C69656866D5
:1057A8007782898E8A93888D8C9593909A989A8D12
:1057B800828181817363645D605963676F737979EE
:1057C800707D84979398979D9C8E86756F665753C6
:1057D80052555E62798090919998909699A0949686
:1057E800929994888583837A68635E64686F7C8005
:1057F8008D8B92838488909690908F97928B8580DA
:105808007B715E5E53534C5463707C7D857C898FBD
:105818009C93909091958179757574685F646573B0
:105828006F7D838B9292918891929E929390959995
:105838008D8782807D6D69696A70687A7F8C8989B5
:105848007E77858F9D92959399958579756F6A5620
:105858005052555E60737889868C817E80838B81F7
:105868008B8C9790878484847D6D6E6C706E6D7D53
:1058780085948E9282868B97998B908F9A948A843E
:1058880080827667695E6B676F7B828D8A8F828A7A
:10589800879089888985897873727274655F666272
:1058A8006A5F6E727B807C7F758083949297979CE9
:1058B800A4969388817D6B6968646D6578818B8A0D
:1058C8008C8E858F8E9D9499979A9A8A857F7D77FD
:1058D800625D5E616C6C81838D8A8C83767575865A
:1058E8007B84848A90898A847B7663635F57585760
:1058F8006C73827F82848A91979E979EA0A89F8FBF
:105908008A8582765F5F5C6669687B819394968AF4
:10591800898D9699938F8C968B87817D7E756E6F16
:105928006A6F667078787C717770787883858C91E7
:10593800959B8D877E7A766558585765617277880A
:105948008F8E91869295A69F9F9A9DA191897D762B
:1059580074676261616F6D848A9894938D84898578
:1059680091868F8D92958D8E88827C68635B595B5A
:1059780057676C7E7A827A7B8287938C918A928D24
:105988007F7B767877646661686C717E8897959A74
:105998008A91929B978F918E988F87827D7F756C65
:1059A800706A766D777A858C85877B8587989093E2
:1059B8009594978B847A75735B525154625E6C6EC2
:1059C8008082847E788085918589838D908A887F7E
:1059D800807E71746B706E6E7D84958D8C80888DE1
:1059E80096928B95949F958E8A878B7C6D6E626D4F
:1059F80066686E78898789848C919D928D87878A5D
:105A0800807E6F6D6C61605F6166636C6D7F7C79B1
:105A180077748087968A8F9194988F918D8F917ED5
:105A2800776F6F726E70738282837D7E87939C9985
:105A38009F9EA39D958D807F77696963676B6C7561
:105A48007C8B88887F83828B887C7F7A86817F792C
:105A5800717B776C6A616466686D707C7B7E767E2C
:105A680083919A95A09AA29E9B988E9184706D6955
:105A78006E66677277878883778C98A5A4959999BD
:105A88009A867C7B76787570736B6C6C80877A7F6E
:105A98007D7E676A6D80857C8388937E7A80786F47
:105AA800645E6F6A67627E85808D908B778499AE1D
:105AB8009A9099AF9D83828379655D64685A6384FF
:105AC8009E8E92A0A6807789A292778C9F98747AEE
