:020000040800F2
:100000000050002021020008270200082B020008EF
:100010009D020008A1020008E9020008000000009B
:100020000000000000000000000000003103000894
:10003000350300080000000039030008510A0008D9
:100040004D0300084D0300084D0300084D03000850
:100050004D0300084D0300084D0300084D03000840
:100060004D0300084D0300084D0300084D03000830
:100070004D0300084D0300084D0300084D03000820
:100080004D0300084D0300084D0300084D03000810
:100090004D0300084D0300084D0300084D03000800
:1000A0004D0300084D0300084D0300084D030008F0
:1000B0004D0300084D0300084D0300084D030008E0
:1000C0004D0300084D0300084D030008E509000832
:1000D000FD0900084D0300084D0300084D0300080A
:1000E0004D0300084D0300084D0300080000000008
:1000F0000000000000000000000000000000000000
:1001000000000000000000005FF808F100B583B0B7
:1001100000F0AAF9304B314A1360314A1360314B79
:10012000314A32498B4204D21168196004330432D7
:10013000F7E72A4B1A682E4B9A4200D0FEE7284B6D
:100140001A682C4B9A42F9D1234B2B4A13602B4A45
:1001500013602B4B02E000221A600433294A9342B9
:10016000F9D3254B1B6813B9244B1B6803B1FEE779
:1001700000F086F9694601A800F022F9224C234BD1
:10018000E41AA4100025AC4214DC214C214BE41AE3
:10019000A4100025AC4213DC0099019800F06EFD1C
:1001A00005461D4C1D4BE41AA410002C0EDC2846FD
:1001B00000F0E2F8154B53F8253098470135E2E797
:1001C000144B53F8253098470135E3E7013C134BB6
:1001D00053F824309847E8E7BABADECA0000002096
:1001E0008400002000000020E4B600088800002001
:1001F000785634123254769888000020300100205E
:1002000088000020340100207803000878030008EB
:1002100078030008780300087803000878030008D2
:1002200008B5FFF773FF00BEFEE71EF0040F0CBF1A
:10023000EFF30880EFF309807146414A10472DE93A
:10024000F04182B004468846124B5E6B9F6B9D6AFC
:100250001B6B13F0020F03D00E4BDB6A002B0CDB81
:100260000D4800F0B5F8CDF800803B4632462946EF
:10027000204600F009F900BEFEE74BF6AB6100F046
:100280007DF90028ECD0034B4FF00042DA6202B057
:10029000BDE8F08100ED00E08416000800BEFEE736
:1002A0001EF0040F0CBFEFF30880EFF309807146D6
:1002B000244A10472DE9F04182B004468846084B95
:1002C0005E6B9F6B9D6A074800F082F8CDF8008056
:1002D0003B4632462946204600F0D6F800BEFEE7EF
:1002E00000ED00E0941600081EF0040F0CBFEFF3C1
:1002F0000880EFF309807146134A10472DE9F04159
:1003000082B004468846084B5E6B9F6B9D6A074827
:1003100000F05EF8CDF800803B4632462946204684
:1003200000F0B2F800BEFEE700ED00E0A016000805
:1003300000BEFEE700BEFEE700BEFEE7704700001D
:100340003F020008B5020008FD02000800BEFEE7FB
:10035000E4B600080000002088000020E4B6000891
:100360000000000000000000880000203401002090
:08037000000000000000000085
:10037800FEE7000008B503460C4A12685AB10B4A5A
:100388001068033323F003030344094A934206D851
:10039800064A136008BD054A06491160EFE700F0F8
:1003A800AFFC0C2303604FF0FF30F3E78C00002014
:1003B800004C00203401002001230360014B0B6036
:1003C800704700BF040000200FB400B583B004AB31
:1003D80053F8042B01938021064800F0C3FC002841
:1003E80003DD0146034800F037F803B05DF804EB7D
:1003F80004B07047940000202DE9F04385B004460E
:100408000F4643560BB10E461EE0042528462146EA
:10041800ABBE0446384605B0BDE8F08314F9011BAD
:1004280004AA1A4402F8101C0133AB42F6D304AAFA
:100438001344002203F8102C4FF00408E946404604
:100448004946ABBE8046761B002EE3D03546102EBB
:1004580028BF10250023E8E708B5FFF7CDFF08BD42
:1004680008B500F0FDF8024A024B9A6008BD00BFCB
:100478000000000800ED00E008B500F019F908BD1B
:10048800F8B504460D4617461E462748FFF79CFF59
:1004980021682648FFF798FF61682548FFF794FF11
:1004A800A1682448FFF790FFE1682348FFF78CFF15
:1004B80021692248FFF788FF61692148FFF784FF17
:1004C800A1692048FFF780FFE1691F48FFF77CFF1B
:1004D8001E48FFF779FF29461D48FFF775FF1D4C99
:1004E800E16A1D48FFF770FF216B1C48FFF76CFF9E
:1004F800E16B1B48FFF768FF15F0800F0AD115F470
:10050800004F0CD11748FFF75FFF06991648FFF711
:100518005BFFF8BD39461548FFF756FFEFE7314650
:100528001348FFF751FFEDE7681500087815000834
:100538008815000898150008A8150008B8150008BF
:10054800C8150008D8150008E8150008F8150008AF
:100558000416000800ED00E0141600082416000830
:1005680034160008641600086C16000844160008C3
:100578005416000883691A888A4201D000207047FF
:100588000268033A012A03D80233836101207047C5
:100598000020704782B00023019300932C4A13680F
:1005A80043F4803313602A4B1B6803F40033009331
:1005B800019B01330193009B1BB9019BB3F5A06F0D
:1005C800F1D1234B1B6813F4003F06D0012300939D
:1005D800009B012B04D002B0704700230093F7E77B
:1005E8001C4B1A6842F010021A601A6822F00302C3
:1005F8001A601A6842F002021A60A3F580535A681A
:100608005A605A685A605A6842F480625A605A6856
:1006180022F47C125A605A6842F4E8125A601A6846
:1006280042F080721A600A4B1B6813F0007FFAD000
:10063800074B5A6822F003025A605A6842F00202D5
:100648005A60034B5B6803F00C03082BF9D1C2E72F
:10065800001002400020024008B5FFF79BFF08BDCC
:1006680008B5104B1A6842F001021A6059680E4A20
:100678000A405A601A6822F0847222F480321A60A2
:100688001A6822F480221A605A6822F4FE025A601C
:100698004FF41F029A60FFF7DFFF044B4FF0006230
:1006A8009A6008BD001002400000FFF800ED00E06D
:1006B8001F4B5B6803F00C03042B15D0082B17D0D5
:1006C8001BB11C4B1C4A1A6002E01A4B1A4A1A60EA
:1006D800174B5B68C3F30313184AD35CDAB21549A6
:1006E8000B68D3400B607047124B134A1A60EFE750
:1006F8000F4A53685268C3F38343023312F4803FAE
:100708000AD00B4A526812F4003F0BD00C4A02FB85
:1007180003F3084A1360DBE7094A02FB03F3054ABF
:100728001360D5E7044A02FB03F3024A1360CFE7DC
:10073800001002401C00002000127A000C0000206B
:1007480000093D0010B4012827D018B1022847D06D
:1007580010BC7047072912D90F29F9D8A1F108044C
:10076800E4B2314B5968A4000F20A04021EA0001EF
:100778005960586802FA04F101435960E8E72A4BC6
:10078800186889000F248C4020EA04001860186853
:1007980002FA01F101431960DAE7072912D90F2992
:1007A800D6D8A1F10800C0B2204B596880000F24A8
:1007B800844021EA040159605C6802FA00F121438F
:1007C8005960C5E7194B186889000F248C4020EA46
:1007D80004001860186802FA01F101431960B7E7CC
:1007E800072912D90F29B3D8A1F10803DBB21048A1
:1007F80041689B000F249C4021EA04014160446841
:1008080002FA03F121434160A2E7094B1868890005
:100818000F248C4020EA04001860186802FA01F1DD
:100828000143196094E700BF00080140000C014033
:1008380000100140012813D010B102281FD07047C2
:1008480012B1012A06D07047012303FA01F1134BB4
:1008580059617047012303FA01F1104B1961704780
:100868003AB1012AEFD1012303FA01F10C4B1961C6
:100878007047012303FA01F1094B596170473AB1F6
:10088800012AE0D1012303FA01F1064B1961DAE7E5
:10089800012303FA01F1034B596170470008014035
:1008A800000C014000100140012809D010B10228B5
:1008B8000CD07047012303FA01F1074B1961704707
:1008C800012303FA01F1054B19617047012303FA6B
:1008D80001F1034B1961704700080140000C014009
:1008E80000100140012809D010B102280CD070472F
:1008F800012303FA01F1074B59617047012303FAF9
:1009080001F1054B59617047012303FA01F1034BCB
:100918005961704700080140000C01400010014077
:10092800034B4FF480321A60043301221A60704777
:10093800001002401F291CD801280BD010B1022832
:1009480010D070470B480368012202FA01F11943DD
:100958000160704708480368012202FA01F119434F
:100968000160704705480368012202FA01F1194342
:1009780001607047141002401C1002401810024019
:10098800084B002119601A6842F4417242F00302D0
:100998001A6059605A685A601A6842F040021A6030
:1009A800704700BF0030014038B505460C460022AC
:1009B80011461046FFF73EFF074BDD60064B9B686C
:1009C80013F0800FFAD1044BDB6823700122002159
:1009D8000846FFF72FFF38BD0030014008B5034B2C
:1009E800D868034B1B68C0B2984708BD0030014067
:1009F8001401002008B5034BD868034B1B68C0B22C
:100A0800984708BD0038004018010020014B00221B
:100A18001A60704710E000E00A4B58601A6842F00C
:100A280001021A60074B1B6813F4803FFAD0054B8C
:100A38001A681A6822F001021A6000229A605A6045
:100A4800704700BF10E000E008B50A4B1B785BB99F
:100A5800094B1A6822F002021A601A6822F0010291
:100A68001A6000225A609A60044B1B689847024B30
:100A78001B6808BD2C01002010E000E01C010020CC
:100A880030B583B00546002002AC04F8010D012101
:100A9800FFF70AFF21462846FFF786FF03B030BD5F
:100AA80030B583B00546002002AC04F8010D0121E1
:100AB800FFF718FF21462846FFF776FF03B030BD41
:100AC80008B502210020FFF7EFFE6420FFF7A4FF1E
:100AD80002210020FFF706FF0120FFF79DFF0221FA
:100AE8000020FFF7E1FE6420FFF796FF02210020B7
:100AF800FFF7F8FE6420FFF78FFF02210020FFF7C1
:100B0800D3FE0948FFF788FF1120FFF7C9FF074800
:100B1800FFF782FF3A20FFF7C3FF0520FFF7B0FF7A
:100B28002920FFF7BDFF08BDC0D40100F04902002D
:100B380038B505462A20FFF7B3FF0020FFF7A0FFCE
:100B48000020FFF79DFF0020FFF79AFF7F20FFF7A7
:100B580097FF2B20FFF7A4FF0020FFF791FF00204D
:100B6800FFF78EFF0020FFF78BFF9F20FFF788FF1E
:100B78002C20FFF795FF00240AE035F81400000A3E
:100B8800FFF77EFF15F81400FFF77AFF0134A4B2CF
:100B9800B4F5A04FF1D338BD38B505462A20FFF784
:100BA8007FFF0020FFF76CFF0020FFF769FF0020A0
:100BB800FFF766FF7F20FFF763FF2B20FFF770FF2B
:100BC8000020FFF75DFF0020FFF75AFF0020FFF726
:100BD80057FF9F20FFF754FF2C20FFF761FF0024E9
:100BE80007E0280AFFF74CFFE8B2FFF749FF013496
:100BF800A4B2B4F5A04FF4D338BD2DE9F84381462B
:100C0800884617461C46BDF820500E1A9B1A06FB4C
:100C180003F6B6B22A20FFF743FF0020FFF730FFA4
:100C28004846FFF72DFF0020FFF72AFF4046FFF751
:100C380027FF2B20FFF734FF0020FFF721FF38465E
:100C4800FFF71EFF0020FFF71BFF2046FFF718FFE6
:100C58002C20FFF725FF002407E0280AFFF710FFE4
:100C6800E8B2FFF70DFF0134A4B2B442F5D3BDE8F2
:100C7800F883000000B583B0FFF752FE0221084652
:100C8800FFF758FE0C210220FFF754FE0222012133
:100C98000020FFF757FD022211460020FFF752FD02
:100CA800092205210020FFF74DFD09220721002018
:100CB800FFF748FDFFF7AAFEFFF762FEFFF700FF08
:100CC8000C48FFF735FF0C4C2046FFF7A5FE4FF602
:100CD800FF70FFF761FF0948FFF79EFE00200090B4
:100CE800282302461421FFF788FF2046FFF794FEC9
:100CF800E6E700BFB016000840420F00C0C62D004E
:100D0800014B1868704700BF2000002030B5141E42
:100D180005469BB0184605DA8B234FF0FF302B6051
:100D28001BB030BD4FF40273ADF80C300CBF234636
:100D380004F1FF33029305934FF6FF73009104917A
:100D4800ADF80E3002461E9B6946284600F072F840
:100D5800431CBCBF8B232B60002CE1D00022009BDE
:100D68001A70DDE707B5009313460A4601460348A3
:100D78000068FFF7CBFF03B05DF804FB20000020FC
:100D88002DE9F0478E6882469E420C469046994669
:100D980037D88A8912F4906F31D0022325680969FF
:100DA8006F1A656905EB450595FBF3F509F1010334
:100DB8003B449D4238BF1D46530530D5294600F0B7
:100DC80035FB064650B90C234FF0FF30CAF8003007
:100DD800A38943F04003A381BDE8F0873A4621691F
:100DE80000F0B4FAA38923F4906343F08003A3814D
:100DF80026613E4426604E466561ED1BA5604E4562
:100E080000D94E4632464146206800F0AAFAA36847
:100E180000209B1BA36023681E442660DCE72A464B
:100E280000F05EFB06460028E2D12169504600F03A
:100E3800B1FAC8E72DE9F04F9DB003938B8980463E
:100E48001D060C4616460FD50B696BB9402100F0FC
:100E5800EDFA2060206128B90C23C8F800304FF063
:100E6800FF30C7E0402363610023099320238DF8F6
:100E7800293030234FF0010B8DF82A3037463D4694
:100E880015F8013B0BB1252B3ED1B7EB060A0BD069
:100E98005346324621464046FFF772FF013000F0C4
:100EA800A480099B534409933B78002B00F09D8054
:100EB80000234FF0FF32CDE90523049307938DF803
:100EC80053301A932F46052217F8011B4F4800F09C
:100ED8002FFA049BD0B9D90644BF20228DF853209D
:100EE8001A0744BF2B228DF853202A782A2A15D0B6
:100EF8002F4600200A25079A394611F8013B303B56
:100F0800092B4DD9B8B10FE02F46B8E73F4A3D4607
:100F1800801A0BFA00F018430490D3E7039A111DC6
:100F280012680391002A01DB079204E0524243F061
:100F38000203079204933B782E2B0CD17B782A2B43
:100F480033D1039B02371A1D1B680392002BB8BFCD
:100F58004FF0FF3305932E4D03223978284600F0D1
:100F6800E7F938B14023401B03FA00F0049B01372E
:100F7800034304933978062226487E1C8DF82810EE
:100F880000F0D6F9002838D0234B13BB039B073356
:100F980023F0070308330393099B4B4409936DE738
:100FA80005FB023201200F46A6E700230A25194651
:100FB80001370593384610F8012B303A092A03D92E
:100FC800002BC8D00591C6E705FB01210123074680
:100FD800F0E703AB00932246104B04A94046AFF359
:100FE8000080B0F1FF3F8146D6D1A3895B063FF56B
:100FF80036AF09981DB0BDE8F08F03AB00932246C9
:10100800064B04A9404600F081F8EAE7B0B60008AC
:10101800B6B60008BAB6000800000000890D00083E
:101028002DE9F04791461F468A680B6906469342A8
:10103800B8BF1346C9F8003091F843200C46DDF8D4
:10104800208012B10133C9F800302368990642BFE5
:10105800D9F800300233C9F80030256815F00605C4
:1010680007D104F1190AE368D9F800209B1AAB42AA
:1010780029DC94F843302268003318BF0123920614
:101088002ED404F1430239463046C047013021D0FE
:101098002368E56803F00603042B18BF0025D9F878
:1010A80000204FF0000908BFAD1AA368226908BFE5
:1010B80025EAE5759342C4BF9B1AED181A344D45CD
:1010C8001AD1002008E00123524639463046C0476D
:1010D800013003D14FF0FF30BDE8F0870135C2E79A
:1010E8003020E11881F843005A1C94F84510224436
:1010F800023382F84310C4E70123224639463046BA
:10110800C0470130E6D009F10109D8E72DE9F043DD
:1011180001F1430C0C46097E85B06E291746064638
:1011280098460C9A00F0B38022D8632936D00AD8A2
:10113800002900F0B980582900F0838004F14205A5
:1011480084F8421032E0642901D06929F6D1206878
:101158001368050603F104012AD51B681160002BEA
:1011680003DA2D225B4284F843206F480A2239E0D3
:10117800732900F09D8008D86F2920D07029DDD10F
:10118800236843F02003236003E0752917D07829EA
:10119800D4D17823654884F8453055E0136804F1C4
:1011A8004205191D1B68116084F8423001238CE048
:1011B8001B6810F0400F116018BF1BB2CFE713680F
:1011C8002568181D1060280601D51B6802E068060E
:1011D800FBD51B886F2914BF0A2208225248002118
:1011E80084F843106568002DA560C0F295802168D9
:1011F80021F004012160002B3DD1002D40F08E80AC
:101208006546082A0BD12368DB0708D5236962687D
:101218009A42DEBF302305F8013C05F1FF35ACEBFF
:1012280005032361CDF800803B4603AA21463046DA
:10123800FFF7F6FE01304DD14FF0FF3005B0BDE8A5
:10124800F083394884F84510136821681D1D1B6810
:1012580015600A060BD5CA0744BF41F0200121607A
:101268001BB9226822F0200222601022B7E74D063F
:1012780048BF9BB2EFE76546B3FBF2F102FB1133BF
:10128800C35C05F8013D0B460029F5D1B9E71368A1
:101298002568181D6169106028061B6801D519604A
:1012A80002E06A06FBD51980002365462361B9E789
:1012B8001368191D11601D6862680021284600F036
:1012C80037F808B1401B606063682361002384F825
:1012D8004330A7E723692A4639463046C0470130DC
:1012E800AAD023689B0713D4E068039B9842B8BF31
:1012F8001846A3E701234A4639463046C04701301D
:101308009AD00135E368039A9B1AAB42F2DCEBE70B
:10131800002504F11909F5E7002BACD1037804F195
:10132800420584F842306CE7C1B60008D2B600081E
:1013380010B5C9B202449042034601D1002303E02C
:101348001C7801308C42F6D1184610BD10B5431EEA
:101358000A44914200D110BD11F8014B03F8014F26
:10136800F7E7884210B501EB020307D8421E9942FD
:101378000AD011F8014B02F8014FF8E78342F5D97A
:101388008118D21AD34200D110BD13F8014D01F8CB
:10139800014DF7E738B50546002943D051F8043C1C
:1013A8000C1F002BB8BFE41800F0D0F81E4A1368D1
:1013B800104633B9636014602846BDE8384000F031
:1013C800C6B8A3420BD921686218934201BF1A68B4
:1013D8005B685218226063600460EDE713465A6840
:1013E8000AB1A242FAD919685818A0420BD120684C
:1013F8000144581882421960DED1106852680144CD
:1014080019605A60D8E702D90C232B60D4E720680A
:1014180021188A4201BF1168526809182160626068
:101428005C60C9E738BD00BF2001002070B5CD1C45
:1014380025F0030508350C2D38BF0C25002D064670
:1014480001DBA94203D90C233360002070BD00F0F2
:101458007DF8214A1468214691B9204C23681BB9AC
:10146800304600F063F820602946304600F05EF808
:10147800431C24D10C233046336000F068F8E4E7BD
:101488000B685B1B18D40B2B0FD90B60CC18CD50F5
:10149800304600F05CF804F10B00231D20F0070033
:1014A800C31AD3D05A42E250D0E74B688C4216BFD9
:1014B800636013600C46EBE70C464968CCE7C41C34
:1014C80024F00304A04205D0211A304600F02EF87B
:1014D8000130CFD02560DBE7200100202401002067
:1014E800F8B5074614460E4621B9BDE8F84011463E
:1014F800FFF79CBF22B9FFF74DFF25462846F8BDE8
:1015080000F026F8A0420FD221463846FFF78EFF9A
:1015180005460028F2D031462246FFF717FF31462C
:101528003846FFF737FFE9E73546E7E738B50023E0
:10153800054C054608462360FEF71CFF431C02D1F4
:10154800236803B12B6038BD28010020704770471D
:1015580051F8043C181F002BBCBF0B58C01870472B
:10156800537461636B206672616D653A0A0000000E
:10157800205230203D2020253038580A0000000035
:10158800205231203D2020253038580A0000000024
:10159800205232203D2020253038580A0000000013
:1015A800205233203D2020253038580A0000000002
:1015B80020523132203D20253038580A00000000E2
:1015C800204C52203D2020253038580A00000000C9
:1015D800205043203D2020253038580A00000000C4
:1015E80020505352203D20253038580A0000000072
:1015F8004653522F4641523A0A00000020434653B0
:1016080052203D2020253038580A000020484653F3
:1016180052203D2020253038580A000020444653E7
:1016280052203D2020253038580A000020414653DA
:1016380052203D2020253038580A0000204D4D46C4
:101648004152203D20253038580A000020424641AA
:1016580052203D2020253038580A00004D69736318
:101668000A000000204C522F4558435F52455455FC
:10167800524E3D20253038580A0000005B48617200
:10168800644661756C745D0A000000005B42757306
:101698004661756C745D0A005B55736167654661E8
:1016A800756C745D0A000000FFFFFFFFFFFFFFFF7E
:1016B800FFFFFFFFFFFFFFFFFFFFFFFFFFFFFFFF32
:1016C800FFFFFFFFFFFFFFFFFFFFFFFFFFFFFFFF22
:1016D800FFFFFFFFFFFFFFFFFFFFFFFFFFFFFFFF12
:1016E800FFFFFFFFFFFFFFFFFFFFFFFFFFFFFEFF03
:1016F800FEFFFEFFFEFFFFFFFFFFDFF7FFFFFFFF1D
:10170800FEFFFFFFDFFFDFFFBFFF9FFFDFFFFDFFE4
:1017180016EFCEC5E8AC65944AB570DE97FFFBFFBF
:10172800FEFFDFFFDFFFBFFFBFFFFFFFFFFFFEFF83
:10173800FFFFFFFFFDFFFDFFFFFFFFFFFFFFFFFFB5
:10174800FFFFFFFFFFFFFFFFDFFFDFFFFFFFFFFFE1
:10175800FFFFFFFFFFFFFFFFFFFFDFFFDFFFFFFFD1
:10176800FFFFFEFFFEFFFEF7FFFFFFFFFFFFFFFF8C
:10177800FFFFFFFFFFFFFFFFFFFFFFFFFFFFFFFF71
:10178800FFFFFFFFFFFFFFFFFFFFFFFFFFFFFFFF61
:10179800FFFFFFFFFFFFFFFFFFFFFFFFFFFFFFFF51
:1017A800FFFFFFFFFFFFFFFFFFFFFFFFFFFFFFFF41
:1017B800FFFFFFFFFFFFFFFFFFFFFFFFFFFFFFFF31
:1017C800FFFFFFFFFFFFFFFFFFFFFFFFFFFFFFFF21
:1017D800FFFFFFFFFFFFFFFFFFFFFFFFFFFFFFFF11
:1017E800FFFFFFFFFFFFFFFFFFFFFFFFFFFFFFFF01
:1017F800FEFFFEFFFFFFFFFFFFFFBFF7FFFFFFFF3B
:10180800FFFFFFFFFFFFBFFFFDFFFCFF94D6EA9C31
:10181800C69CE4A4C29C03A5E3A4A49CA69CC89C63
:101828004CAD11C657EFFBFFFEFFFFFFBFFFFFFFE9
:10183800FFFFFFFFFFFFFEFFFEFFFFFFFFFFFFFFB2
:10184800FFFFFEFFFFFFFFFFDFFFFFFFFFFFFFFFC1
:10185800FFFFFFFFFFFFFFFFFFFFFFFFFFFFFFFF90
:10186800FFFFFFFFFFFFFFFFFFFFFFFFFFFFFFFF80
:10187800FFFFFFFFFFFFFFFFFFFFFFFFFFFFFFFF70
:10188800FFFFFFFFFFFFFFFFFFFFFFFFFFFFFFFF60
:10189800FFFFFFFFFFFFFFFFFFFFFFFFFFFFFFFF50
:1018A800FFFFFFFFFFFFFFFFFFFFFFFFFFFFFFFF40
:1018B800FFFFFFFFFFFFFFFFFFFFFFFFFFFFFFFF30
:1018C800FFFFFFFFFFFFFFFFFFFFFFFFFFFFFFFF20
:1018D800FFFFFFFFFFFFFFFFFFFFFFFFFFFFFFFF10
:1018E800FFFFFFFFFFFFFFFFFFFFFFFFFFFFFFFF00
:1018F800FFFFFFFFFFFFFFFFFFFFFFFFDFF7FFFF18
:10190800FFFFFFFFFEFFFDFFD2F7A9ADC49464AD52
:1019180061AD60AD80B540AD80B540AD41A563AD6A
:1019280024A5E394C494259DB1D6FBFFFFFFDFFFF8
:10193800FFFFDFFFFFFFFFFFFFFFFFFFFFFFFFFFCF
:10194800FEFFFDFFFFFFFFFFFFFFFFFFFFFFFFFFA2
:10195800FFFFFFFFFFFFFFFFFFFFFEFFFEFFFFFF91
:10196800FFFFFFFFFFFFFFFFFFFFFFFFFFFFFFFF7F
:10197800FFFFFFFFFFFFFFFFFFFFFFFFFFFFFFFF6F
:10198800FFFFFFFFFFFFFFFFFFFFFFFFFFFFFFFF5F
:10199800FFFFFFFFFFFFFFFFFFFFFFFFFFFFFFFF4F
:1019A800FFFFFFFFFFFFFFFFFFFFFFFFFFFFFFFF3F
:1019B800FFFFFFFFFFFFFFFFFFFFFFFFFFFFFFFF2F
:1019C800FFFFFFFFFFFFFFFFFFFFFFFFFFFFFFFF1F
:1019D800FFFFFFFFFFFFFFFFFFFFFFFFFFFFFFFF0F
:1019E800FFFFFFFFFFFFFFFFFFFFFFFFFFFFFFFFFF
:1019F800FFFFFFFFFFFFFFFFFFFFFFFFFFFFFFFFEF
:101A0800FFFFFDFFFBFFF3DE019DA3AD81AD60A5E8
:101A1800A0AD60AD20A580B540AD40AD40AD60AD96
:101A280060AD60A560A580A5E49429A578EFFFFFC7
:101A3800DFFFFFFFDFFFDFFFFFFFFFFFFEFFFDFF11
:101A4800FEFFFFFFFFFFFFFFFFFFFFFFFFFFFFFF9F
:101A5800FFFFFFFFFFFFFFFFFFFFFEFFFEFFFFFF90
:101A6800FFFFFFFFFFFFFFFFFFFFFFFFFFFFFFFF7E
:101A7800FFFFFFFFFFFFFFFFFFFFFFFFFFFFFFFF6E
:101A8800FFFFFFFFFFFFFFFFFFFFFFFFFFFFFFFF5E
:101A9800FFFFFFFFFFFFFFFFFFFFFFFFFFFFFFFF4E
:101AA800FFFFFFFFFFFFFFFFFFFFFFFFFFFFFFFF3E
:101AB800FFFFFFFFFFFFFFFFFFFFFFFFFFFFFFFF2E
:101AC800FFFFFFFFFFFFFFFFFFFFFFFFFFFFFFFF1E
:101AD800FFFFFFFFFFFFFFFFFFFFFFFFFFFFFFFF0E
:101AE800FFFFFFFFFFFFFFFFFFFFFFFFFFFFFFFFFE
:101AF800FFFFFFFFFFFFFFFFFFFFFFFFDEFFFFFF0F
:101B0800DFFFFCFFD1DE26A5C2B5A1ADA1B580AD32
:101B180060AD60AD80B560AD60AD60B560AD40AD45
:101B280040A560AD60A560A562A563ADA594F5E686
:101B3800BFFFDFFFFFFFFFFFFFFFFFFFFEFFFDFF10
:101B4800FFFFFFFFFFFFFEFFFFFFFFFFFFFFFFFF9E
:101B5800FFFFFFFFFFFFFFFFFFFFFFFFFFFFFFFF8D
:101B6800FFFFFFFFFFFFFFFFFFFFFFFFFFFFFFFF7D
:101B7800FFFFFFFFFFFFFFFFFFFFFFFFFFFFFFFF6D
:101B8800FFFFFFFFFFFFFFFFFFFFFFFFFFFFFFFF5D
:101B9800FFFFFFFFFFFFFFFFFFFFFFFFFFFFFFFF4D
:101BA800FFFFFFFFFFFFFFFFFFFFFFFFFFFFFFFF3D
:101BB800FFFFFFFFFFFFFFFFFFFFFFFFFFFFFFFF2D
:101BC800FFFFFFFFFFFFFFFFFFFFFFFFFFFFFFFF1D
:101BD800FFFFFFFFFFFFFFFFFFFFFFFFFFFFFFFF0D
:101BE800FFFFFFFFFFFFFFFFFEFFFFFFFFFFFFFFFE
:101BF800FFFFFFFFFFFFFFFFFFFFFFFFFFFFDEFF0E
:101C0800FDFF56EFE69CA4ADA2B581B580B560ADE9
:101C180040AD80B580B540AD40AD40AD40AD41ADC3
:101C280060AD60AD60AD80AD60AD40A542A5C69C1D
:101C3800D4DE9CFFFFFF9FF7FFFFFFFFFFFFFFFFC3
:101C4800FFFFFFFFFFFFFFFFFFFFFFFFFFFFFFFF9C
:101C5800FFFFFFFFFFFFFFFFFFFFFFFFFFFFFFFF8C
:101C6800FFFFFFFFFFFFDFFFFFFFFFFFFFFFFFFF9C
:101C7800FFFFFFFFFFFFFFFFFFFFFFFFFFFFFFFF6C
:101C8800FFFFFFFFFFFFFFFFFFFFFFFFFFFFFFFF5C
:101C9800FFFFFFFFFFFFFFFFFFFFFFFFFFFFFFFF4C
:101CA800FFFFFFFFFFFFFFFFFFFFFFFFFFFFFFFF3C
:101CB800FFFFFFFFFFFFFFFFFFFFFFFFFFFFFFFF2C
:101CC800FFFFFFFFFFFFFFFFFFFFFFFFFFFFFFFF1C
:101CD800FFFFFFFFFFFFFFFFFFFFFFFFFFFFFFFF0C
:101CE800FFFFFFFFFFFFFFFFFEFFFFFFFFFFFFFFFD
:101CF800FFFFFFFFFFFFFFFFFFFFFFFFBEFFFEFF2E
:101D0800DAFF09A569CE03BEC2BDA2BD80B580B504
:101D1800A1B580B560AD60B560AD60AD61AD61B5D0
:101D280060AD40AD40AD40AD60AD60AD62AD62AD9F
:101D3800828CD2DEFEFFFFFFFFFFFFFFFFFFFFFFEA
:101D4800FFFFFFFFFFFFFFFFFFFFFFFFFFFFDFFFBB
:101D5800DFFFDFFFFFFFFFFFFFFFFFFFFFFFFFFFCB
:101D6800FEFFFEFFFFFFDFFFFFFFFFFFFFFFFFFF9D
:101D7800FFFFFFFFFFFFFFFFFFFFFFFFFFFFFFFF6B
:101D8800FFFFFFFFFFFFFFFFFFFFFFFFFFFFFFFF5B
:101D9800FFFFFFFFFFFFFFFFFFFFFFFFFFFFFFFF4B
:101DA800FFFFFFFFFFFFFFFFFFFFFFFFFFFFFFFF3B
:101DB800FFFFFFFFFFFFFFFFFFFFFFFFFFFFFFFF2B
:101DC800FFFFFFFFFFFFFFFFFFFFFFFFFFFFFFFF1B
:101DD800FFFFFFFFFFFFFFFFFFFFFFFFFFFFFFFF0B
:101DE800FFFFFFFFFFFFFFFFFFFFFFFFFFFFFFFFFB
:101DF800FFFFFFFFFFFFFFFFFFFFFFFFFFFFFCFFEE
:101E08002FC629C645C622C6C2BDA2BDA1BDA1B561
:101E180080B580AD80B580AD80AD80AD60AD40ADA2
:101E280040AD60B560B560AD80B540AD21AD60AD89
:101E380060A5E39472CEFEFFFFFFFFFFFFFFFFFFE9
:101E4800FFFFFFFFFFFFFFFFFEFFFFFFFFFFDFFFBB
:101E5800DFFFDEFFFEFFFFFFFFFFFFFFFFFFFFFFCC
:101E6800FEFFFFFFFFFFDFFFFFFFFFFFFFFFFFFF9B
:101E7800FFFFFFFFFFFFFFFFFFFFFFFFFFFFFFFF6A
:101E8800FFFFFFFFFFFFFFFFFFFFFFFFFFFFFFFF5A
:101E9800FFFFFFFFFFFFFFFFFFFFFFFFFFFFFFFF4A
:101EA800FFFFFFFFFFFFFFFFFFFFFFFFFFFFFFFF3A
:101EB800FFFFFFFFFFFFFFFFFFFFFFFFFFFFFFFF2A
:101EC800FFFFFFFFFFFFFFFFFFFFFFFFFFFFFFFF1A
:101ED800FFFFFFFFFFFFFFFFFFFFFFFFFFFFFFFF0A
:101EE800FFFFFFFFFFFFFFFFFFFFFFFFFFFFFFFFFA
:101EF800FFFFFFFFFFFFFFFFFFFFDFFFFFFFB9FF50
:101F0800CABDC8D643C643CEE3C5C3BDA2BDA1BDA5
:101F1800A1B5A0B5A0B5A0ADA1ADA1B580AD60AD8E
:101F280060AD60AD60AD40AD60B540AD62B500A5D7
:101F380080AD60A5C394F3DEFFFFDFFFFFFFFFFF67
:101F4800FFFFFFFFFFFFFFFFFEFFDEFFDFFFFDFFDD
:101F580098FF14EF97FFFDFFFFFFFFFFFFFFFFFF55
:101F6800FFFFFFFFDEFFFDFFFFFFFFFFFFFFFFFF9C
:101F7800FFFFFFFFFFFFFFFFFFFFFFFFFFFFFFFF69
:101F8800FFFFFFFFFFFFFFFFFFFFFFFFFFFFFFFF59
:101F9800FFFFFFFFFFFFFFFFFFFFFFFFFFFFFFFF49
:101FA800FFFFFFFFFFFFFFFFFFFFFFFFFFFFFFFF39
:101FB800FFFFFFFFFFFFFFFFFFFFFFFFFFFFFFFF29
:101FC800FFFFFFFFFFFFFFFFFFFFFFFFFFFFFFFF19
:101FD800FFFFFFFFFFFFFFFFFFFFFFFFFFFFFFFF09
:101FE800FFFFFFFFFFFFFFFFFFFFFFFFFFFFFFFFF9
:101FF800FFFFFFFFFFFFFFFFFFFFDFFFDFFFF4DE55
:1020080089CE25DF83D644CE24C603C6E2BDE2BD11
:10201800E2BDC1B5C1B5C1B5C1B5A1B5A1B5A1B53F
:1020280080B580B580B560B521B520AD81B541AD2D
:1020380041ADA0AD409DE494F7E6DFFFFFFFFDFF53
:10204800FEFFFFFFFFFFFEFFFFFFFDFF17EF4CB591
:10205800659C47B549B50CB5B5DEFDFFFFFFBFF779
:10206800FFFFFFFFFEFFFCFFFFFFFFFFFFFFFFFF7C
:10207800FFFFFFFFFFFFFFFFFFFFFFFFFFFFFFFF68
:10208800FFFFFFFFFFFFFFFFFFFFFFFFFFFFFFFF58
:10209800FFFFFFFFFFFFFFFFFFFFFFFFFFFFFFFF48
:1020A800FFFFFFFFFFFFFFFFFFFFFFFFFFFFFFFF38
:1020B800FFFFFFFFFFFFFFFFFFFFFFFFFFFFFFFF28
:1020C800FFFFFFFFFFFFFFFFFFFFFFFFFFFFFFFF18
:1020D800FFFFFFFFFFFFFFFFFFFFFFFFFFFFFFFF08
:1020E800FFFFFFFFFFFFFFFFFFFFFFFFFEFFFFFFF9
:1020F800FFFFFFFFFFFFFEFFFFFFDFFFFFFF2FC612
:102108006AE744E7E4DE66D663CE22C622C602BE8C
:1021180002BE02BEE1BD01B6E1B5E1B5C1B5C0B5CB
:10212800C0B5A0B5A0B580B562B540AD40AD61AD54
:1021380020A580ADE0B5409D089D7AF7BEFFFEFF63
:10214800FEFFFFFFFFFFFFFFDFFF53D607A5C6C552
:1021580024B5CBEECBEE4AD669B50DAD9CFFDFFFBB
:10216800DFFFFFFFFDFFFDFFFFFFFFFFFFFFFFFF9B
:10217800FFFFFFFFFFFFFFFFFFFFFFFFFFFFFFFF67
:10218800FFFFFFFFFFFFFFFFFFFFFFFFFFFFFFFF57
:10219800FFFFFFFFFFFFFFFFFFFFFFFFFFFFFFFF47
:1021A800FFFFFFFFFFFFFFFFFFFFFFFFFFFFFFFF37
:1021B800FFFFFFFFFFFFFFFFFFFFFFFFFFFFFFFF27
:1021C800FFFFFFFFFFFFFFFFFFFFFFFFFFFFFFFF17
:1021D800FFFFFFFFFFFFFFFFFFFFFFFFFFFFFFFF07
:1021E800FFFFFFFFFFFFFFFFFFFFFFFFFEFFFFFFF8
:1021F800FFFFFFFFFFFFFFFFFFFFDFFFFEFF0EC632
:10220800CAF764E725E7A8DEA3D683CE62CE42C626
:1022180042C622BE22BE22BE22BE22BE02BEE1BDF0
:10222800E1BDE0BDC0B5A0B581B580B540AD80B514
:1022380060AD00A560A5A0AD40A508A5FDFFDFFF26
:10224800DFFFFDFFFFFFDFFF73DE28AD88D624CE5A
:10225800A4C569E6CAF6C9EEE6CDA9C5ECAC19EF86
:10226800FEFFDEFFFEFFFFFFFFFFFFFFFFFFFFFF99
:10227800FFFFFFFFFFFFFFFFFFFFFFFFFFFFFFFF66
:10228800FFFFFFFFFFFFFFFFFFFFFFFFFFFFFFFF56
:10229800FFFFFFFFFFFFFFFFFFFFFFFFFFFFFFFF46
:1022A800FFFFFFFFFFFFFFFFFFFFFFFFFFFFFFFF36
:1022B800FFFFFFFFFFFFFFFFFFFFFFFFFFFFFFFF26
:1022C800FFFFFFFFFFFFFFFFFFFFFFFFFFFFFFFF16
:1022D800FFFFFFFFFFFFFFFFFFFFFFFFFFFFFFFF06
:1022E800FFFFFFFFFFFFFFFFFFFFFFFFFEFFFFFFF7
:1022F800FFFFFFFFFFFFFFFFFFFFFFFFDDFF8ECEAA
:10230800EBF785EF46EFE9E6E5DEC4D684CE84CE6A
:1023180064CE44CE44CE64C664C644CE43C623C607
:1023280022C622BEE1BDC0B580ADA0B580AD40AD2E
:1023380080B541AD20A560ADC0AD029D12CEBFFFF6
:10234800DFFFFDFFBCF7BFF723A527C687D6C4C5A7
:1023580063BD89EECAF689EEC8F605D625BDA9ACD7
:102368009AFFFFFFDFFFFFFFFFFFFFFFFFFFFFFFFA
:10237800FFFFFFFFFFFFFFFFFFFFFFFFFFFFFFFF65
:10238800FFFFFFFFFFFFFFFFFFFFFFFFFFFFFFFF55
:10239800FFFFFFFFFFFFFFFFFFFFFFFFFFFFFFFF45
:1023A800FFFFFFFFFFFFFFFFFFFFFFFFFFFFFFFF35
:1023B800FFFFFFFFFFFFFFFFFFFFFFFFFFFFFFFF25
:1023C800FFFFFFFFFFFFFFFFFFFFFFFFFFFFFFFF15
:1023D800FFFFFFFFFFFFFFFFFFFFFFFFFFFFFFFF05
:1023E800FFFFFFFFFFFFFFFFFFFFFFFFFEFFFFFFF6
:1023F800FFFFFFFFFFFFFFFFFFFFDEFF99F7CFD6CD
:10240800ECF7E8F768F729EF07E7E6DEC6D6A6D6C1
:10241800A6D686D686D686D685D685D685D665CEE0
:1024280064CE44C603C6E2BDC1B580ADA0AD60A50B
:1024380040AD62B561B580B560A5C2B566947AFF56
:10244800BEFFDEFFFDFF35C6C0AD02BEC9DE85BDDD
:1024580063BD67E6AAF60CFF48EEE4DDA2CD25BD14
:102468002DB5DEFFFFFFDFFFFFFFFFFFFFFFFFFFD1
:10247800FFFFFFFFFFFFFFFFFFFFFFFFFFFFFFFF64
:10248800FFFFFFFFFFFFFFFFFFFFFFFFFFFFFFFF54
:10249800FFFFFFFFFFFFFFFFFFFFFFFFFFFFFFFF44
:1024A800FFFFFFFFFFFFFFFFFFFFFFFFFFFFFFFF34
:1024B800FFFFFFFFFFFFFFFFFFFFFFFFFFFFFFFF24
:1024C800FFFFFFFFFFFFFFFFFFFFFFFFFFFFFFFF14
:1024D800FFFFFFFFFFFFFFFFFFFFFFFFFFFFFFFF04
:1024E800FFFFFFFFFFFFFFFFFFFFFFFFFFFFFFFFF4
:1024F800FFFFFFFFFFFFFFFFFFFFFDFF78EFCED6D7
:10250800EDFFEAFFA9FF6AF749EF28E707DFE7DEF3
:10251800C7DEC7DEC7DEC6DEC6DEE6DEE6DEE6DE30
:10252800C6D685CE24C6E3BDC1B560A5A0ADA0B50D
:1025380040AD40AD20AD40AD20A5A1B564AD6CB5B2
:10254800FDFFFFFFFCFF4CA520BE82CE66CE07CE66
:10255800E3AC27DECAFEAAFECAFE28F685DD25C53D
:10256800A7AC94E6FEFFDFFFFFFFFFFFFFFFFFFFC3
:10257800FFFFFFFFFFFFFFFFFFFFFFFFFFFFFFFF63
:10258800FFFFFFFFFFFFFFFFFFFFFFFFFFFFFFFF53
:10259800FFFFFFFFFFFFFFFFFFFFFFFFFFFFFFFF43
:1025A800FFFFFFFFFFFFFFFFFFFFFFFFFFFFFFFF33
:1025B800FFFFFFFFFFFFFFFFFFFFFFFFFFFFFFFF23
:1025C800FFFFFFFFFFFFFFFFFFFFFFFFFFFFFFFF13
:1025D800FFFFFFFFFFFFFFFFFFFFFFFFFFFFFFFF03
:1025E800FFFFFFFFFFFFFFFFFFFFFFFFFFFFFFFFF3
:1025F800FFFFFFFFFFFFFFFFFFFFFDFFB8F7AED6AE
:10260800EEFFCAFFCAFFABFFAAF789EF48EF28E73A
:1026180028E727E727E727E726E747EF47EF47E7D2
:1026280027E7C6DE65CE03BEC1ADA2B561AD41AD3B
:1026380080B580B580B561B582B560AD81ADE6A4E1
:102648007AF7BFFFB9F7079500B682CEE6DE06C671
:1026580005B5C7D5A9FE09FFCAFE0AFE6AE528CD59
:10266800E5B4E8ACDAFFFFFFFFFFFFFFFFFFFFFF66
:10267800FFFFFFFFFFFFFFFFFFFFFFFFFFFFFFFF62
:10268800FFFFFFFFFFFFFFFFFFFFFFFFFFFFFFFF52
:10269800FFFFFFFFFFFFFFFFFFFFFFFFFFFFFFFF42
:1026A800FFFFFFFFFFFFFFFFFFFFFFFFFFFFFFFF32
:1026B800FFFFFFFFFFFFFFFFFFFFFFFFFFFFFFFF22
:1026C800FFFFFFFFFFFFFFFFFFFFFFFFFFFFFFFF12
:1026D800FFFFFFFFFFFFFFFFFFFFFFFFFFFFFFFF02
:1026E800FFFFFFFFFFFFFFFFFEFFFFFFFFFFFFFFF3
:1026F800FFFFFFFFFFFFFFFFFFFFFEFFDAFF90D6A0
:10270800F1FFEDFFCBFFEBFFCCFFABFF8AF789EFC3
:1027180068EF68EF88EF88EF48EF89F78AF789F75D
:1027280028EFE7E664D6C2BD83C501AD41AD80ADF3
:10273800A0ADC0B580B562B541B5A0B5C0B544A5DA
:1027480033CEFFFFD4DE45A505C6A5D6C3D6A4D68D
:1027580001ADA7CDAAEE2AF74AF7C9EEE8E545DDAF
:10276800A3CC65BC72EEDCFFFFFFFFFFFFFFFFF7A6
:10277800FFFFFFFFFFFFDFFFDFFFFFFFFEFFFEFFA3
:10278800FFFFFFFFFFFFFFFFFFFFFFFFFFFFFFFF51
:10279800FFFFFFFFFFFFFFFFFFFFFFFFFFFFFFFF41
:1027A800FFFFFFFFFFFFFFFFFFFFFFFFFFFFFFFF31
:1027B800FFFFFFFFFFFFFFFFFFFFFFFFFFFFFFFF21
:1027C800FFFFFFFFFFFFFFFFFFFFFFFFFFFFFFFF11
:1027D800FFFFFFFFFFFFFFFFFFFFFFFFFFFFFFFF01
:1027E800FFFFFFFFFFFFFFFFFEFFFFFFFFFFFFFFF2
:1027F800FFFFFFFFFFFFFFFFFFFFFFFFDBFF4FCEE6
:10280800F0FFEDFFECFFCBFFEAFFCAFFC9FFC9FFEE
:10281800E9FFE9FFC9F7A9F7EAFFEBFFEBFF68EF6C
:10282800A9F7E6DE02C622C622B58094A1B5E1B5B5
:1028380080A500BEC0BDA1BDA1BD80B5C0B5A5AD78
:10284800D0BDFCFF50CE65AD04BEC5D625DFC5D6CC
:1028580022B524BD8AEE4CFF6BFFEAF648EE45DD53
:10286800E4D4C7C449ACDBFFFFFFFFFFFFFFFFFF56
:10287800FFFFFFFFFFFFDFFFDFFFFFFFFEFFFEFFA2
:10288800FFFFFFFFFFFFFFFFFFFFFFFFFFFFFFFF50
:10289800FFFFFFFFFFFFFFFFFFFFFFFFFFFFFFFF40
:1028A800FFFFFFFFFFFFFFFFFFFFFFFFFFFFFFFF30
:1028B800FFFFFFFFFFFFFFFFFFFFFFFFFFFFFFFF20
:1028C800FFFFFFFFFFFFFFFFFFFFFFFFFFFFFFFF10
:1028D800FFFFFFFFFFFFFFFFFFFFFFFFFFFFFFFF00
:1028E800FFFFFFFFFFFFFFFFFFFFFFFFFFFFFFFFF0
:1028F800FFFFFFFFFFFFFFFFFFFFFFFFFDFF30C6EA
:10290800F1FFEDFFECFFECFFEAFFEAFFEAFFEAFF69
:10291800EAFFEAFFEAFFCAFFEAFF89F7EAFFEAFFF0
:1029280047E784D663CE40ADA09CE3C5E3BDE2B5DE
:1029380023BEC0B5E0BDC1C5C1BDA0B5E0B5C5B534
:10294800ADB5FBFF0DC684AD45CEE6D626DFE6DE87
:10295800E4C503B508DECBEE6DFF2CFFAAF6E7ED64
:10296800E4CCE6CC68AC93EEFFFFFFFFFFFFFFFF70
:10297800FFFFFFFFFFFFDFFFDFFFFFFFFEFFFEFFA1
:10298800FFFFFFFFFFFFFFFFFFFFFFFFFFFFFFFF4F
:10299800FFFFFFFFFFFFFFFFFFFFFFFFFFFFFFFF3F
:1029A800FFFFFFFFFFFFFFFFFFFFFFFFFFFFFFFF2F
:1029B800FFFFFFFFFFFFFFFFFFFFFFFFFFFFFFFF1F
:1029C800FFFFFFFFFFFFFFFFFFFFFFFFFFFFFFFF0F
:1029D800FFFFFFFFFFFFFFFFFFFFFFFFFFFFFFFFFF
:1029E800FFFFFFFFFFFFFFFFFFFFFFFFFFFFFFFFEF
:1029F800FFFFFFFFFFFFFEFFFFFFBFFFFFFF73D6D5
:102A080090F7EDFFECFFEDFFEDFFECFFECFFECFFC7
:102A1800ECFFEBFFEBFFEBFFEBFFEBFFCAFF69EF10
:102A2800E7DE45CE82B5C09C41B521AD42ADA4B527
:102A380045C664CE23C6E4C5C3C500BE00BEE6BD18
:102A480030CEFBFF6AADC2B585CE27DF67E727E743
:102A580025D6E2B4E8D52DFF6EFF6DFF69E607E6DF
:102A680086DDA5C4A7BC2AC5DDFFFFFFDFFFFFFF8A
:102A7800FFFFFFFFFFFFDFFFDFFFFFFFFEFFFFFF9F
:102A8800FFFFFFFFFFFFFFFFFFFFFFFFFFFFFFFF4E
:102A9800FFFFFFFFFFFFFFFFFFFFFFFFFFFFFFFF3E
:102AA800FFFFFFFFFFFFFFFFFFFFFFFFFFFFFFFF2E
:102AB800FFFFFFFFFFFFFFFFFFFFFFFFFFFFFFFF1E
:102AC800FFFFFFFFFFFFFFFFFFFFFFFFFFFFFFFF0E
:102AD800FFFFFFFFFFFFFFFFFFFFFFFFFFFFFFFFFE
:102AE800FFFFFFFFFFFFFFFFFFFFFFFFFFFFFFFFEE
:102AF800DFFFFFFFFFFFFDFFFFFFDFFFFFFF38EFF7
:102B0800AED6EFFFACF7EDFFCFFFEFFFEEFFEEFF26
:102B1800EDFFCCFFCBFFCAFFEBFF68EF89F728E793
:102B280067CE23A5408C03A582B5A4BD86ADE49CE1
:102B380043A565C686D6C6C526CE22C641BEE6B51D
:102B480037EF36D6879401BE84CE68E768EFA9F7D9
:102B5800A6E602B504BD2ADEB0FFAFFF4CFF28E6AB
:102B680086DD05CDC6C465AC3AEFFEFFFFFFFFFF6B
:102B7800FFFFFFFFFFFFDFFFDFFFFFFFFEFFFFFF9E
:102B8800FFFFFFFFFFFFFFFFFFFFFFFFFFFFFFFF4D
:102B9800FFFFFFFFFFFFFFFFFFFFFFFFFFFFFFFF3D
:102BA800FFFFFFFFFFFFFFFFFFFFFFFFFFFFFFFF2D
:102BB800FFFFFFFFFFFFFFFFFFFFFFFFFFFFFFFF1D
:102BC800FFFFFFFFFFFFFFFFFFFFFFFFFFFFFFFF0D
:102BD800FFFFFFFFFFFFFFFFFFFFFFFFFFFFFFFFFD
:102BE800FFFFFFFFFFFFFFFFFFFFFFFFFFFFFFFFED
:102BF800DFFFFFFFFFFFFDFFFEFFFFFFDFFFDCFF43
:102C08000EC6F0FFCDF7EEFFEEFFEEFFEEFFEEFF94
:102C1800EDFFEDFFECFFEBFFA9F7EBFF28E782B52F
:102C280002A5A2942ACE90FFABF70BE7ACD6CBD681
:102C3800C5B541A567CECBE647D683CEA3CEA8B50A
:102C480039EF909C659400BEA5CEA9EF88EFEAFF06
:102C580048F7A4CD82A446BD26B529CE0BEFCAF607
:102C6800A6DD25CDC4C4A4BC34D6FDFFFFFFFFFFFD
:102C7800FFFFFFFFFFFFDFFFDFFFFFFFFEFFFFFF9D
:102C8800FFFFFFFFFFFFFFFFFFFFFFFFFFFFFFFF4C
:102C9800FFFFFFFFFFFFFFFFFFFFFFFFFFFFFFFF3C
:102CA800FFFFFFFFFFFFFFFFFFFFFFFFFFFFFFFF2C
:102CB800FFFFFFFFFFFFFFFFFFFFFFFFFFFFFFFF1C
:102CC800FFFFFFFFFFFFFFFFFFFFFFFFFFFFFFFF0C
:102CD800FFFFFFFFFFFFFFFFFFFFFFFFFFFFFFFFFC
:102CE800FFFFFFFFFFFFFFFFFFFFFFFFFFFFFFFFEC
:102CF800FFFFFFFFFFFFFEFFFEFFFFFFDFFFFEFFFF
:102D080092D670EFEFFFEEFFECFFECFFEDFFEEFF6A
:102D1800EEFFEDFFEDFFCBFFCBF724C640A5A3B533
:102D2800A4B568CEEFFFD0FFCEFF8EEF6EE7AACE38
:102D3800A8CE26C623AD67D6A5DEE4DEC6D60DC668
:102D480055D64C94C59CE0BDC6CECAF7EAFFE9FF4C
:102D580069FF46DE03B549D6ECE6CCE665BDC6CDCF
:102D680028E686DD82BCC4CC0EB5BBFFFEFFFFFFA4
:102D7800FFFFFFFFFFFFFFFFDFFFFFFFFFFFFFFF7B
:102D8800FFFFFFFFFFFFFFFFFFFFFFFFFFFFFFFF4B
:102D9800FFFFFFFFFFFFFFFFFFFFFFFFFFFFFFFF3B
:102DA800FFFFFFFFFFFFFFFFFFFFFFFFFFFFFFFF2B
:102DB800FFFFFFFFFFFFFFFFFFFFFFFFFFFFFFFF1B
:102DC800FFFFFFFFFFFFFFFFFFFFFFFFFFFFFFFF0B
:102DD800FFFFFFFFFFFFFFFFFFFFFFFFFFFFFFFFFB
:102DE800FFFFFFFFFFFFFFFFFFFFFFFFFFFFFFFFEB
:102DF800FFFFFFFFFFFFFFFFFFFFFFFFFFFFFFFFDB
:102E080079F770D6D0FFEDFFECFFEDFFEDFFEEFF99
:102E1800AEFF4CEF89D606C6A3B504BE28E786CE1A
:102E2800A3B5EEFF6CEF8DF790F790EFAFEF8DE75E
:102E38006CE7CADEE6BDC2BD66EF26DF69CEF4E602
:102E4800B2BDAA9CE3A4C0BDA6CEC9EFE9FFC9FFE5
:102E5800CAFFA7E602B5E6CD2CEFD0FF8FFF08D654
:102E6800C2B444CD25D5C4CC499C98FFFEFFFFFFD2
:102E7800FFFFFFFFFFFFFFFFDFFFFFFFFFFFFFFF7A
:102E8800FFFFFFFFFFFFFFFFFFFFFFFFFFFFFFFF4A
:102E9800FFFFFFFFFFFFFFFFFFFFFFFFFFFFFFFF3A
:102EA800FFFFFFFFFFFFFFFFFFFFFFFFFFFFFFFF2A
:102EB800FFFFFFFFFFFFFFFFFFFFFFFFFFFFFFFF1A
:102EC800FFFFFFFFFFFFFFFFFFFFFFFFFFFFFFFF0A
:102ED800FFFFFFFFFFFFFFFFFFFFFFFFFFFFFFFFFA
:102EE800FFFFFFFFFFFFFFFFFFFFFFFFFFFFFFFFEA
:102EF800FFFFFFFFFFFFFFFFFFFFFFFFFFFFFFFFDA
:102F0800FEFFF1C5B2F7EEFFEEFFEEFFAEF7EFFF03
:102F1800EFFF0BE768CEE9DE8AF7CAF768EFE3BD93
:102F280029E7EDFFADF76DEF0FC6ADB52DBE4FE745
:102F3800AFEF4EE7AAD6C2BDE4DECBF76BADFCFF20
:102F48002FAD49ADC19CC3BD66C689EFE9FFE9FF56
:102F5800CAFF08EFC4C542B5EAE66EF7D0FF4EFFD8
:102F680048E6A2BC82C4E5D4C9AC32DEFDFFFFFF4F
:102F7800FFFFFFFFFFFFFFFFFFFFFFFFFFFFFFFF59
:102F8800FFFFFFFFFFFFFFFFFFFFFFFFFFFFFFFF49
:102F9800FFFFFFFFFFFFFFFFFFFFFFFFFFFFFFFF39
:102FA800FFFFFFFFFFFFFFFFFFFFFFFFFFFFFFFF29
:102FB800FFFFFFFFFFFFFFFFFFFFFFFFFFFFFFFF19
:102FC800FFFFFFFFFFFFFFFFFFFFFFFFFFFFFFFF09
:102FD800FFFFFFFFFFFFFFFFFFFFFFFFFFFFFFFFF9
:102FE800FFFFFFFFFFFFFFFFFFFFFFFFFFFFFFFFE9
:102FF800FFFFFFFFFFFFFFFFFFFFFEFFFEFFFFFFDB
:10300800FFFF3AEF0EBEF0FFCEFFEFFFCEFFCDF78A
:10301800EEFFEDFFEBFFEBFFC9F7EBFF8AEFA8D65A
:103028002CE7B1F7AABD226B20292008E0182663F7
:10303800F0D64FE72DE726C646C66BCE38EF3CEFF5
:103048008D9489B503A523AD67C648E7C7F7A7F7E9
:10305800CAFF8AFF45CE20AD87DE6DF7D1FF6FFF2F
:10306800EBEEC6D5C4CC03BCE7B46DC5DCFFDFFF0F
:10307800FFFFFFFFFFFFDFFFFFFFFFFFFFFFFFFF78
:10308800FFFFFFFFFFFFFFFFFFFFFFFFFFFFFFFF48
:10309800FFFFFFFFFFFFFFFFFFFFFFFFFFFFFFFF38
:1030A800FFFFFFFFFFFFFFFFFFFFFFFFFFFFFFFF28
:1030B800FFFFFFFFFFFFFFFFFFFFFFFFFFFFFFFF18
:1030C800FFFFFFFFFFFFFFFFFFFFFFFFFFFFFFFF08
:1030D800FFFFFFFFFFFFFFFFFFFFFFFFFFFFFFFFF8
:1030E800FFFFFFFFFFFFFFFFFFFFFFFFFFFFFFFFE8
:1030F800FEFFFFFFFFFFFFFFFFFFFDFFFDFFDFFFFD
:10310800DFFFFFFF93D62BBE8DEFEFFFEEFFEDFF46
:10311800ECFFECFFEBFFEAFFECFFCBF74CEFA8B5B9
:103128004FD615EF61310008000003082408400855
:10313800A77371EF2EE7CBDE68AD51CEFFFF907B12
:10314800EA7B4CCE45AD25AD05BEC6DE46EF66EF43
:10315800CAFFEBFFC6DE40AD04CE4DF7B1FF8FFFCF
:103168000BF768EE46DD65C484B489ACBAFFFEFF90
:10317800FFFFFFFFFFFFFFFFFFFFFFFFFFFFFFFF57
:10318800FFFFFFFFFFFFFFFFFFFFFFFFFFFFFFFF47
:10319800FFFFFFFFFFFFFFFFFFFFFFFFFFFFFFFF37
:1031A800FFFFFFFFFFFFFFFFFFFFFFFFFFFFFFFF27
:1031B800FFFFFFFFFFFFFFFFFFFFFFFFFFFFFFFF17
:1031C800FFFFFFFFFFFFFFFFFFFFFFFFFFFFFFFF07
:1031D800FFFFFFFFFFFFFFFFFFFFFFFFFFFFFFFFF7
:1031E800FFFFFFFFFFFFFFFFFFFFFFFFFFFFFFFFE7
:1031F800FEFFFFFFFFFFFFFFFFFFFDFFFDFFFFFFDC
:10320800BFFFDFFFFBFF12E7EBBDCBBD0BC6ADD6A3
:103218004EE7AFF78EF74DEF8BD6A9B50DC615E77C
:1032280014CE2F9421102310220804000600030056
:10323800C018EEBD2FE7CCDE8BB5DCFFBFE665100E
:10324800097CECD685B506AD05BE64CEC4DE26E79E
:10325800CAFFECFF48E7C2BDA3C5EBEE90FFB0FF85
:103268000BEF88E6A7DD28DDC3B446A4D6EEFEFF43
:10327800FFFFFFFFFFFFFFFFFFFFFFFFFFFFFFFF56
:10328800FFFFFFFFFFFFFFFFFFFFFFFFFFFFFFFF46
:10329800FFFFFFFFFFFFFFFFFFFFFFFFFFFFFFFF36
:1032A800FFFFFFFFFFFFFFFFFFFFFFFFFFFFFFFF26
:1032B800FFFFFFFFFFFFFFFFFFFFFFFFFFFFFFFF16
:1032C800FFFFFFFFFFFFFFFFFFFFFFFFFFFFFFFF06
:1032D800FFFFFFFFFFFFFFFFFFFFFFFFFFFFFFFFF6
:1032E800FFFFFFFFFFFFFFFFFFFFFFFFFFFFFFFFE6
:1032F800FFFFFFFFFFFFFFFFFFFFFEFFFEFFFFFFD8
:10330800DFFFFFFFFDFFFAFFFCFFBBFF59EFB6DE53
:10331800D2BD6FB5B0BD12CEB5DEFBFFFCFFDEFF40
:103328003CEF4631020002000200040004000300E2
:103338004008C87B0FE72AC6ADB5FFFFB57B030081
:10334800287C2BDF27C6C6AC25C603C642CEC5D609
:10335800CAF7ECFFAAF724CE42BDAAEE4FFFD0FF72
:103368006CF7A9E6C7DD47DD84D5A6B490CDFEFF8E
:10337800DEFFFFFFFFFFFFFFFFFFFFFFFFFFFFFF76
:10338800FFFFFFFFFFFFFFFFFFFFFFFFFFFFFFFF45
:10339800FFFFFFFFFFFFFFFFFFFFFFFFFFFFFFFF35
:1033A800FFFFFFFFFFFFFFFFFFFFFFFFFFFFFFFF25
:1033B800FFFFFFFFFFFFFFFFFFFFFFFFFFFFFFFF15
:1033C800FFFFFFFFFFFFFFFFFFFFFFFFFFFFFFFF05
:1033D800FFFFFFFFFFFFFFFFFFFFFFFFFFFFFFFFF5
:1033E800FFFFFFFFFFFFFFFFFFFFFFFFFFFFFFFFE5
:1033F800FFFFFFFFFFFFFFFFFFFFFFFFFEFFFFFFD6
:10340800FFFFFFFFBEFFDDFFDFFFDFFFDFFFDFFFA7
:10341800DFFFDFFFDFFFDFFFDFFF9FFFDFFFDFFFF4
:1034280035A5010001002100020001000100010092
:103438004008C55A2CC62AC630C6BCDEAA184300A6
:103448004563AEEFCADE26AD41AD81B503C6C6D62B
:10345800EBF7EDFFECFF87D602B569EE4EFFAFFF45
:103468008DFF0AEF28E686DDA4DD07C50DB5FEFF52
:10347800FFFFFFFFFEFFFFFFFFFFFFFFFFFFFFFF55
:10348800FFFFFFFFFFFFFFFFFFFFFFFFFFFFFFFF44
:10349800FFFFFFFFFFFFFFFFFFFFFFFFFFFFFFFF34
:1034A800FFFFFFFFFFFFFFFFFFFFFFFFFFFFFFFF24
:1034B800FFFFFFFFFFFFFFFFFFFFFFFFFFFFFFFF14
:1034C800FFFFFFFFFFFFFFFFFFFFFFFFFFFFFFFF04
:1034D800FFFFFFFFFFFFFFFFFFFFFFFFFFFFFFFFF4
:1034E800FFFFFFFFFFFFFFFFFFFFFFFFFFFFFFFFE4
:1034F800FFFFFFFFFFFFFFFFFFFFFFFFFFFFFFFFD4
:10350800FFFFBFFFFFFFDFFFFFFFFFFFFFFFDFFF43
:10351800BFFFDFFFDFFFDFFFFFFFDFFFBFFF5EEF64
:1035280004210000200020002100000061080000A4
:10353800E3202B8CCCB5E99C17E713840500220007
:10354800023AB2F74EEFE7C5C09C40AD03C6E7DECE
:10355800ECF7ECF7EDFFEAEEC2B408E62DFF8EFFBC
:103568008DF70BEF89EE07E682D588D50DBD9CFF58
:10357800FFFFFFFFFEF7FFFFFFFFFFFFFFFFFFFF5C
:10358800FFFFFFFFFFFFFFFFFFFFFFFFFFFFFFFF43
:10359800FFFFFFFFFFFFFFFFFFFFFFFFFFFFFFFF33
:1035A800FFFFFFFFFFFFFFFFFFFFFFFFFFFFFFFF23
:1035B800FFFFFFFFFFFFFFFFFFFFFFFFFFFFFFFF13
:1035C800FFFFFFFFFFFFFFFFFFFFFFFFFFFFFFFF03
:1035D800FFFFFFFFFFFFFFFFFFFFFFFFFFFFFFFFF3
:1035E800FFFFFFFFFFFFFFFFFFFFFFFFFFFFFFFFE3
:1035F800FFFFFFFFFFFFFFFFFFFFFFFFFFFFFFFFD3
:10360800FFFFFFFFDFFF9FFFFEFFFEFFFEFFFDFF47
:10361800FDFFFDFFFEFFFFFFFFFFDFFFFFFF9294AF
:103628000000400020002000000040000000410091
:10363800AE73EEA4CA9CEFBDD9DE8510040042002B
:10364800422114E770F7A9DE80B561B5C3BDE8DE95
:10365800EDFFECEFEDFF4CF7E4BCC7DDCBF66DF703
:10366800CEFF2BEFA9EE26E6E3E5C9DD2DBDFAEE88
:10367800FFFFFFFFFEFFFFFFFFFFFFFFFFFFFFFF53
:10368800FFFFFFFFFFFFFFFFFFFFFFFFFFFFFFFF42
:10369800FFFFFFFFFFFFFFFFFFFFFFFFFFFFFFFF32
:1036A800FFFFFFFFFFFFFFFFFFFFFFFFFFFFFFFF22
:1036B800FFFFFFFFFFFFFFFFFFFFFFFFFFFFFFFF12
:1036C800FFFFFFFFFFFFFFFFFFFFFFFFFFFFFFFF02
:1036D800FFFFFFFFFFFFFFFFFFFFFFFFFFFFFFFFF2
:1036E800FFFFFFFFFFFFFFFFFFFFFFFFFFFFFFFFE2
:1036F800FFFFFFFFFFFFFFFFFFFFFFFFFFFFFFFFD2
:10370800FFFFFFFFFFFFFFFFDFFFFFFFFFFFFFFFE1
:10371800FFFFFEFFFFFFFFFFFFFFFFF75ED7C410AD
:103728000100010000002000400000000210A75125
:103738004D9C6B9414C6FFFF4F6B2500270804109F
:1037480000206ECDF2FF2CD703BE60AD03CE09EF8B
:10375800EDFFEDF7ECF7ACF703BD45D569F62CFFA7
:10376800AFFF4EF7ABEE68EEE9D508E6C7E54EE6E3
:10377800FCFFFFFFDFFFFFFFFFFFFFFFFFFFFFFF74
:10378800FFFFFFFFFFFFFFFFFFFFFFFFFFFFFFFF41
:10379800FFFFFFFFFFFFFFFFFFFFFFFFFFFFFFFF31
:1037A800FFFFFFFFFFFFFFFFFFFFFFFFFFFFFFFF21
:1037B800FFFFFFFFFFFFFFFFFFFFFFFFFFFFFFFF11
:1037C800FFFFFFFFFFFFFFFFFFFFFFFFFFFFFFFF01
:1037D800FFFFFFFFFFFFFFFFFFFFFFFFFFFFFFFFF1
:1037E800FFFFFFFFFFFFFFFFFFFFFFFFFFFFFFFFE1
:1037F800FFFFFFFFFFFFFFFFFFFFFFFFFFFFFFFFD1
:10380800FFFFFFFFFFFFFFFFFFFFFFFFFFFFFFFFC0
:10381800FFFFFFFFDFFFDFFFBEFFFFFF8E73000824
:10382800000000004100200000000100A520F8C5AC
:1038380019DFBAF7FDFF5AD6641004002600050008
:1038480001082B94D2FFADEF03BE81B544D64AF7E9
:10385800EDFFEDEFECEFEDFF03BD25CD48EE0CFFDE
:10386800AFFF6FFFEBF688F62ADE08E608EE0DDEFE
:10387800FDFFFFF7FFFFFFFFFFFFFFFFFFFFFFFF5A
:10388800FFFFFFFFFFFFFFFFFFFFFFFFFFFFFFFF40
:10389800FFFFFFFFFFFFFFFFFFFFFFFFFFFFFFFF30
:1038A800FFFFFFFFFFFFFFFFFFFFFFFFFFFFFFFF20
:1038B800FFFFFFFFFFFFFFFFFFFFFFFFFFFFFFFF10
:1038C800FFFFFFFFFFFFFFFFFFFFFFFFFFFFFFFF00
:1038D800FFFFFFFFFFFFFFFFFFFFFFFFFFFFFFFFF0
:1038E800FFFFFFFFFFFFFFFFFFFFFFFFFFFFFFFFE0
:1038F800FFFFFFFFFFFFFFFFFFFFFFFFFFFFFFFFD0
:10390800FFFFFFFFFFFFFFFFFFFFFFFFFFFFFFFFBF
:10391800FFFFDFFFDFFFDFFFDFFF7AD68218000837
:10392800000800000000400000080100B494FFF700
:10393800FFF7FEFFBEF7CD620200440045004600D7
:1039480024002642D4F7EEFF65C6C2BD64D649F707
:10395800EDFFEDF7ECF7CDFFE3BC04CD07E6EBF6A2
:103968008FFF6FFF0CFFC9F66BE628EE69F6ACCD4A
:10397800FCFFFFF7FFFFFFFFFFFFFFFFFFFFFFFF5A
:10398800FFFFFFFFFFFFFFFFFFFFFFFFFFFFFFFF3F
:10399800FFFFFFFFFFFFFFFFFFFFFFFFFFFFFFFF2F
:1039A800FFFFFFFFFFFFFFFFFFFFFFFFFFFFFFFF1F
:1039B800FFFFFFFFFFFFFFFFFFFFFFFFFFFFFFFF0F
:1039C800FFFFFFFFFFFFFFFFFFFFFFFFFFFFFFFFFF
:1039D800FFFFFFFFFFFFFFFFFFFFFFFFFFFFFFFFEF
:1039E800FFFFFFFFFFFFFFFFFFFFFFFFFFFFFFFFDF
:1039F800FFFFFFFFFFFFFFFFFFFFFFFFFFFFFFFFCF
:103A0800FFFFFFFFFFFFFFFFFEFFDEFFFFFFFFFFE0
:103A1800FFFFFFFFFFFFDFF7FFF7AC4A01000100E0
:103A280000080008000060080010494ABEEFFFF7D0
:103A3800DFF7DFFF39C62100410001000200250041
:103A480006008308D1D6EEFF67C6A2B585D649F72A
:103A5800ECFFEDF7ECF7ACFF03BDC3C4A7DDAAEE9E
:103A68006EFF6FFF4DFFE9F6ABEE68EEAAFE8BCD59
:103A7800FCFFFFFFFFFFFFFFFFFFFFFFFFFFFFFF51
:103A8800FFFFFFFFFFFFFFFFFFFFFFFFFFFFFFFF3E
:103A9800FFFFFFFFFFFFFFFFFFFFFFFFFFFFFFFF2E
:103AA800FFFFFFFFFFFFFFFFFFFFFFFFFFFFFFFF1E
:103AB800FFFFFFFFFFFFFFFFFFFFFFFFFFFFFFFF0E
:103AC800FFFFFFFFFFFFFFFFFFFFFFFFFFFFFFFFFE
:103AD800FFFFFFFFFFFFFFFFFFFFFFFFFFFFFFFFEE
:103AE800FFFFFFFFFFFFFFFFFFFFFFFFFFFFFFFFDE
:103AF800FFFFFFFFFFFFFFFFFFFFFFFFFFFFFFFFCE
:103B0800FFFFFFFFFFFFFFFFBEFFFFFFFFFFFFF706
:103B1800FFF7FFF7FFFFFFF718AE41004100000075
:103B28000008001000080008821858CEFFFFDFF7D1
:103B38009FFFBFFF29422000410020002108030801
:103B4800060002002984EFFF89CE62AD65D669F7C9
:103B58008BF7ECF7EDFFACFF03BDA3C466DD69EEA0
:103B68002DFF6EFF4DFFEAF6CCEE89F6CAFEABCD0F
:103B7800DBFFFFFFDFFFFFFFFFFFFFFFFFFFFFFF91
:103B8800FFFFFFFFFFFFFFFFFFFFFFFFFFFFFFFF3D
:103B9800FFFFFFFFFFFFFFFFFFFFFFFFFFFFFFFF2D
:103BA800FFFFFFFFFFFFFFFFFFFFFFFFFFFFFFFF1D
:103BB800FFFFFFFFFFFFFFFFFFFFFFFFFFFFFFFF0D
:103BC800FFFFFFFFFFFFFFFFFFFFFFFFFFFFFFFFFD
:103BD800FFFFFFFFFFFFFFFFFFFFFFFFFFFFFFFFED
:103BE800FFFFFFFFFFFFFFFFFFFFFFFFFFFFFFFFDD
:103BF800FFFFFFFFFFFFFFFFFFFFFFFFFFFFFFFFCD
:103C0800FFFFFFFFFFFFFFFFDFFFFFFFFFF7FFF7EC
:103C1800FFF7FFFF5CF7F9F6255A0020402800203F
:103C280000180008220802007194FEFFFEFFFFFF43
:103C3800DFFF15AD0000610000000000010803006F
:103C480026080300402930EF4DE763AD03CE07EFA8
:103C580069EFECF7EDFFACFF03BD82BC45D528E664
:103C6800ECF64EFF6DFF0AFFCBEEC9FECAFE0CD67E
:103C780099F7FFFFDFFFFFFFFFFFFFFFFFFFFFFFDA
:103C8800FFFFFFFFFFFFFFFFFFFFFFFFFFFFFFFF3C
:103C9800FFFFFFFFFFFFFFFFFFFFFFFFFFFFFFFF2C
:103CA800FFFFFFFFFFFFFFFFFFFFFFFFFFFFFFFF1C
:103CB800FFFFFFFFFFFFFFFFFFFFFFFFFFFFFFFF0C
:103CC800FFFFFFFFFFFFFFFFFFFFFFFFFFFFFFFFFC
:103CD800FFFFFFFFFFFFFFFFFFFFFFFFFFFFFFFFEC
:103CE800FFFFFFFFFFFFFFFFFFFFFFFFFFFFFFFFDC
:103CF800FFFFFFFFFFFFFFFFFFFFFFFFFFFFFFFFCC
:103D0800FFFFFFFFFFFFFFFFDEFFFFFFFFFFFFFFDC
:103D1800BFFFB6E509AB8189E0A100B2A0A960891F
:103D2800C05840280100EB317EEFFFFFBDEFDEF702
:103D38003DEF4529000000000200020002002300B8
:103D48000400430084314FB5CEDE64ADE3C5A5DE83
:103D580028EFCBF7ECFFCDFF23C562BC04CDE7E528
:103D6800ABF60DFF6DFF2AF7EBF6C9FEC9FE2CDE98
:103D780058EFFFFFFFFFFFFFFFFFFFFFFFFFFFFF02
:103D8800FFFFFFFFFFFFFFFFFFFFFFFFFFFFFFFF3B
:103D9800FFFFFFFFFFFFFFFFFFFFFFFFFFFFFFFF2B
:103DA800FFFFFFFFFFFFFFFFFFFFFFFFFFFFFFFF1B
:103DB800FFFFFFFFFFFFFFFFFFFFFFFFFFFFFFFF0B
:103DC800FFFFFFFFFFFFFFFFFFFFFFFFFFFFFFFFFB
:103DD800FFFFFFFFFFFFFFFFFFFFFFFFFFFFFFFFEB
:103DE800FFFFFFFFFFFFFFFFFFFFFFFFFFFFFFFFDB
:103DF800FFFFFFFFFFFFFFFFFFFFFFFFFFFFFFFFCB
:103E0800FFFFFFFFFFFFFFFFFFFFFEFFBDFF73CDBB
:103E18004FD4A4A9A2C122E200E2C0E1E0D922D293
:103E280023B2258AA140F7DDFFFFFFFFFEFFDFFF7A
:103E3800CF930008000800000200030003002400DC
:103E480024002B3A1CDF7CEF29A504A544CE84D698
:103E5800E7E68AF7CCF7EDFF24C542B4E4CCA7DD4A
:103E68006AEEECF64CFF2AF7EBF6C9FEC9FE4DDE0A
:103E780038E7FFF7FFFFFFFFFFFFFFFFFFFFFFFF31
:103E8800FFFFFFFFFFFFFFFFFFFFFFFFFFFFFFFF3A
:103E9800FFFFFFFFFFFFFFFFFFFFFFFFFFFFFFFF2A
:103EA800FFFFFFFFFFFFFFFFFFFFFFFFFFFFFFFF1A
:103EB800FFFFFFFFFFFFFFFFFFFFFFFFFFFFFFFF0A
:103EC800FFFFFFFFFFFFFFFFFFFFFFFFFFFFFFFFFA
:103ED800FFFFFFFFFFFFFFFFFFFFFFFFFFFFFFFFEA
:103EE800FFFFFFFFFFFFFFFFFFFFFFFFFFFFFFFFDA
:103EF800FFFFFFFFFFFFFFFFFFFFFFFFFFFFFFFFCA
:103F0800FFFFFFFFFFFFFFFFFFFFDDFF9BFFA38119
:103F1800C3B9E3E981F1A1F180E1C1E981D9C2D155
:103F280002C223BA43BAE6CADCFF7BFFD6F571DCCE
:103F3800C25840380020001000080200040803009E
:103F480006215DE7DFF7FFFFD6FFE59C23C683D692
:103F5800C6DE8AF7ECFFEDFF65C521ACC4C466DD9B
:103F680029EECBF62CF72AF7EBF6A9F6EAFE2CDEBB
:103F780037E7FFF7FFFFDFFFFFFFFFFFFFFFFFFF51
:103F8800FFFFFFFFFFFFFFFFFFFFFFFFFFFFFFFF39
:103F9800FFFFFFFFFFFFFFFFFFFFFFFFFFFFFFFF29
:103FA800FFFFFFFFFFFFFFFFFFFFFFFFFFFFFFFF19
:103FB800FFFFFFFFFFFFFFFFFFFFFFFFFFFFFFFF09
:103FC800FFFFFFFFFFFFFFFFFFFFFFFFFFFFFFFFF9
:103FD800FFFFFFFFFFFFFFFFFFFFFFFFFFFFFFFFE9
:103FE800FFFFFFFFFFFFFFFFFFFFFFFFFFFFFFFFD9
:103FF800FFFFFFFFFFFFFFFFFFFFFFFFFFFFFFFFC9
:10400800FFFFFFFFFFFFFFFFFFFFDEFF9BFFE8B2A1
:1040180003D281F140F9A2F9C3E9A3D9C4D9A3D144
:10402800E3D1C0C9E0D1E0E14793669A84A1C4B165
:10403800E4A965AA248A60694038001803180308AF
:1040480076B5DDFFFFFF3DE7434A448CE3BD21C65B
:10405800E6E68AF7CCF7EDFFC6CD21ACA3C405D5BB
:10406800E8EDABF6EBF60AEF0BF7A8F6A9FECBD511
:1040780017E7FFF7FFFFFFFFFFFFFFFFFFFFFFFF50
:10408800FFFFFFFFFFFFFFFFFFFFFFFFFFFFFFFF38
:10409800FFFFFFFFFFFFFFFFFFFFFFFFFFFFFFFF28
:1040A800FFFFFFFFFFFFFFFFFFFFFFFFFFFFFFFF18
:1040B800FFFFFFFFFFFFFFFFFFFFFFFFFFFFFFFF08
:1040C800FFFFFFFFFFFFFFFFFFFFFFFFFFFFFFFFF8
:1040D800FFFFFFFFFFFFFFFFFFFFFFFFFFFFFFFFE8
:1040E800FFFFFFFFFFFFFFFFFFFFFFFFFFFFFFFFD8
:1040F800FFFFFFFFFFFFFFFFFFFFFFFFFFFFFFFFC8
:10410800FFFFFFFFFFFFFFFFDFFFFFFFBDFFABC3A9
:10411800E4C983F182F9A1F1E2F1A2E1C3E1C3D9D3
:10412800C2D1E2C901D260C9A0A103CA04E2E2D99E
:1041380002CAC1B123BA43BA22B2A0580018AC626D
:10414800DFFFFDFF77D62010497308A5C3BD41CE18
:10415800E5DE8AF7ECFFEDFF68DE21A483BCC4CC62
:10416800A7E56AF6AAEE0AF7EBF688F689F669C5B6
:1041780037E7FFF7FFFFFFFFFFFFFFFFFFFFFFFF2F
:10418800FFFFFFFFFFFFFFFFFFFFFFFFFFFFFFFF37
:10419800FFFFFFFFFFFFFFFFFFFFFFFFFFFFFFFF27
:1041A800FFFFFFFFFFFFFFFFFFFFFFFFFFFFFFFF17
:1041B800FFFFFFFFFFFFFFFFFFFFFFFFFFFFFFFF07
:1041C800FFFFFFFFFFFFFFFFFFFFFFFFFFFFFFFFF7
:1041D800FFFFFFFFFFFFFFFFFFFFFFFFFFFFFFFFE7
:1041E800FFFFFFFFFFFFFFFFFFFFFFFFFFFFFFFFD7
:1041F800FFFFFFFFFFFFFFFFFFFFFFFFFFFFFFFFC7
:10420800FFFFFFFFFFFFFFFFFFF7FFFFFDFFCDBB36
:10421800C4B9C4F1A2F980F1A0F1C1F1A1F1C1E1E1
:10422800C1C943CA02C281B9C0D9E2E961E980E1E2
:10423800C0D1E1C9C1C9C1D100CA43B26361BAE6FC
:10424800FFFF98D6E120AC839CFF8CB582AD61CE90
:10425800C4DE8AF7EDFFEEFF2BEF41A463BCC4D4A4
:1042680046DD08EE89EEEAEEABEE68EE89F6E8B4D4
:1042780058EFFFFFFFFFFFFFFFFFFFFFFFFFFFFFFD
:10428800FFFFFFFFFFFFFFFFFFFFFFFFFFFFFFFF36
:10429800FFFFFFFFFFFFFFFFFFFFFFFFFFFFFFFF26
:1042A800FFFFFFFFFFFFFFFFFFFFFFFFFFFFFFFF16
:1042B800FFFFFFFFFFFFFFFFFFFFFFFFFFFFFFFF06
:1042C800FFFFFFFFFFFFFFFFFFFFFFFFFFFFFFFFF6
:1042D800FFFFFFFFFFFFFFFFFFFFFFFFFFFFFFFFE6
:1042E800FFFFFFFFFFFFFFFFFFFFFFFFFFFFFFFFD6
:1042F800FFFFFFFFFFFFFFFFFFFFFFFFFFFFFFFFC6
:10430800FFFFFFFFFFFFFFFFFFF7FEF7FCFFEBBB21
:1043180004D2A3F961F980F9A0F1C1F980E9C1E1FA
:10432800E1D101C280B9A0C1A0E1C2F162F1A2F15C
:1043380080D9C1D9C2D1C1D1E0C942C2859A5CFF36
:10434800FCE6E418EA5ADCFFFFFF6CB582AD41C613
:10435800C4D68BEFCCF7EEFFADFF82AC22B4C4D449
:1043680005DDC7ED69EEA9EE8AE627EE69F6A6AC8B
:1043780099F7FFF7FFFFFFFFFFFFFFFFFFFFFFFFBB
:10438800FFFFFFFFFFFFFFFFFFFFFFFFFFFFFFFF35
:10439800FFFFFFFFFFFFFFFFFFFFFFFFFFFFFFFF25
:1043A800FFFFFFFFFFFFFFFFFFFFFFFFFFFFFFFF15
:1043B800FFFFFFFFFFFFFFFFFFFFFFFFFFFFFFFF05
:1043C800FFFFFFFFFFFFFFFFFFFFFFFFFFFFFFFFF5
:1043D800FFFFFFFFFFFFFFFFFFFFFFFFFFFFFFFFE5
:1043E800FFFFFFFFFFFFFFFFFFFFFFFFFFFFFFFFD5
:1043F800FFFFFFFFFFFFFFFFFFFFFFFFFFFFFFFFC5
:10440800FFFFFFFFFFFFFFFFFFFFFEFFFBFF28BBD4
:10441800E3D981F940F980F9C1F1A2E982E1C2E169
:1044280023DA80C160C9C0E9C1E1A1E963F983F970
:1044380081E9A1D903D2C2C1E2C1E1C102AA8BB309
:104448008751A9319EE7FEF7BFFFCFBDC3B561C64F
:10445800C4D66AEFEEFFCDF7EFFF66C501AC83CC9B
:10446800E4DCA6E548EE48DE6AE607E607EEA7AC18
:10447800BAF7FFF7FFFFFFFFFFFFFFFFFFFFFFFF99
:10448800FFFFFFFFFFFFFFFFFFFFFFFFFFFFFFFF34
:10449800FFFFFFFFFFFFFFFFFFFFFFFFFFFFFFFF24
:1044A800FFFFFFFFFFFFFFFFFFFFFFFFFFFFFFFF14
:1044B800FFFFFFFFFFFFFFFFFFFFFFFFFFFFFFFF04
:1044C800FFFFFFFFFFFFFFFFFFFFFFFFFFFFFFFFF4
:1044D800FFFFFFFFFFFFFFFFFFFFFFFFFFFFFFFFE4
:1044E800FFFFFFFFFFFFFFFFFFFFFFFFFFFFFFFFD4
:1044F800FFFFFFFFFFFFFFFFFFFFFFFFFFFFFFFFC4
:10450800FFFFFFFFFFFFFFFFBFFFFEFF3AFF25A2F0
:10451800C3E161F940F980F9C2F1A2E1A3E9A3D9A5
:10452800C2D960C980E1C1F9E1E9A2F163F162F1A0
:10453800A2F1C0D902D2E3C9E4D1C1D141CAE29102
:1045480045511FEFFFF7FDF7DFFF11C662AD40C60B
:1045580083CE6AEFEFFFEDF7EEFFCBEE22B462C435
:10456800A3D466E507E627DE2ADE07E6A6DD29BD31
:10457800DBFFFFFFFFFFFFFFFFFFFFFFFFFFFFFF67
:10458800FFFFFFFFFFFFFFFFFFFFFFFFFFFFFFFF33
:10459800FFFFFFFFFFFFFFFFFFFFFFFFFFFFFFFF23
:1045A800FFFFFFFFFFFFFFFFFFFFFFFFFFFFFFFF13
:1045B800FFFFFFFFFFFFFFFFFFFFFFFFFFFFFFFF03
:1045C800FFFFFFFFFFFFFFFFFFFFFFFFFFFFFFFFF3
:1045D800FFFFFFFFFFFFFFFFFFFFFFFFFFFFFFFFE3
:1045E800FFFFFFFFFFFFFFFFFFFFFFFFFFFFFFFFD3
:1045F800FFFFFFFFFFFFFFFFFFFFFFFFFFFFFFFFC3
:10460800FFFFFFFFFFFFFFFF9FFFBFFF37F6E599A3
:1046180005EA41F920F9A0F9A1E9C3E9A3E983E191
:1046280001C183D1A3E963F180F1C2F982F1A3F159
:10463800A1E9E0E1E1D1E4D1A4D9A1D9E0C941A23D
:1046480033D5DFFFDFFFFEFFBFFF72D683AD20C685
:1046580083CE8AEFCCEFEEF7EEFFF0FFA4BC42C4A6
:1046680083D404DDC6DD27DE09DE07E685D5CBD594
:10467800FCFFFFFFDFFFFFFFFFFFFFFFFFFFFFFF65
:10468800FFFFFFFFFFFFFFFFFFFFFFFFFFFFFFFF32
:10469800FFFFFFFFFFFFFFFFFFFFFFFFFFFFFFFF22
:1046A800FFFFFFFFFFFFFFFFFFFFFFFFFFFFFFFF12
:1046B800FFFFFFFFFFFFFFFFFFFFFFFFFFFFFFFF02
:1046C800FFFFFFFFFFFFFFFFFFFFFFFFFFFFFFFFF2
:1046D800FFFFFFFFFFFFFFFFFFFFFFFFFFFFFFFFE2
:1046E800FFFFFFFFFFFFFFFFFFFFFFFFFFFFFFFFD2
:1046F800FFFFFFFFFFFFFFFFFFFFFFFFFFFFFFFFC2
:10470800FFFFFFFFFFFFFFFFFFF7FDFFAECC04BA7F
:10471800A2E982F900F981F961F120D100C120D123
:1047280023F924F963F9C1F183F963F1E3F9A1F9F4
:1047380040F960F920F9A0E9C0D900DAC1C905B289
:10474800B1C4FEFFFFFFFDFF9FFF77EF409D00B65E
:1047580063CE0AEFEFFFCCFFEBFFEBFF69F7609C3E
:1047680003BD25CD66DDC6E54BDE25B5CBDE8ED691
:10477800FBFFDFFFBFFFFFFFFFFFFFFFFFFFFFFFA5
:10478800FFFFFFFFFEFFFEFFFFFFFFFFFFFFFFFF33
:10479800FFFFFFFFFFFFFFFFFFFFFFFFFFFFFFFF21
:1047A800FFFFFFFFFFFFFFFFFFFFFFFFFFFFFFFF11
:1047B800FFFFFFFFFFFFFFFFFFFFFFFFFFFFFFFF01
:1047C800FFFFFFFFFFFFFFFFFFFFFFFFFFFFFFFFF1
:1047D800FFFFFFFFFFFFFFFFFFFFFFFFFFFFFFFFE1
:1047E800FFFFFFFFFFFFFFFFFFFFFFFFFFFFFFFFD1
:1047F800FFFFFFFFFFFFFFFFFFFFFFFFFFFFFFFFC1
:10480800FFFFFFFFFFFFFFFFFFF7DDFFCBBB04C28A
:10481800A2E982F920F960F9A2F982E981D9A2E92D
:1048280083F944F962F9A0F120F982F962E9A3C990
:1048380085CAE7C208BBC7B224B281C103E2C4A9D2
:1048480053CDFFF7FFEFBFFFBFFFF9FF43A500B64A
:1048580002BE0AE7AEFFCDFFCCFFECFFCCFFA9E616
:10486800219C68CD87DDC7E546B5C7C5AFFF6BB5E9
:10487800FBFFBFFFDFFFDFFFFFFFFFFFFFFFFFFFC4
:10488800FFFFFFFFFFFFFEFFFFFFFFFFFFFFFFFF31
:10489800FFFFFFFFFFFFFFFFFFFFFFFFFFFFFFFF20
:1048A800FFFFFFFFFFFFFFFFFFFFFFFFFFFFFFFF10
:1048B800FFFFFFFFFFFFFFFFFFFFFFFFFFFFFFFF00
:1048C800FFFFFFFFFFFFFFFFFFFFFFFFFFFFFFFFF0
:1048D800FFFFFFFFFFFFFFFFFFFFFFFFFFFFFFFFE0
:1048E800FFFFFFFFFFFFFFFFFFFFFFFFFFFFFFFFD0
:1048F800FFFFFFFFFFFFFFFFFFFFFFFFFFFFFFFFC0
:10490800FFFFFFFFFFFFFFFFFFF7BDFF09B3E4C98C
:10491800A3E981F920F120F961F9A2F9C2F1A2F91C
:1049280082F941F940F160E9E0F841F906D2CEC3D5
:1049380054B5B69DF795959D90B487C2A3C1E4A1DF
:104948007BFFFFEFFFF79FFFDFFFFCFFC9B5A3ADBC
:10495800C2B5C8DEADFFCEFFEFFFCDF7CEFFF0FF4B
:104968002AD664A484B4C4BC06CEAEFFD1FF61527B
:104978005AF7FFFFFFFFFFFFFFFFFFFFFFFFFFFFEC
:10498800FFFFFFFFFFFFFFFFFFFFFFFFFFFFFFFF2F
:10499800FFFFFFFFFFFFFFFFFFFFFFFFFFFFFFFF1F
:1049A800FFFFFFFFFFFFFFFFFFFFFFFFFFFFFFFF0F
:1049B800FFFFFFFFFFFFFFFFFFFFFFFFFFFFFFFFFF
:1049C800FFFFFFFFFFFFFFFFFFFFFFFFFFFFFFFFEF
:1049D800FFFFFFFFFFFFFFFFFFFFFFFFFFFFFFFFDF
:1049E800FFFFFFFFFFFFFFFFFFFFFFFFFFFFFFFFCF
:1049F800FFFFFFFFFFFFFFFFFFFFFFFFFFFFFFFFBF
:104A0800FFFFFFFFFFFFFFFFFFF7BDFF0ABBE4C982
:104A1800A3E982F900F900F920F961F962F961F96D
:104A280040F920F140F140E9E0F8E4E14FCC17B655
:104A38005B963B7EFB6DDA6DB795F3BC6892F5FD2E
:104A4800DDFFFFFFDFF7BFFFFFFFFDFFD2DE049DA5
:104A5800C3B565CEACF7EEFFCEFFCEF7F0FFCFFFC4
:104A6800EFFF4CF769DEEBF6CBFFEEFF31EFCA83C1
:104A780013ADFFFFDFFFFFFFFEFFFFFFFFFFFFFF9D
:104A8800FFFFFFFFFFFFFFFFFFFFFFFFFFFFFFFF2E
:104A9800FFFFFFFFFFFFFFFFFFFFFFFFFFFFFFFF1E
:104AA800FFFFFFFFFFFFFFFFFFFFFFFFFFFFFFFF0E
:104AB800FFFFFFFFFFFFFFFFFFFFFFFFFFFFFFFFFE
:104AC800FFFFFFFFFFFFFFFFFFFFFFFFFFFFFFFFEE
:104AD800FFFFFFFFFFFFFFFFFFFFFFFFFFFFFFFFDE
:104AE800FFFFFFFFFFFFFFFFFFFFFFFFFFFFFFFFCE
:104AF800FFFFFFFFFFFFFFFFFFFFFFFFFFFFFFFFBE
:104B0800FFFFFFFFFFFFFFFFFFF7BDFF8CCBE4C9EF
:104B1800C3E182F900F900F900F920F921F920F937
:104B280020F920F920F120F162D12DDCB8CE1BA7A5
:104B38009C965D96FD8DFC7DBA75B78D75A5DEFFDB
:104B4800BEFFDEFFFFFFFFFFFFFFFFFFDAFFE79C6F
:104B580083AD02BE49EFEDFFCDF7F0FFEEF7EEF7BC
:104B6800CBF7ECFFECFFADFFEBFFAEF730CE3AEF43
:104B7800EC62BFFFFFFFFEFFFEFFFFFFFFFFFFFF2F
:104B8800FFFFFFFFFFFFFFFFFFFFFFFFFFFFFFFF2D
:104B9800FFFFFFFFFFFFFFFFFFFFFFFFFFFFFFFF1D
:104BA800FFFFFFFFFFFFFFFFFFFFFFFFFFFFFFFF0D
:104BB800FFFFFFFFFFFFFFFFFFFFFFFFFFFFFFFFFD
:104BC800FFFFFFFFFFFFFFFFFFFFFFFFFFFFFFFFED
:104BD800FFFFFFFFFFFFFFFFFFFFFFFFFFFFFFFFDD
:104BE800FFFFFFFFFFFFFFFFFFFFFFFFFFFFFFFFCD
:104BF800FFFFFFFFFFFFFFFFFFFFFFFFFFFFFFFFBD
:104C0800FFFFFFFFFFFFFFFFFFFFBDFF8BC3E4C9EF
:104C1800C3E182F920F900F900F900F901F900F976
:104C280000F900F9E0F8E1F82BABD9EEDDCF5DAF84
:104C38001DBF3BB6FBA5BB8DBA7D9975D88D9ABEB5
:104C4800DFFFFFFFFEFFFDFFFFFFDFFFFEFFADB54C
:104C580021A5E0B5E4D6ECFFEEFF8DEFEFFFEDF711
:104C6800ECFFEBFFCAF7EDFFEBFFF1FF11C6BEFF4C
:104C78006F7379CEFEFFFEFFFFFFFFFFFFFFFFFF11
:104C8800FFFFFFFFFFFFFFFFFFFFFFFFFFFFFFFF2C
:104C9800FFFFFFFFFFFFFFFFFFFFFFFFFFFFFFFF1C
:104CA800FFFFFFFFFFFFFFFFFFFFFFFFFFFFFFFF0C
:104CB800FFFFFFFFFFFFFFFFFFFFFFFFFFFFFFFFFC
:104CC800FFFFFFFFFFFFFFFFFFFFFFFFFFFFFFFFEC
:104CD800FFFFFFFFFFFFFFFFFFFFFFFFFFFFFFFFDC
:104CE800FFFFFFFFFFFFFFFFFFFFFFFFFFFFFFFFCC
:104CF800FFFFFFFFFFFFFFFFFFFFFFFFFFFFFFFFBC
:104D0800FFFFFFFFFFFFFFFFFFFF9CFFA7AAC3C92D
:104D1800C3E982F140F120F900F9E0F8E1F800F97F
:104D280000F9E0F8C0F8E3F8B5BDDEF7DFE79FDF8C
:104D38009FE7FCCE9BB61BA6598599857775B68DDE
:104D4800BEE7FFFFDEFFFEFFFDFFDFFFDFFFF6E64A
:104D5800239DE0AD41C68AEFEEFFEFFFCDF7EEF7FA
:104D6800EEFFEDF7EDFFECFFEDF7AED618EFDFFF46
:104D7800F9C5AE73DDF7FEFFFFFFFFFFFFFFFFFF83
:104D8800FFFFFFFFFFFFFFFFFFFFFFFFFFFFFFFF2B
:104D9800FFFFFFFFFFFFFFFFFFFFFFFFFFFFFFFF1B
:104DA800FFFFFFFFFFFFFFFFFFFFFFFFFFFFFFFF0B
:104DB800FFFFFFFFFFFFFFFFFFFFFFFFFFFFFFFFFB
:104DC800FFFFFFFFFFFFFFFFFFFFFFFFFFFFFFFFEB
:104DD800FFFFFFFFFFFFFFFFFFFFFFFFFFFFFFFFDB
:104DE800FFFFFFFFFFFFFFFFFFFFFFFFFFFFFFFFCB
:104DF800FFFFFFFFFFFFFFFFFFFFFFFFFFFFFFFFBB
:104E0800FFFFFFFFFFFFFFFFFFF75BFFC391A2C993
:104E1800C3E982F140F120F900F9E0F8E1F801F97D
:104E280000F900F922F967F9DDEFFFFFDFFFBFFFA7
:104E38009FF79EDF5DC77BAEDA9D998DB775D685E6
:104E480058B6FFFFDFFFFFFFFCFFFFFFDFFFFDFF9F
:104E580047A580ADE0B507DFEDFFCDFFEEFFEFFF23
:104E6800F1FF90F7F0FFCDF7F1F7CEBDFDFFDFFFC3
:104E7800BFFFA9523BDFFFFFFFFFFFFFFFFFFFFF61
:104E8800FFFFFFFFFFFFFEFFFFFFFFFFFFFFFFFF2B
:104E9800FFFFFFFFFFFFFFFFFFFFFFFFFFFFFFFF1A
:104EA800FFFFFFFFFFFFFFFFFFFFFFFFFFFFFFFF0A
:104EB800FFFFFFFFFFFFFFFFFFFFFFFFFFFFFFFFFA
:104EC800FFFFFFFFFFFFFFFFFFFFFFFFFFFFFFFFEA
:104ED800FFFFFFFFFFFFFFFFFFFFFFFFFFFFFFFFDA
:104EE800FFFFFFFFFFFFFFFFFFFFFFFFFFFFFFFFCA
:104EF800FFFFFFFFFFFFFFFFFFFFFFFFFFFFFFFFBA
:104F0800FFFFFFFFFFFFFFFFFFF798F6E39903D2CC
:104F180082E1A3F941F9E0F8E0F000F9C2F8E1F81C
:104F280000F920E943C9B0FBFFFFDFFFDFFF1EF7F1
:104F3800BFFFFFF7DFDF1DC75BA6B97DD86DB6756C
:104F4800B7A5BFFFDFFFFFFFFDFFFFFFDFFFFFFF8D
:104F580092D624A5A0AD21C6C9FFCBFFEDFFAEFFB9
:104F6800D0FFD1FFAFF7EFFF70CE57EFFEFFDFFFA7
:104F7800FFFF54A5AD73FFFFDFFFFFFFFFFFFFFF3C
:104F8800FFFFFFFFFFFFFEFFFFFFFFFFFFFFFFFF2A
:104F9800FFFFFFFFFFFFFFFFFFFFFFFFFFFFFFFF19
:104FA800FFFFFFFFFFFFFFFFFFFFFFFFFFFFFFFF09
:104FB800FFFFFFFFFFFFFFFFFFFFFFFFFFFFFFFFF9
:104FC800FFFFFFFFFFFFFFFFFFFFFFFFFFFFFFFFE9
:104FD800FFFFFFFFFFFFFFFFFFFFFFFFFFFFFFFFD9
:104FE800FFFFFFFFFFFFFFFFFFFFFFFFFFFFFFFFC9
:104FF800FFFFFFFFFFFFFFFFFFFFFFFFFFFFFFFFB9
:10500800FFFFFFFFFFFFFFFFFFF736EE03AAE2D126
:10501800C3E962F900F920F940F900F1A1F8A1F813
:1050280001F162C9A8BA38FEDFFFDFFFFFFFFCE627
:10503800BFFFFFFFFFF7BFDFFDB63B86FA6D976D39
:1050480077953EEFDFFFFFFFFFFFFFFFFEFFFFFF4C
:10505800DEFFCA9C83AD20BEC2D6EAFFECFFECFFA0
:10506800CDFFCEFFF0FF4EEF14C6DCFFFFFFFFFFC2
:10507800BEF7FFFF4942DCDEFFFFFFFFFFFFFFFF38
:10508800FFFFBFFFFFFFFDFFFFFFFFFFFFFFFFFF6A
:10509800FFFFFFFFFFFFFFFFFFFFFFFFFFFFFFFF18
:1050A800FFFFFFFFFFFFFFFFFFFFFFFFFFFFFFFF08
:1050B800FFFFFFFFFFFFFFFFFFFFFFFFFFFFFFFFF8
:1050C800FFFFFFFFFFFFFFFFFFFFFFFFFFFFFFFFE8
:1050D800FFFFFFFFFFFFFFFFFFFFFFFFFFFFFFFFD8
:1050E800FFFFFFFFFFFFFFFFFFFFFFFFFFFFFFFFC8
:1050F800FFFFFFFFFFFFFFFFFFFFFFFFFFFFFFFFB8
:10510800FFFFFFFFFFFFFFFFFFEF93E5C2B1C1D134
:10511800C2E182F900F900F900F141F1A1F8C1F802
:1051280042D92ACBF5E57CFFBFFFDFFFFFFF1BDF7E
:105138009DEFFEF7FFF7FFE73FCF5DA6BB857875CC
:10514800778DDCCEFFFFDFFFFFFFFFFFFEFFDFFFF6
:10515800DFFF19EF849481AD63CE47EFA9FFEAFF23
:10516800EAFFEDFF6FF7ABBDDEFFFFFFDEFFFFFFDE
:10517800FEFFFFFFD8BD6B52FFFFBFF7FFFFFFFF2A
:10518800DFFFFFFFFFFFFDFFFFFFFFFFFFFFFFFF49
:10519800FFFFFFFFFFFFFFFFFFFFFFFFFFFFFFFF17
:1051A800FFFFFFFFFFFFFFFFFFFFFFFFFFFFFFFF07
:1051B800FFFFFFFFFFFFFFFFFFFFFFFFFFFFFFFFF7
:1051C800FFFFFFFFFFFFFFFFFFFFFFFFFFFFFFFFE7
:1051D800FFFFFFFFFFFFFFFFFFFFFFFFFFFFFFFFD7
:1051E800FFFFFFFFFFFFFFFFFFFFFFFFFFFFFFFFC7
:1051F800FFFFFFFFFFFFFFFFFFFFFFFFFFFFFFFFB7
:10520800FFFFFFFFFFFFFFFFFFEF11D5C1C1E1E97E
:1052180061D9C3F161F9E0F8E0F001F9E0F820E9BB
:1052280005BA19FFBCEFFDEF3EF79EF7FEFF9CE7BE
:105238007BE7FFFFFFF7FFEF5EDF7DC6BB9D98852D
:10524800B77DBAB6FFFF7FFFDFFFFFFFFEFFFFFF5F
:10525800DFFFDDFFD4E607A5C7BD26C669EF47E730
:105268008BEFCDDE4CB5B8FFDFFFDFFFFFFFFEFFA2
:10527800FEFFDFFFFFFFCD5AD49CFFFFDFFFFFFFDC
:10528800FFFFFFFFBEF7FEFFFFFFFFFFFFFFFFFF70
:10529800FFFFFFFFFFFFFFFFFFFFFFFFFFFFFFFF16
:1052A800FFFFFFFFFFFFFFFFFFFFFFFFFFFFFFFF06
:1052B800FFFFFFFFFFFFFFFFFFFFFFFFFFFFFFFFF6
:1052C800FFFFFFFFFFFFFFFFFFFFFFFFFFFFFFFFE6
:1052D800FFFFFFFFFFFFFFFFFFFFFFFFFFFFFFFFD6
:1052E800FFFFFFFFFFFFFFFFFFFFFFFFFFFFFFFFC6
:1052F800FFFFFFFFFFFFFFFFFFFFFFFFFFFFFFFFB6
:10530800FFFFFFFFFFFFFFFFFFEFD0CC01CAE1E97E
:1053180081E1E2E9A1F100F9E0F8A0F840F1C0C1AB
:1053280030DDFEFFFFEFFFF73DEF5CE7FEFFDCF748
:10533800FADEFFFFFFFFDEEF9DE7FCD61AAEB78D62
:10534800B67DBAB6DFFF5FFFFFFFDFFFFFFF9EF707
:10535800FFFFFEFFDCFF39EF2EAD08A586B5E6BDE1
:1053680048ADF0C5BBFFFEFFDFFFDFFFFFFFDDFF3E
:10537800BDF7FFFFFFFF7EEF462918C6FFFFBEFF00
:10538800DFFFFFFFFFFFFFFFFFFFFFFFFFFFFFFF45
:10539800FFFFFFFFFFFFFFFFFFFFFFFFFFFFFFFF15
:1053A800FFFFFFFFFFFFFFFFFFFFFFFFFFFFFFFF05
:1053B800FFFFFFFFFFFFFFFFFFFFFFFFFFFFFFFFF5
:1053C800FFFFFFFFFFFFFFFFFFFFFFFFFFFFFFFFE5
:1053D800FFFFFFFFFFFFFFFFFFFFFFFFFFFFFFFFD5
:1053E800FFFFFFFFFFFFFFFFFFFFFFFFFFFFFFFFC5
:1053F800FFFFFFFFFFFFFFFFFFFFFFFFFFFFFFFFB5
:10540800FFFFFFFFFFFFFFFFFFFFAEC400AAC0D1F1
:10541800C1E1C2E1A0E900F9A0F800F9A0C92AEDAC
:10542800F5E6FFFFFFEFFFFFBEF73BE7FDFFFDF7E8
:10543800DBDEBFFFBFFFBEEFBDDF7DCF9AB6B795FE
:10544800958DFBC6DFFF7FFFFFFFDFFFDFFFFFFF5D
:10545800DCF7FEFFFFFFDFFFDEFF78F791D691D67E
:1054680098F7DDFF9EFFFFFFDFFFDFFFFEFFFEFF78
:10547800FFFFDFFFFFFFFFFFDADEC31858CEFFFF95
:10548800FFFFDFFFFFFFBFF7FFFFFFFFFFFFFFFF8C
:10549800FFFFFFFFFFFFFFFFFFFFFFFFFFFFFFFF14
:1054A800FFFFFFFFFFFFFFFFFFFFFFFFFFFFFFFF04
:1054B800FFFFFFFFFFFFFFFFFFFFFFFFFFFFFFFFF4
:1054C800FFFFFFFFFFFFFFFFFFFFFFFFFFFFFFFFE4
:1054D800FFFFFFFFFFFFFFFFFFFFFFFFFFFFFFFFD4
:1054E800FFFFFFFFFFFFFFFFFFFFFFFFFFFFFFFFC4
:1054F800FFFFFFFFFFFFFFFFFFFFFFFFFFFFFFFFB4
:10550800FFFFFFFFFFFFFFFF7FFF8EB4C08A42D37C
:10551800E1D9A1E980F1E0F8C0F8C0D8E3DB90F761
:1055280036DFDFFF9FFFFEFFFFF71BE7FDFFFEFFF4
:105538009FEF9FF75FEF5FE75DCF7DC7DCBEB89D4C
:10554800B69D9DDFFFFFDFFFDFFFFFFFDFFFFEFFF1
:10555800FEFFFFFFBFFFDFFFDFFFFEFFFEFFFEFFD7
:10556800FEFFFEFFFFFFDFF7DFFFFFFFFEFFFEFF8F
:10557800FFFFDFFFDFFFFFFFFEFF58CE0429B6BDA8
:10558800FFFFFFFFDFFFFFFFFFFFFFFFFFFFFFFF43
:10559800FFFFFFFFFFFFFFFFFFFFFFFFFFFFFFFF13
:1055A800FFFFFFFFFFFFFFFFFFFFFFFFFFFFFFFF03
:1055B800FFFFFFFFFFFFFFFFFFFFFFFFFFFFFFFFF3
:1055C800FFFFFFFFFFFFFFFFFFFFFFFFFFFFFFFFE3
:1055D800FFFFFFFFFFFFFFFFFFFFFFFFFFFFFFFFD3
:1055E800FFFFFFFFFFFFFFFFFFFFFFFFFFFFFFFFC3
:1055F800FFFFFFFFFFFFFFFFFFFFFFFFFFFFFFFFB3
:10560800FFFFFFFFFFFFFFFFFFFE8EB40394CBFDFC
:10561800E1D1A2F180F9C0F8C0F840D125D5F1EF69
:1056280016DF7FFF9FFFFEF7FFFFFBE6DDFFFEFFB4
:10563800FFEF1FD7FCBD1AB6DCB61DBFDEC6BAAD7C
:10564800D8ADFFEFFEEFFEF7FFFFDEFFFEFFFEFF28
:10565800DEFFFFFFFFFFFFFFFEFFFFFFBFFFBFFFF4
:10566800FFFFFCFFFEFFFFFFFFFFFEFFFEFFFEFF49
:10567800FFFFFFFFFFFFFEFFDDFFFEFFBADE074271
:105688008D733CE7FFFFDFFFFFFFFFFFFFFFFFFF1B
:10569800FFFFFFFFFFFFFFFFFFFFFFFFFFFFFFFF12
:1056A800FFFFFFFFFFFFFFFFFFFFFFFFFFFFFFFF02
:1056B800FFFFFFFFFFFFFFFFFFFFFFFFFFFFFFFFF2
:1056C800FFFFFFFFFFFFFFFFFFFFFFFFFFFFFFFFE2
:1056D800FFFFFFFFFFFFFFFFFFFFFFFFFFFFFFFFD2
:1056E800FFFFFFFFFFFFFFFFFFFFFFFFFFFFFFFFC2
:1056F800FFFFFFFFFFFFFFFFFFFFFFFFFFFFFFFFB2
:10570800FFFFFFFFFFFFFFFF7FFF2AA464A4F0FE57
:1057180062DAA1F140F901F9E2F860C96AFEEEE740
:1057280095D7FFFFBFFFDEF7DFFF9EF79ACEFFEFAB
:10573800BBB6D78D9BA63A9ED89519A69BBE18B620
:10574800FFFFDFFFFFFFFFFFFFFFFFFFFFFFFFFF81
:10575800FFFFFFFFFFFFFFFFFFFFFFFFFFFFFFFF51
:10576800FFFFFFFFFFFFFFFFFFFFFFFFFFFFFFFF41
:10577800FFFFFFFFFFFFFFFFFFFFDFFFFFFFDFFF71
:105788009294A6312C6355AD38C679CEFFFFFFFF42
:10579800FFFFFFFFFFFFFFFFFFFFFFFFFFFFFFFF11
:1057A800FFFFFFFFFFFFFFFFFFFFFFFFFFFFFFFF01
:1057B800FFFFFFFFFFFFFFFFFFFFFFFFFFFFFFFFF1
:1057C800FFFFFFFFFFFFFFFFFFFFFFFFFFFFFFFFE1
:1057D800FFFFFFFFFFFFFFFFFFFFFFFFFFFFFFFFD1
:1057E800FFFFFFFFFFFFFFFFFFFFFFFFFFFFFFFFC1
:1057F800FFFFFFFFFFFFFFFFFFFFFFFFFFFFFFFFB1
:10580800FFFFFFFFFFFFFFFF9FFF4A9C84A430FFBD
:1058180045E3C1E180F101F9C1F8C0D9ABFEEEEF73
:1058280075D7FFFFDFFF3BE7DFFFFFFFBFEF1DCFB0
:1058380018A6DCB61DBF1DBF3DC77AB6B7A51CDFCD
:10584800FFFFFFFFFFFFDFFFFFFFFFFFFFFFFFFF80
:10585800FFFFFFFFFFFFFFFFFFFFFFFFFFFFFFFF50
:10586800FFFFFFFFFFFFFFFFFFFFFFFFFFFFFFFF40
:10587800FFFFFFFFFFFFFFFFFFFFFFFFDFFFFFFF50
:10588800FFFF3CE7D7BDCF7BCF7B14A5BEF7FFFF5B
:10589800FFFFDFFFFFFFFFFFFFFFFFFFFFFFFFFF30
:1058A800FFFFFFFFFFFFFFFFFFFFFFFFFFFFFFFF00
:1058B800FFFFFFFFFFFFFFFFFFFFFFFFFFFFFFFFF0
:1058C800FFFFFFFFFFFFFFFFFFFFFFFFFFFFFFFFE0
:1058D800FFFFFFFFFFFFFFFFFFFFFFFFFFFFFFFFD0
:1058E800FFFFFFFFFFFFFFFFFFFFFFFFFFFFFFFFC0
:1058F800FFFFFFFFFFFFFFFFFFFFFFFFFFFFFFFFB0
:10590800FFFFFFFFFFFFFFFFBFFF6B9CA4A46FFF1C
:1059180088EC00C2E1E921F9C1F021E2ECFECEF702
:1059280035DFFFFFDFFF1AD7DFFFFFFFFFFF39B6C5
:10593800BBBE9FD7BFDFFFE79BBE19B69BCE7ACE13
:10594800DFFFFFFFFFFFFFFFFFFFFFFFFFFFFFFF7F
:10595800FFFFFFFFFFFFFFFFFFFFFFFFFFFFFFFF4F
:10596800FFFFFFFFFFFFFFFFFFFFFFFFFFFFFFFF3F
:10597800FFFFFFFFFFFFFFFFFFFFFFFFFFFFFFFF2F
:10598800FFFFFFFFFFFFDFFFFFFFBEF7FFFFDFFFA8
:10599800FFFFFFFFFFFFFFFFFFFFFFFFFFFFFFFF0F
:1059A800FFFFFFFFFFFFFFFFFFFFFFFFFFFFFFFFFF
:1059B800FFFFFFFFFFFFFFFFFFFFFFFFFFFFFFFFEF
:1059C800FFFFFFFFFFFFFFFFFFFFFFFFFFFFFFFFDF
:1059D800FFFFFFFFFFFFFFFFFFFFFFFFFFFFFFFFCF
:1059E800FFFFFFFFFFFFFFFFFFFFFFFFFFFFFFFFBF
:1059F800FFFFFFFFFFFFFFFFFFFFFFFFFFFFFFFFAF
:105A0800FFFFFFFFFFFFFFFFBFFFCDAC42A48FFFEB
:105A18006AF520B202E221F9C0F020E20CFFEFF7AC
:105A280034DFDFFFDFFF7CDF7DEFFFFF5DE759BE7F
:105A38007EDFFFEFBFE7F16BE51046214E6BB394B5
:105A4800DFFFDFFFBEF7FFFFFFFFFFFFFFFFFFFFE7
:105A5800FFFFFFFFFFFFFFFFFFFFFFFFFFFFFFFF4E
:105A6800FFFFFFFFFFFFFFFFFFFFFFFFFFFFFFFF3E
:105A7800FFFFFFFFFFFFFFFFFFFFFFFFFFFFFFFF2E
:105A8800FFFFFFFFDFFFFFFFFFFFFFFFFFFFFFFF3E
:105A9800FFFFDFFFFFFFFFFFFFFFFFFFFFFFFFFF2E
:105AA800FFFFFFFFFFFFFFFFFFFFFFFFFFFFFFFFFE
:105AB800FFFFFFFFFFFFFFFFFFFFFFFFFFFFFFFFEE
:105AC800FFFFFFFFFFFFFFFFFFFFFFFFFFFFFFFFDE
